{"contracts/GreenDAO.sol":{"GreenDAO":{"abi":[{"inputs":[{"internalType":"uint256","name":"_idea_id","type":"uint256"}],"name":"RedeemDelegetdMoney","outputs":[{"internalType":"string","name":"","type":"string"}],"stateMutability":"nonpayable","type":"function"},{"inputs":[],"name":"_approveRequiredMsgs","outputs":[],"stateMutability":"nonpayable","type":"function"},{"inputs":[],"name":"_dao_ids","outputs":[{"internalType":"uint256","name":"","type":"uint256"}],"stateMutability":"view","type":"function"},{"inputs":[{"internalType":"uint256","name":"","type":"uint256"}],"name":"_dao_uris","outputs":[{"internalType":"string","name":"dao_wallet","type":"string"},{"internalType":"string","name":"dao_uri","type":"string"},{"internalType":"string","name":"finished","type":"string"}],"stateMutability":"view","type":"function"},{"inputs":[],"name":"_goal_ids","outputs":[{"internalType":"uint256","name":"","type":"uint256"}],"stateMutability":"view","type":"function"},{"inputs":[{"internalType":"uint256","name":"","type":"uint256"}],"name":"_goal_uris","outputs":[{"internalType":"uint256","name":"dao_id","type":"uint256"},{"internalType":"string","name":"goal_uri","type":"string"}],"stateMutability":"view","type":"function"},{"inputs":[],"name":"_ideas_ids","outputs":[{"internalType":"uint256","name":"","type":"uint256"}],"stateMutability":"view","type":"function"},{"inputs":[{"internalType":"uint256","name":"","type":"uint256"}],"name":"_ideas_uris","outputs":[{"internalType":"uint256","name":"goal_id","type":"uint256"},{"internalType":"string","name":"ideas_uri","type":"string"},{"internalType":"uint256","name":"donation","type":"uint256"}],"stateMutability":"view","type":"function"},{"inputs":[],"name":"_ideas_vote_ids","outputs":[{"internalType":"uint256","name":"","type":"uint256"}],"stateMutability":"view","type":"function"},{"inputs":[],"name":"_message_ids","outputs":[{"internalType":"uint256","name":"","type":"uint256"}],"stateMutability":"view","type":"function"},{"inputs":[],"name":"_reply_ids","outputs":[{"internalType":"uint256","name":"","type":"uint256"}],"stateMutability":"view","type":"function"},{"inputs":[],"name":"_smart_contract_ids","outputs":[{"internalType":"uint256","name":"","type":"uint256"}],"stateMutability":"view","type":"function"},{"inputs":[{"internalType":"uint256","name":"","type":"uint256"}],"name":"_smart_contracts_uris","outputs":[{"internalType":"uint256","name":"smart_contract_id","type":"uint256"},{"internalType":"uint256","name":"ideas_id","type":"uint256"},{"internalType":"string","name":"smart_contract_uri","type":"string"}],"stateMutability":"view","type":"function"},{"inputs":[{"internalType":"uint256","name":"_ideas_id","type":"uint256"},{"internalType":"uint256","name":"_doantion","type":"uint256"}],"name":"add_donation","outputs":[],"stateMutability":"nonpayable","type":"function"},{"inputs":[{"internalType":"uint256","name":"","type":"uint256"}],"name":"all_goal_ideas_votes","outputs":[{"internalType":"uint256","name":"goal_id","type":"uint256"},{"internalType":"uint256","name":"ideas_id","type":"uint256"},{"internalType":"string","name":"wallet","type":"string"}],"stateMutability":"view","type":"function"},{"inputs":[{"internalType":"uint256","name":"","type":"uint256"}],"name":"all_messages","outputs":[{"internalType":"uint256","name":"message_id","type":"uint256"},{"internalType":"uint256","name":"ideas_id","type":"uint256"},{"internalType":"string","name":"message","type":"string"}],"stateMutability":"view","type":"function"},{"inputs":[{"internalType":"uint256","name":"","type":"uint256"}],"name":"all_replies","outputs":[{"internalType":"uint256","name":"reply_id","type":"uint256"},{"internalType":"uint256","name":"message_id","type":"uint256"},{"internalType":"string","name":"message","type":"string"}],"stateMutability":"view","type":"function"},{"inputs":[{"internalType":"string","name":"_dao_wallet","type":"string"},{"internalType":"string","name":"_dao_uri","type":"string"}],"name":"create_dao","outputs":[{"internalType":"uint256","name":"","type":"uint256"}],"stateMutability":"nonpayable","type":"function"},{"inputs":[{"internalType":"string","name":"_goal_uri","type":"string"},{"internalType":"uint256","name":"_dao_id","type":"uint256"}],"name":"create_goal","outputs":[{"internalType":"uint256","name":"","type":"uint256"}],"stateMutability":"nonpayable","type":"function"},{"inputs":[{"internalType":"uint256","name":"_goal_id","type":"uint256"},{"internalType":"uint256","name":"_ideas_id","type":"uint256"},{"internalType":"string","name":"_wallet","type":"string"}],"name":"create_goal_ideas_vote","outputs":[{"internalType":"uint256","name":"","type":"uint256"}],"stateMutability":"nonpayable","type":"function"},{"inputs":[{"internalType":"string","name":"_ideas_uri","type":"string"},{"internalType":"uint256","name":"_goal_id","type":"uint256"},{"internalType":"string[]","name":"_smart_contracts","type":"string[]"}],"name":"create_ideas","outputs":[{"internalType":"uint256","name":"","type":"uint256"}],"stateMutability":"nonpayable","type":"function"},{"inputs":[{"internalType":"uint256","name":"_dao_id","type":"uint256"}],"name":"dao_uri","outputs":[{"internalType":"string","name":"","type":"string"}],"stateMutability":"view","type":"function"},{"inputs":[{"internalType":"uint256","name":"_idea_id","type":"uint256"},{"internalType":"uint256","name":"_amount","type":"uint256"}],"name":"donate","outputs":[],"stateMutability":"payable","type":"function"},{"inputs":[{"internalType":"uint256","name":"","type":"uint256"}],"name":"donated","outputs":[{"internalType":"uint256","name":"","type":"uint256"}],"stateMutability":"view","type":"function"},{"inputs":[],"name":"getContractBalance","outputs":[{"internalType":"uint256","name":"","type":"uint256"}],"stateMutability":"view","type":"function"},{"inputs":[],"name":"getContractRewards","outputs":[{"components":[{"internalType":"string","name":"denom","type":"string"},{"internalType":"uint256","name":"amount","type":"uint256"},{"internalType":"uint8","name":"precision","type":"uint8"}],"internalType":"struct DecCoin[]","name":"","type":"tuple[]"}],"stateMutability":"view","type":"function"},{"inputs":[],"name":"getDelegation","outputs":[{"internalType":"uint256","name":"","type":"uint256"}],"stateMutability":"view","type":"function"},{"inputs":[{"internalType":"uint256","name":"ideas_id","type":"uint256"}],"name":"getMsgIDs","outputs":[{"internalType":"uint256[]","name":"","type":"uint256[]"}],"stateMutability":"view","type":"function"},{"inputs":[{"internalType":"uint256","name":"message_id","type":"uint256"}],"name":"getReplyIDs","outputs":[{"internalType":"uint256[]","name":"","type":"uint256[]"}],"stateMutability":"view","type":"function"},{"inputs":[],"name":"getUnbondingDelegation","outputs":[{"components":[{"internalType":"int64","name":"creationHeight","type":"int64"},{"internalType":"int64","name":"completionTime","type":"int64"},{"internalType":"uint256","name":"initialBalance","type":"uint256"},{"internalType":"uint256","name":"balance","type":"uint256"}],"internalType":"struct UnbondingDelegationEntry[]","name":"","type":"tuple[]"}],"stateMutability":"view","type":"function"},{"inputs":[],"name":"get_all_daos","outputs":[{"internalType":"string[]","name":"","type":"string[]"}],"stateMutability":"view","type":"function"},{"inputs":[],"name":"get_all_goals","outputs":[{"internalType":"string[]","name":"","type":"string[]"}],"stateMutability":"view","type":"function"},{"inputs":[{"internalType":"uint256","name":"_dao_id","type":"uint256"}],"name":"get_all_goals_by_dao_id","outputs":[{"internalType":"string[]","name":"","type":"string[]"}],"stateMutability":"view","type":"function"},{"inputs":[],"name":"get_all_ideas","outputs":[{"internalType":"string[]","name":"","type":"string[]"}],"stateMutability":"view","type":"function"},{"inputs":[{"internalType":"uint256","name":"_goal_id","type":"uint256"}],"name":"get_all_ideas_by_goal_id","outputs":[{"internalType":"string[]","name":"","type":"string[]"}],"stateMutability":"view","type":"function"},{"inputs":[{"internalType":"string","name":"_goal_uri","type":"string"}],"name":"get_goal_id_by_goal_uri","outputs":[{"internalType":"uint256","name":"","type":"uint256"}],"stateMutability":"view","type":"function"},{"inputs":[{"internalType":"string","name":"_ideas_uri","type":"string"}],"name":"get_goal_id_from_ideas_uri","outputs":[{"internalType":"uint256","name":"","type":"uint256"}],"stateMutability":"view","type":"function"},{"inputs":[{"internalType":"string","name":"_ideas_uri","type":"string"}],"name":"get_ideas_id_by_ideas_uri","outputs":[{"internalType":"uint256","name":"","type":"uint256"}],"stateMutability":"view","type":"function"},{"inputs":[{"internalType":"uint256","name":"_goal_id","type":"uint256"},{"internalType":"uint256","name":"_ideas_id","type":"uint256"}],"name":"get_ideas_votes_from_goal","outputs":[{"internalType":"string[]","name":"","type":"string[]"}],"stateMutability":"view","type":"function"},{"inputs":[{"internalType":"uint256","name":"_goal_id","type":"uint256"}],"name":"goal_uri","outputs":[{"internalType":"string","name":"","type":"string"}],"stateMutability":"view","type":"function"},{"inputs":[{"internalType":"uint256","name":"_ideas_id","type":"uint256"}],"name":"ideas_uri","outputs":[{"internalType":"string","name":"","type":"string"}],"stateMutability":"view","type":"function"},{"inputs":[],"name":"reset_all","outputs":[],"stateMutability":"nonpayable","type":"function"},{"inputs":[{"internalType":"uint256","name":"_ideas_id","type":"uint256"},{"internalType":"string","name":"_message","type":"string"}],"name":"sendMsg","outputs":[{"internalType":"uint256","name":"","type":"uint256"}],"stateMutability":"nonpayable","type":"function"},{"inputs":[{"internalType":"uint256","name":"_message_id","type":"uint256"},{"internalType":"string","name":"_reply","type":"string"}],"name":"sendReply","outputs":[{"internalType":"uint256","name":"","type":"uint256"}],"stateMutability":"nonpayable","type":"function"},{"inputs":[{"internalType":"uint256","name":"_dao_id","type":"uint256"},{"internalType":"string","name":"_dao_wallet","type":"string"},{"internalType":"string","name":"_dao_uri","type":"string"}],"name":"set_dao","outputs":[],"stateMutability":"nonpayable","type":"function"},{"inputs":[{"internalType":"uint256","name":"_goal_id","type":"uint256"},{"internalType":"string","name":"_goal_uri","type":"string"}],"name":"set_goal","outputs":[],"stateMutability":"nonpayable","type":"function"},{"inputs":[{"internalType":"uint256","name":"_ideas_id","type":"uint256"},{"internalType":"string","name":"_ideas_uri","type":"string"}],"name":"set_ideas","outputs":[],"stateMutability":"nonpayable","type":"function"},{"inputs":[{"internalType":"uint256","name":"_amount","type":"uint256"}],"name":"stake","outputs":[],"stateMutability":"nonpayable","type":"function"},{"inputs":[{"internalType":"uint256","name":"","type":"uint256"}],"name":"unbondingDelegations","outputs":[{"internalType":"int64","name":"completionTime","type":"int64"},{"internalType":"uint256","name":"amount","type":"uint256"}],"stateMutability":"view","type":"function"},{"inputs":[],"name":"withdrawAllMoney","outputs":[],"stateMutability":"nonpayable","type":"function"},{"inputs":[{"internalType":"uint256","name":"_idea_id","type":"uint256"}],"name":"withdrawDonatedMoney","outputs":[{"internalType":"int64","name":"","type":"int64"}],"stateMutability":"nonpayable","type":"function"}],"devdoc":{"kind":"dev","methods":{"_approveRequiredMsgs()":{"details":"approves the staking and distribution contracts for donating"}},"stateVariables":{"donated":{"details":"map to keep track of user deposits to the contract."},"stakingMethods":{"details":"the required authorizations for Staking and Distribution"},"unbondingDelegations":{"details":"map that keeps track of all currently unbonding delegations"}},"version":1},"evm":{"bytecode":{"linkReferences":{},"object":"6080604052604051806060016040528060405180606001604052806023815260200162005394602391398152602001604051806060016040528060258152602001620053386025913981526020016040518060600160405280602a8152602001620052db602a913981525060009060036200007c929190620000f7565b5060405180602001604052806040518060600160405280603781526020016200535d603791398152506001906001620000b792919062000157565b50604051806060016040528060338152602001620053056033913960049081620000e29190620004be565b50348015620000f057600080fd5b50620005a5565b82805482825590600052602060002090810192821562000144579160200282015b8281111562000143578251829081620001329190620004be565b509160200191906001019062000118565b5b509050620001539190620001b7565b5090565b828054828255906000526020600020908101928215620001a4579160200282015b82811115620001a3578251829081620001929190620004be565b509160200191906001019062000178565b5b509050620001b39190620001b7565b5090565b5b80821115620001db5760008181620001d19190620001df565b50600101620001b8565b5090565b508054620001ed90620002ad565b6000825580601f1062000201575062000222565b601f01602090049060005260206000209081019062000221919062000225565b5b50565b5b808211156200024057600081600090555060010162000226565b5090565b600081519050919050565b7f4e487b7100000000000000000000000000000000000000000000000000000000600052604160045260246000fd5b7f4e487b7100000000000000000000000000000000000000000000000000000000600052602260045260246000fd5b60006002820490506001821680620002c657607f821691505b602082108103620002dc57620002db6200027e565b5b50919050565b60008190508160005260206000209050919050565b60006020601f8301049050919050565b600082821b905092915050565b600060088302620003467fffffffffffffffffffffffffffffffffffffffffffffffffffffffffffffffff8262000307565b62000352868362000307565b95508019841693508086168417925050509392505050565b6000819050919050565b6000819050919050565b60006200039f6200039962000393846200036a565b62000374565b6200036a565b9050919050565b6000819050919050565b620003bb836200037e565b620003d3620003ca82620003a6565b84845462000314565b825550505050565b600090565b620003ea620003db565b620003f7818484620003b0565b505050565b5b818110156200041f5762000413600082620003e0565b600181019050620003fd565b5050565b601f8211156200046e576200043881620002e2565b6200044384620002f7565b8101602085101562000453578190505b6200046b6200046285620002f7565b830182620003fc565b50505b505050565b600082821c905092915050565b6000620004936000198460080262000473565b1980831691505092915050565b6000620004ae838362000480565b9150826002028217905092915050565b620004c98262000244565b67ffffffffffffffff811115620004e557620004e46200024f565b5b620004f18254620002ad565b620004fe82828562000423565b600060209050601f83116001811462000536576000841562000521578287015190505b6200052d8582620004a0565b8655506200059d565b601f1984166200054686620002e2565b60005b82811015620005705784890151825560018201915060208501945060208101905062000549565b868310156200059057848901516200058c601f89168262000480565b8355505b6001600288020188555050505b505050505050565b614d2680620005b56000396000f3fe6080604052600436106102e45760003560e01c8063803f5b9f11610190578063aa4cdf2a116100dc578063c04fe97811610095578063d3791b201161006f578063d3791b2014610c47578063e3280c9614610c72578063e32acc1a14610caf578063ff4a37ef14610cec576102e4565b8063c04fe97814610bb6578063c29595c514610be1578063c4c2e36414610c0a576102e4565b8063aa4cdf2a14610ab8578063ae429e4714610af5578063b16060a614610b20578063b2947c7114610b37578063b527d45e14610b4e578063c04e743014610b8d576102e4565b806390d756a711610149578063a1ca917811610123578063a1ca9178146109fe578063a2cdb3a914610a3b578063a694fc3a14610a64578063aa2bf5d314610a8d576102e4565b806390d756a71461095957806397ee7606146109965780639c6353e8146109c1576102e4565b8063803f5b9f14610811578063812fae1f1461084e57806382fcc7321461088b578063881de858146108c85780638d3d2595146108f15780639077007d1461092e576102e4565b8063414d9a2b1161024f5780635d907da11161020857806371085cab116101e257806371085cab1461072d5780637495f8541461076a5780637bbd582d146107a85780637f2035d4146107d3576102e4565b80635d907da1146106885780636af3304e146106c55780636f9fb98a14610702576102e4565b8063414d9a2b1461054e57806342c7652a1461058b578063468d0c80146105b65780634a797bd7146105f55780634be7adb51461062057806353f688021461065d576102e4565b80631ba44c4c116102a15780631ba44c4c146103ec5780631e9ac9f51461042b57806327a568b91461046857806329b56f60146104a75780632d5bf5b0146104d25780633f87a2f41461050f576102e4565b80630cdd53f6146102e9578063109ac97014610305578063131d44f21461034257806313bf4cea1461037f5780631b52b9de146103aa5780631b592aeb146103c1575b600080fd5b61030360048036038101906102fe919061311e565b610d2b565b005b34801561031157600080fd5b5061032c6004803603810190610327919061315e565b610d61565b60405161033991906132dd565b60405180910390f35b34801561034e57600080fd5b506103696004803603810190610364919061315e565b610ed0565b60405161037691906132dd565b60405180910390f35b34801561038b57600080fd5b5061039461103f565b6040516103a1919061330e565b60405180910390f35b3480156103b657600080fd5b506103bf611045565b005b3480156103cd57600080fd5b506103d66110ba565b6040516103e3919061330e565b60405180910390f35b3480156103f857600080fd5b50610413600480360381019061040e919061315e565b6110c0565b60405161042293929190613373565b60405180910390f35b34801561043757600080fd5b50610452600480360381019061044d91906134e6565b611172565b60405161045f919061330e565b60405180910390f35b34801561047457600080fd5b5061048f600480360381019061048a919061315e565b6111e3565b60405161049e9392919061352f565b60405180910390f35b3480156104b357600080fd5b506104bc6113a5565b6040516104c991906132dd565b60405180910390f35b3480156104de57600080fd5b506104f960048036038101906104f4919061357b565b6114e0565b604051610506919061330e565b60405180910390f35b34801561051b57600080fd5b506105366004803603810190610531919061315e565b611564565b60405161054593929190613373565b60405180910390f35b34801561055a57600080fd5b506105756004803603810190610570919061315e565b611616565b604051610582919061330e565b60405180910390f35b34801561059757600080fd5b506105a061162e565b6040516105ad9190613706565b60405180910390f35b3480156105c257600080fd5b506105dd60048036038101906105d8919061315e565b6116b9565b6040516105ec93929190613728565b60405180910390f35b34801561060157600080fd5b5061060a61176b565b604051610617919061330e565b60405180910390f35b34801561062c57600080fd5b506106476004803603810190610642919061311e565b611771565b60405161065491906132dd565b60405180910390f35b34801561066957600080fd5b50610672611903565b60405161067f919061330e565b60405180910390f35b34801561069457600080fd5b506106af60048036038101906106aa919061315e565b61199c565b6040516106bc9190613766565b60405180910390f35b3480156106d157600080fd5b506106ec60048036038101906106e7919061357b565b611a44565b6040516106f9919061330e565b60405180910390f35b34801561070e57600080fd5b50610717611ac8565b604051610724919061330e565b60405180910390f35b34801561073957600080fd5b50610754600480360381019061074f9190613788565b611ad0565b604051610761919061330e565b60405180910390f35b34801561077657600080fd5b50610791600480360381019061078c919061315e565b611b42565b60405161079f9291906137f3565b60405180910390f35b3480156107b457600080fd5b506107bd611b73565b6040516107ca919061330e565b60405180910390f35b3480156107df57600080fd5b506107fa60048036038101906107f5919061315e565b611b79565b60405161080892919061381c565b60405180910390f35b34801561081d57600080fd5b506108386004803603810190610833919061315e565b611c25565b60405161084591906138fb565b60405180910390f35b34801561085a57600080fd5b506108756004803603810190610870919061315e565b611d08565b60405161088291906138fb565b60405180910390f35b34801561089757600080fd5b506108b260048036038101906108ad919061391d565b611deb565b6040516108bf919061330e565b60405180910390f35b3480156108d457600080fd5b506108ef60048036038101906108ea919061398c565b611e6e565b005b3480156108fd57600080fd5b506109186004803603810190610913919061315e565b611ebb565b6040516109259190613766565b60405180910390f35b34801561093a57600080fd5b50610943611f63565b604051610950919061330e565b60405180910390f35b34801561096557600080fd5b50610980600480360381019061097b919061315e565b611f69565b60405161098d9190613766565b60405180910390f35b3480156109a257600080fd5b506109ab61208b565b6040516109b891906132dd565b60405180910390f35b3480156109cd57600080fd5b506109e860048036038101906109e3919061315e565b6121c6565b6040516109f59190613a17565b60405180910390f35b348015610a0a57600080fd5b50610a256004803603810190610a2091906134e6565b61243a565b604051610a32919061330e565b60405180910390f35b348015610a4757600080fd5b50610a626004803603810190610a5d919061311e565b6124ab565b005b348015610a7057600080fd5b50610a8b6004803603810190610a86919061315e565b6124dc565b005b348015610a9957600080fd5b50610aa2612563565b604051610aaf919061330e565b60405180910390f35b348015610ac457600080fd5b50610adf6004803603810190610ada91906134e6565b612569565b604051610aec919061330e565b60405180910390f35b348015610b0157600080fd5b50610b0a6125f0565b604051610b179190613b60565b60405180910390f35b348015610b2c57600080fd5b50610b3561267b565b005b348015610b4357600080fd5b50610b4c612916565b005b348015610b5a57600080fd5b50610b756004803603810190610b70919061315e565b612ac6565b604051610b8493929190613373565b60405180910390f35b348015610b9957600080fd5b50610bb46004803603810190610baf919061357b565b612b78565b005b348015610bc257600080fd5b50610bcb612ba0565b604051610bd891906132dd565b60405180910390f35b348015610bed57600080fd5b50610c086004803603810190610c03919061357b565b612cdb565b005b348015610c1657600080fd5b50610c316004803603810190610c2c9190613b82565b612d03565b604051610c3e919061330e565b60405180910390f35b348015610c5357600080fd5b50610c5c612dd2565b604051610c69919061330e565b60405180910390f35b348015610c7e57600080fd5b50610c996004803603810190610c949190613ce0565b612dd8565b604051610ca6919061330e565b60405180910390f35b348015610cbb57600080fd5b50610cd66004803603810190610cd1919061315e565b612ebd565b604051610ce39190613766565b60405180910390f35b348015610cf857600080fd5b50610d136004803603810190610d0e919061315e565b612f65565b604051610d2293929190613373565b60405180910390f35b610d33612916565b80600260008481526020019081526020016000206000828254610d569190613d9a565b925050819055505050565b6060600060075467ffffffffffffffff811115610d8157610d806133bb565b5b604051908082528060200260200182016040528015610db457816020015b6060815260200190600190039081610d9f5790505b509050600080600090505b600754811015610ec55784600e60008381526020019081526020016000206000015403610eb257600e60008281526020019081526020016000206001018054610e0790613dfd565b80601f0160208091040260200160405190810160405280929190818152602001828054610e3390613dfd565b8015610e805780601f10610e5557610100808354040283529160200191610e80565b820191906000526020600020905b815481529060010190602001808311610e6357829003601f168201915b5050505050838381518110610e9857610e97613e2e565b5b60200260200101819052508180610eae90613e5d565b9250505b8080610ebd90613e5d565b915050610dbf565b508192505050919050565b6060600060085467ffffffffffffffff811115610ef057610eef6133bb565b5b604051908082528060200260200182016040528015610f2357816020015b6060815260200190600190039081610f0e5790505b509050600080600090505b6008548110156110345784600f6000838152602001908152602001600020600001540361101357600f60008281526020019081526020016000206001018054610f7690613dfd565b80601f0160208091040260200160405190810160405280929190818152602001828054610fa290613dfd565b8015610fef5780601f10610fc457610100808354040283529160200191610fef565b820191906000526020600020905b815481529060010190602001808311610fd257829003601f168201915b505050505083838151811061100757611006613e2e565b5b60200260200101819052505b818061101e90613e5d565b925050808061102c90613e5d565b915050610f2e565b508192505050919050565b60075481565b600047905060003373ffffffffffffffffffffffffffffffffffffffff168260405161107090613ed6565b60006040518083038185875af1925050503d80600081146110ad576040519150601f19603f3d011682016040523d82523d6000602084013e6110b2565b606091505b505090505050565b60095481565b60116020528060005260406000206000915090508060000154908060010154908060020180546110ef90613dfd565b80601f016020809104026020016040519081016040528092919081815260200182805461111b90613dfd565b80156111685780601f1061113d57610100808354040283529160200191611168565b820191906000526020600020905b81548152906001019060200180831161114b57829003601f168201915b5050505050905083565b600080600090505b6007548110156111d8578280519060200120600e60008381526020019081526020016000206001016040516111af9190613f83565b6040518091039020036111c557809150506111de565b80806111d090613e5d565b91505061117a565b50600090505b919050565b600d60205280600052604060002060009150905080600001805461120690613dfd565b80601f016020809104026020016040519081016040528092919081815260200182805461123290613dfd565b801561127f5780601f106112545761010080835404028352916020019161127f565b820191906000526020600020905b81548152906001019060200180831161126257829003601f168201915b50505050509080600101805461129490613dfd565b80601f01602080910402602001604051908101604052809291908181526020018280546112c090613dfd565b801561130d5780601f106112e25761010080835404028352916020019161130d565b820191906000526020600020905b8154815290600101906020018083116112f057829003601f168201915b50505050509080600201805461132290613dfd565b80601f016020809104026020016040519081016040528092919081815260200182805461134e90613dfd565b801561139b5780601f106113705761010080835404028352916020019161139b565b820191906000526020600020905b81548152906001019060200180831161137e57829003601f168201915b5050505050905083565b6060600060075467ffffffffffffffff8111156113c5576113c46133bb565b5b6040519080825280602002602001820160405280156113f857816020015b60608152602001906001900390816113e35790505b50905060005b6007548110156114d857600e6000828152602001908152602001600020600101805461142990613dfd565b80601f016020809104026020016040519081016040528092919081815260200182805461145590613dfd565b80156114a25780601f10611477576101008083540402835291602001916114a2565b820191906000526020600020905b81548152906001019060200180831161148557829003601f168201915b50505050508282815181106114ba576114b9613e2e565b5b602002602001018190525080806114d090613e5d565b9150506113fe565b508091505090565b60006040518060600160405280600b5481526020018481526020018381525060126000600b5481526020019081526020016000206000820151816000015560208201518160010155604082015181600201908161153d9190614146565b50905050600b600081548092919061155490613e5d565b9190505550600b54905092915050565b601360205280600052604060002060009150905080600001549080600101549080600201805461159390613dfd565b80601f01602080910402602001604051908101604052809291908181526020018280546115bf90613dfd565b801561160c5780601f106115e15761010080835404028352916020019161160c565b820191906000526020600020905b8154815290600101906020018083116115ef57829003601f168201915b5050505050905083565b60026020528060005260406000206000915090505481565b606061080073ffffffffffffffffffffffffffffffffffffffff1663a03ffee13060046040518363ffffffff1660e01b815260040161166e9291906142dd565b600060405180830381865afa15801561168b573d6000803e3d6000fd5b505050506040513d6000823e3d601f19601f820116820180604052508101906116b49190614493565b905090565b600f6020528060005260406000206000915090508060000154908060010180546116e290613dfd565b80601f016020809104026020016040519081016040528092919081815260200182805461170e90613dfd565b801561175b5780601f106117305761010080835404028352916020019161175b565b820191906000526020600020905b81548152906001019060200180831161173e57829003601f168201915b5050505050908060020154905083565b600a5481565b60606000600a5467ffffffffffffffff811115611791576117906133bb565b5b6040519080825280602002602001820160405280156117c457816020015b60608152602001906001900390816117af5790505b509050600080600090505b600a548110156118f7578560116000838152602001908152602001600020600001541480156118135750846011600083815260200190815260200160002060010154145b156118d65760116000828152602001908152602001600020600201805461183990613dfd565b80601f016020809104026020016040519081016040528092919081815260200182805461186590613dfd565b80156118b25780601f10611887576101008083540402835291602001916118b2565b820191906000526020600020905b81548152906001019060200180831161189557829003601f168201915b50505050508383815181106118ca576118c9613e2e565b5b60200260200101819052505b81806118e190613e5d565b92505080806118ef90613e5d565b9150506117cf565b50819250505092915050565b600080600061080073ffffffffffffffffffffffffffffffffffffffff1663241774e63060046040518363ffffffff1660e01b81526004016119469291906142dd565b600060405180830381865afa158015611963573d6000803e3d6000fd5b505050506040513d6000823e3d601f19601f8201168201806040525081019061198c91906145b8565b9150915080602001519250505090565b6060600d600083815260200190815260200160002060010180546119bf90613dfd565b80601f01602080910402602001604051908101604052809291908181526020018280546119eb90613dfd565b8015611a385780601f10611a0d57610100808354040283529160200191611a38565b820191906000526020600020905b815481529060010190602001808311611a1b57829003601f168201915b50505050509050919050565b60006040518060600160405280600c5481526020018481526020018381525060136000600c54815260200190815260200160002060008201518160000155602082015181600101556040820151816002019081611aa19190614146565b50905050600c6000815480929190611ab890613e5d565b9190505550600c54905092915050565b600047905090565b6000604051806040016040528083815260200184815250600e60006007548152602001908152602001600020600082015181600001556020820151816001019081611b1b9190614146565b5090505060076000815480929190611b3290613e5d565b9190505550600754905092915050565b60056020528060005260406000206000915090508060000160009054906101000a900460070b908060010154905082565b60065481565b600e602052806000526040600020600091509050806000015490806001018054611ba290613dfd565b80601f0160208091040260200160405190810160405280929190818152602001828054611bce90613dfd565b8015611c1b5780601f10611bf057610100808354040283529160200191611c1b565b820191906000526020600020905b815481529060010190602001808311611bfe57829003601f168201915b5050505050905082565b60606000600b5467ffffffffffffffff811115611c4557611c446133bb565b5b604051908082528060200260200182016040528015611c735781602001602082028036833780820191505090505b509050600080600090505b600b54811015611cfd5784601260008381526020019081526020016000206001015403611cea576012600082815260200190815260200160002060000154838381518110611ccf57611cce613e2e565b5b6020026020010181815250508180611ce690613e5d565b9250505b8080611cf590613e5d565b915050611c7e565b508192505050919050565b60606000600c5467ffffffffffffffff811115611d2857611d276133bb565b5b604051908082528060200260200182016040528015611d565781602001602082028036833780820191505090505b509050600080600090505b600c54811015611de05784601360008381526020019081526020016000206001015403611dcd576013600082815260200190815260200160002060000154838381518110611db257611db1613e2e565b5b6020026020010181815250508180611dc990613e5d565b9250505b8080611dd890613e5d565b915050611d61565b508192505050919050565b600060405180606001604052808581526020018481526020018381525060116000600a54815260200190815260200160002060008201518160000155602082015181600101556040820151816002019081611e469190614146565b50905050600a6000815480929190611e5d90613e5d565b9190505550600a5490509392505050565b81600d60008581526020019081526020016000206000019081611e919190614146565b5080600d60008581526020019081526020016000206001019081611eb59190614146565b50505050565b6060600f60008381526020019081526020016000206001018054611ede90613dfd565b80601f0160208091040260200160405190810160405280929190818152602001828054611f0a90613dfd565b8015611f575780601f10611f2c57610100808354040283529160200191611f57565b820191906000526020600020905b815481529060010190602001808311611f3a57829003601f168201915b50505050509050919050565b600b5481565b6060611f73612916565b60006005600084815260200190815260200160002060000160009054906101000a900460070b60070b905080421015611fe1576040517f08c379a0000000000000000000000000000000000000000000000000000000008152600401611fd890614660565b60405180910390fd5b60006005600085815260200190815260200160002060010154905060003373ffffffffffffffffffffffffffffffffffffffff168260405161202290613ed6565b60006040518083038185875af1925050503d806000811461205f576040519150601f19603f3d011682016040523d82523d6000602084013e612064565b606091505b50509050604051806060016040528060218152602001614cd0602191399350505050919050565b6060600060085467ffffffffffffffff8111156120ab576120aa6133bb565b5b6040519080825280602002602001820160405280156120de57816020015b60608152602001906001900390816120c95790505b50905060005b6008548110156121be57600f6000828152602001908152602001600020600101805461210f90613dfd565b80601f016020809104026020016040519081016040528092919081815260200182805461213b90613dfd565b80156121885780601f1061215d57610100808354040283529160200191612188565b820191906000526020600020905b81548152906001019060200180831161216b57829003601f168201915b50505050508282815181106121a05761219f613e2e565b5b602002602001018190525080806121b690613e5d565b9150506120e4565b508091505090565b60006121d0612916565b600061080173ffffffffffffffffffffffffffffffffffffffff1663b46a8d613060046040518363ffffffff1660e01b81526004016122109291906142dd565b6000604051808303816000875af115801561222f573d6000803e3d6000fd5b505050506040513d6000823e3d601f19601f820116820180604052508101906122589190614761565b9050600060026000858152602001908152602001600020549050600061080073ffffffffffffffffffffffffffffffffffffffff16633edab33c306004856040518463ffffffff1660e01b81526004016122b4939291906147aa565b6020604051808303816000875af11580156122d3573d6000803e3d6000fd5b505050506040513d601f19601f820116820180604052508101906122f791906147e8565b905060405180604001604052808260070b815260200183600560008981526020019081526020016000206001015461232f9190613d9a565b8152506005600087815260200190815260200160002060008201518160000160006101000a81548167ffffffffffffffff021916908360070b67ffffffffffffffff1602179055506020820151816001015590505060008360008151811061239a57612399613e2e565b5b602002602001015160200151905060003373ffffffffffffffffffffffffffffffffffffffff16826040516123ce90613ed6565b60006040518083038185875af1925050503d806000811461240b576040519150601f19603f3d011682016040523d82523d6000602084013e612410565b606091505b50509050600060026000898152602001908152602001600020819055508295505050505050919050565b600080600090505b6008548110156124a0578280519060200120600f60008381526020019081526020016000206001016040516124779190613f83565b60405180910390200361248d57809150506124a6565b808061249890613e5d565b915050612442565b50600090505b919050565b80600f600084815260200190815260200160002060020160008282546124d19190613d9a565b925050819055505050565b61080073ffffffffffffffffffffffffffffffffffffffff166353266bbb306004846040518463ffffffff1660e01b815260040161251c939291906147aa565b6020604051808303816000875af115801561253b573d6000803e3d6000fd5b505050506040513d601f19601f8201168201806040525081019061255f91906147e8565b5050565b600c5481565b600080600090505b6008548110156125e5578280519060200120600f60008381526020019081526020016000206001016040516125a69190613f83565b6040518091039020036125d257600f6000828152602001908152602001600020600001549150506125eb565b80806125dd90613e5d565b915050612571565b50600090505b919050565b606061080173ffffffffffffffffffffffffffffffffffffffff16639ad563b43060046040518363ffffffff1660e01b81526004016126309291906142dd565b600060405180830381865afa15801561264d573d6000803e3d6000fd5b505050506040513d6000823e3d601f19601f8201168201806040525081019061267691906149a2565b905090565b60005b6006548110156126e157600d6000828152602001908152602001600020600080820160006126ac9190613077565b6001820160006126bc9190613077565b6002820160006126cc9190613077565b505080806126d990613e5d565b91505061267e565b5060005b60075481101561273057600e600082815260200190815260200160002060008082016000905560018201600061271b9190613077565b5050808061272890613e5d565b9150506126e5565b5060005b60085481101561278757600f600082815260200190815260200160002060008082016000905560018201600061276a9190613077565b60028201600090555050808061277f90613e5d565b915050612734565b5060005b6007548110156127de576010600082815260200190815260200160002060008082016000905560018201600090556002820160006127c99190613077565b505080806127d690613e5d565b91505061278b565b5060005b600b54811015612835576012600082815260200190815260200160002060008082016000905560018201600090556002820160006128209190613077565b5050808061282d90613e5d565b9150506127e2565b5060005b600c5481101561288c576013600082815260200190815260200160002060008082016000905560018201600090556002820160006128779190613077565b5050808061288490613e5d565b915050612839565b5060005b600a548110156128e3576011600082815260200190815260200160002060008082016000905560018201600090556002820160006128ce9190613077565b505080806128db90613e5d565b915050612890565b506000600681905550600060078190555060006008819055506000600b819055506000600c819055506000600a81905550565b600061080073ffffffffffffffffffffffffffffffffffffffff1663b6039895327fffffffffffffffffffffffffffffffffffffffffffffffffffffffffffffffff60006040518463ffffffff1660e01b815260040161297893929190614b24565b6020604051808303816000875af1158015612997573d6000803e3d6000fd5b505050506040513d601f19601f820116820180604052508101906129bb9190614b9a565b9050806129fd576040517f08c379a00000000000000000000000000000000000000000000000000000000081526004016129f490614c13565b60405180910390fd5b600061080173ffffffffffffffffffffffffffffffffffffffff16637a9841ed3260016040518363ffffffff1660e01b8152600401612a3d929190614c33565b6020604051808303816000875af1158015612a5c573d6000803e3d6000fd5b505050506040513d601f19601f82011682018060405250810190612a809190614b9a565b905080612ac2576040517f08c379a0000000000000000000000000000000000000000000000000000000008152600401612ab990614caf565b60405180910390fd5b5050565b6012602052806000526040600020600091509050806000015490806001015490806002018054612af590613dfd565b80601f0160208091040260200160405190810160405280929190818152602001828054612b2190613dfd565b8015612b6e5780601f10612b4357610100808354040283529160200191612b6e565b820191906000526020600020905b815481529060010190602001808311612b5157829003601f168201915b5050505050905083565b80600f60008481526020019081526020016000206001019081612b9b9190614146565b505050565b6060600060065467ffffffffffffffff811115612bc057612bbf6133bb565b5b604051908082528060200260200182016040528015612bf357816020015b6060815260200190600190039081612bde5790505b50905060005b600654811015612cd357600d60008281526020019081526020016000206001018054612c2490613dfd565b80601f0160208091040260200160405190810160405280929190818152602001828054612c5090613dfd565b8015612c9d5780601f10612c7257610100808354040283529160200191612c9d565b820191906000526020600020905b815481529060010190602001808311612c8057829003601f168201915b5050505050828281518110612cb557612cb4613e2e565b5b60200260200101819052508080612ccb90613e5d565b915050612bf9565b508091505090565b80600e60008481526020019081526020016000206001019081612cfe9190614146565b505050565b600060405180606001604052808481526020018381526020016040518060400160405280600581526020017f46616c7365000000000000000000000000000000000000000000000000000000815250815250600d600060065481526020019081526020016000206000820151816000019081612d7f9190614146565b506020820151816001019081612d959190614146565b506040820151816002019081612dab9190614146565b5090505060066000815480929190612dc290613e5d565b9190505550600654905092915050565b60085481565b600060405180606001604052808481526020018581526020016000815250600f60006008548152602001908152602001600020600082015181600001556020820151816001019081612e2a9190614146565b506040820151816002015590505060086000815480929190612e4b90613e5d565b919050555060005b8251811015612eb057612e85600854600954858481518110612e7857612e77613e2e565b5b6020026020010151613017565b60096000815480929190612e9890613e5d565b91905055508080612ea890613e5d565b915050612e53565b5060085490509392505050565b6060600e60008381526020019081526020016000206001018054612ee090613dfd565b80601f0160208091040260200160405190810160405280929190818152602001828054612f0c90613dfd565b8015612f595780601f10612f2e57610100808354040283529160200191612f59565b820191906000526020600020905b815481529060010190602001808311612f3c57829003601f168201915b50505050509050919050565b6010602052806000526040600020600091509050806000015490806001015490806002018054612f9490613dfd565b80601f0160208091040260200160405190810160405280929190818152602001828054612fc090613dfd565b801561300d5780601f10612fe25761010080835404028352916020019161300d565b820191906000526020600020905b815481529060010190602001808311612ff057829003601f168201915b5050505050905083565b604051806060016040528084815260200183815260200182815250601060008481526020019081526020016000206000820151816000015560208201518160010155604082015181600201908161306e9190614146565b50905050505050565b50805461308390613dfd565b6000825580601f1061309557506130b4565b601f0160209004906000526020600020908101906130b391906130b7565b5b50565b5b808211156130d05760008160009055506001016130b8565b5090565b6000604051905090565b600080fd5b600080fd5b6000819050919050565b6130fb816130e8565b811461310657600080fd5b50565b600081359050613118816130f2565b92915050565b60008060408385031215613135576131346130de565b5b600061314385828601613109565b925050602061315485828601613109565b9150509250929050565b600060208284031215613174576131736130de565b5b600061318284828501613109565b91505092915050565b600081519050919050565b600082825260208201905092915050565b6000819050602082019050919050565b600081519050919050565b600082825260208201905092915050565b60005b838110156131f15780820151818401526020810190506131d6565b60008484015250505050565b6000601f19601f8301169050919050565b6000613219826131b7565b61322381856131c2565b93506132338185602086016131d3565b61323c816131fd565b840191505092915050565b6000613253838361320e565b905092915050565b6000602082019050919050565b60006132738261318b565b61327d8185613196565b93508360208202850161328f856131a7565b8060005b858110156132cb57848403895281516132ac8582613247565b94506132b78361325b565b925060208a01995050600181019050613293565b50829750879550505050505092915050565b600060208201905081810360008301526132f78184613268565b905092915050565b613308816130e8565b82525050565b600060208201905061332360008301846132ff565b92915050565b600082825260208201905092915050565b6000613345826131b7565b61334f8185613329565b935061335f8185602086016131d3565b613368816131fd565b840191505092915050565b600060608201905061338860008301866132ff565b61339560208301856132ff565b81810360408301526133a7818461333a565b9050949350505050565b600080fd5b600080fd5b7f4e487b7100000000000000000000000000000000000000000000000000000000600052604160045260246000fd5b6133f3826131fd565b810181811067ffffffffffffffff82111715613412576134116133bb565b5b80604052505050565b60006134256130d4565b905061343182826133ea565b919050565b600067ffffffffffffffff821115613451576134506133bb565b5b61345a826131fd565b9050602081019050919050565b82818337600083830152505050565b600061348961348484613436565b61341b565b9050828152602081018484840111156134a5576134a46133b6565b5b6134b0848285613467565b509392505050565b600082601f8301126134cd576134cc6133b1565b5b81356134dd848260208601613476565b91505092915050565b6000602082840312156134fc576134fb6130de565b5b600082013567ffffffffffffffff81111561351a576135196130e3565b5b613526848285016134b8565b91505092915050565b60006060820190508181036000830152613549818661333a565b9050818103602083015261355d818561333a565b90508181036040830152613571818461333a565b9050949350505050565b60008060408385031215613592576135916130de565b5b60006135a085828601613109565b925050602083013567ffffffffffffffff8111156135c1576135c06130e3565b5b6135cd858286016134b8565b9150509250929050565b600081519050919050565b600082825260208201905092915050565b6000819050602082019050919050565b60008160070b9050919050565b61361981613603565b82525050565b613628816130e8565b82525050565b6080820160008201516136446000850182613610565b5060208201516136576020850182613610565b50604082015161366a604085018261361f565b50606082015161367d606085018261361f565b50505050565b600061368f838361362e565b60808301905092915050565b6000602082019050919050565b60006136b3826135d7565b6136bd81856135e2565b93506136c8836135f3565b8060005b838110156136f95781516136e08882613683565b97506136eb8361369b565b9250506001810190506136cc565b5085935050505092915050565b6000602082019050818103600083015261372081846136a8565b905092915050565b600060608201905061373d60008301866132ff565b818103602083015261374f818561333a565b905061375e60408301846132ff565b949350505050565b60006020820190508181036000830152613780818461333a565b905092915050565b6000806040838503121561379f5761379e6130de565b5b600083013567ffffffffffffffff8111156137bd576137bc6130e3565b5b6137c9858286016134b8565b92505060206137da85828601613109565b9150509250929050565b6137ed81613603565b82525050565b600060408201905061380860008301856137e4565b61381560208301846132ff565b9392505050565b600060408201905061383160008301856132ff565b8181036020830152613843818461333a565b90509392505050565b600081519050919050565b600082825260208201905092915050565b6000819050602082019050919050565b6000613884838361361f565b60208301905092915050565b6000602082019050919050565b60006138a88261384c565b6138b28185613857565b93506138bd83613868565b8060005b838110156138ee5781516138d58882613878565b97506138e083613890565b9250506001810190506138c1565b5085935050505092915050565b60006020820190508181036000830152613915818461389d565b905092915050565b600080600060608486031215613936576139356130de565b5b600061394486828701613109565b935050602061395586828701613109565b925050604084013567ffffffffffffffff811115613976576139756130e3565b5b613982868287016134b8565b9150509250925092565b6000806000606084860312156139a5576139a46130de565b5b60006139b386828701613109565b935050602084013567ffffffffffffffff8111156139d4576139d36130e3565b5b6139e0868287016134b8565b925050604084013567ffffffffffffffff811115613a0157613a006130e3565b5b613a0d868287016134b8565b9150509250925092565b6000602082019050613a2c60008301846137e4565b92915050565b600081519050919050565b600082825260208201905092915050565b6000819050602082019050919050565b600060ff82169050919050565b613a7481613a5e565b82525050565b60006060830160008301518482036000860152613a97828261320e565b9150506020830151613aac602086018261361f565b506040830151613abf6040860182613a6b565b508091505092915050565b6000613ad68383613a7a565b905092915050565b6000602082019050919050565b6000613af682613a32565b613b008185613a3d565b935083602082028501613b1285613a4e565b8060005b85811015613b4e5784840389528151613b2f8582613aca565b9450613b3a83613ade565b925060208a01995050600181019050613b16565b50829750879550505050505092915050565b60006020820190508181036000830152613b7a8184613aeb565b905092915050565b60008060408385031215613b9957613b986130de565b5b600083013567ffffffffffffffff811115613bb757613bb66130e3565b5b613bc3858286016134b8565b925050602083013567ffffffffffffffff811115613be457613be36130e3565b5b613bf0858286016134b8565b9150509250929050565b600067ffffffffffffffff821115613c1557613c146133bb565b5b602082029050602081019050919050565b600080fd5b6000613c3e613c3984613bfa565b61341b565b90508083825260208201905060208402830185811115613c6157613c60613c26565b5b835b81811015613ca857803567ffffffffffffffff811115613c8657613c856133b1565b5b808601613c9389826134b8565b85526020850194505050602081019050613c63565b5050509392505050565b600082601f830112613cc757613cc66133b1565b5b8135613cd7848260208601613c2b565b91505092915050565b600080600060608486031215613cf957613cf86130de565b5b600084013567ffffffffffffffff811115613d1757613d166130e3565b5b613d23868287016134b8565b9350506020613d3486828701613109565b925050604084013567ffffffffffffffff811115613d5557613d546130e3565b5b613d6186828701613cb2565b9150509250925092565b7f4e487b7100000000000000000000000000000000000000000000000000000000600052601160045260246000fd5b6000613da5826130e8565b9150613db0836130e8565b9250828201905080821115613dc857613dc7613d6b565b5b92915050565b7f4e487b7100000000000000000000000000000000000000000000000000000000600052602260045260246000fd5b60006002820490506001821680613e1557607f821691505b602082108103613e2857613e27613dce565b5b50919050565b7f4e487b7100000000000000000000000000000000000000000000000000000000600052603260045260246000fd5b6000613e68826130e8565b91507fffffffffffffffffffffffffffffffffffffffffffffffffffffffffffffffff8203613e9a57613e99613d6b565b5b600182019050919050565b600081905092915050565b50565b6000613ec0600083613ea5565b9150613ecb82613eb0565b600082019050919050565b6000613ee182613eb3565b9150819050919050565b60008190508160005260206000209050919050565b60008154613f0d81613dfd565b613f178186613ea5565b94506001821660008114613f325760018114613f4757613f7a565b60ff1983168652811515820286019350613f7a565b613f5085613eeb565b60005b83811015613f7257815481890152600182019150602081019050613f53565b838801955050505b50505092915050565b6000613f8f8284613f00565b915081905092915050565b60008190508160005260206000209050919050565b60006020601f8301049050919050565b600082821b905092915050565b600060088302613ffc7fffffffffffffffffffffffffffffffffffffffffffffffffffffffffffffffff82613fbf565b6140068683613fbf565b95508019841693508086168417925050509392505050565b6000819050919050565b600061404361403e614039846130e8565b61401e565b6130e8565b9050919050565b6000819050919050565b61405d83614028565b6140716140698261404a565b848454613fcc565b825550505050565b600090565b614086614079565b614091818484614054565b505050565b5b818110156140b5576140aa60008261407e565b600181019050614097565b5050565b601f8211156140fa576140cb81613f9a565b6140d484613faf565b810160208510156140e3578190505b6140f76140ef85613faf565b830182614096565b50505b505050565b600082821c905092915050565b600061411d600019846008026140ff565b1980831691505092915050565b6000614136838361410c565b9150826002028217905092915050565b61414f826131b7565b67ffffffffffffffff811115614168576141676133bb565b5b6141728254613dfd565b61417d8282856140b9565b600060209050601f8311600181146141b0576000841561419e578287015190505b6141a8858261412a565b865550614210565b601f1984166141be86613f9a565b60005b828110156141e6578489015182556001820191506020850194506020810190506141c1565b8683101561420357848901516141ff601f89168261410c565b8355505b6001600288020188555050505b505050505050565b600073ffffffffffffffffffffffffffffffffffffffff82169050919050565b600061424382614218565b9050919050565b61425381614238565b82525050565b6000815461426681613dfd565b6142708186613329565b9450600182166000811461428b57600181146142a1576142d4565b60ff1983168652811515602002860193506142d4565b6142aa85613f9a565b60005b838110156142cc578154818901526001820191506020810190506142ad565b808801955050505b50505092915050565b60006040820190506142f2600083018561424a565b81810360208301526143048184614259565b90509392505050565b600067ffffffffffffffff821115614328576143276133bb565b5b602082029050602081019050919050565b600080fd5b600080fd5b61434c81613603565b811461435757600080fd5b50565b60008151905061436981614343565b92915050565b60008151905061437e816130f2565b92915050565b60006080828403121561439a57614399614339565b5b6143a4608061341b565b905060006143b48482850161435a565b60008301525060206143c88482850161435a565b60208301525060406143dc8482850161436f565b60408301525060606143f08482850161436f565b60608301525092915050565b600061440f61440a8461430d565b61341b565b9050808382526020820190506080840283018581111561443257614431613c26565b5b835b8181101561445b57806144478882614384565b845260208401935050608081019050614434565b5050509392505050565b600082601f83011261447a576144796133b1565b5b815161448a8482602086016143fc565b91505092915050565b6000602082840312156144a9576144a86130de565b5b600082015167ffffffffffffffff8111156144c7576144c66130e3565b5b6144d384828501614465565b91505092915050565b60006144ef6144ea84613436565b61341b565b90508281526020810184848401111561450b5761450a6133b6565b5b6145168482856131d3565b509392505050565b600082601f830112614533576145326133b1565b5b81516145438482602086016144dc565b91505092915050565b60006040828403121561456257614561614339565b5b61456c604061341b565b9050600082015167ffffffffffffffff81111561458c5761458b61433e565b5b6145988482850161451e565b60008301525060206145ac8482850161436f565b60208301525092915050565b600080604083850312156145cf576145ce6130de565b5b60006145dd8582860161436f565b925050602083015167ffffffffffffffff8111156145fe576145fd6130e3565b5b61460a8582860161454c565b9150509250929050565b7f5468652074696d6520686173206e6f7420706173736564207965740000000000600082015250565b600061464a601b83613329565b915061465582614614565b602082019050919050565b600060208201905081810360008301526146798161463d565b9050919050565b600067ffffffffffffffff82111561469b5761469a6133bb565b5b602082029050602081019050919050565b60006146bf6146ba84614680565b61341b565b905080838252602082019050602084028301858111156146e2576146e1613c26565b5b835b8181101561472957805167ffffffffffffffff811115614707576147066133b1565b5b808601614714898261454c565b855260208501945050506020810190506146e4565b5050509392505050565b600082601f830112614748576147476133b1565b5b81516147588482602086016146ac565b91505092915050565b600060208284031215614777576147766130de565b5b600082015167ffffffffffffffff811115614795576147946130e3565b5b6147a184828501614733565b91505092915050565b60006060820190506147bf600083018661424a565b81810360208301526147d18185614259565b90506147e060408301846132ff565b949350505050565b6000602082840312156147fe576147fd6130de565b5b600061480c8482850161435a565b91505092915050565b600067ffffffffffffffff8211156148305761482f6133bb565b5b602082029050602081019050919050565b61484a81613a5e565b811461485557600080fd5b50565b60008151905061486781614841565b92915050565b60006060828403121561488357614882614339565b5b61488d606061341b565b9050600082015167ffffffffffffffff8111156148ad576148ac61433e565b5b6148b98482850161451e565b60008301525060206148cd8482850161436f565b60208301525060406148e184828501614858565b60408301525092915050565b60006149006148fb84614815565b61341b565b9050808382526020820190506020840283018581111561492357614922613c26565b5b835b8181101561496a57805167ffffffffffffffff811115614948576149476133b1565b5b808601614955898261486d565b85526020850194505050602081019050614925565b5050509392505050565b600082601f830112614989576149886133b1565b5b81516149998482602086016148ed565b91505092915050565b6000602082840312156149b8576149b76130de565b5b600082015167ffffffffffffffff8111156149d6576149d56130e3565b5b6149e284828501614974565b91505092915050565b600081549050919050565b60008190508160005260206000209050919050565b60008154614a1881613dfd565b614a2281866131c2565b94506001821660008114614a3d5760018114614a5357614a86565b60ff198316865281151560200286019350614a86565b614a5c85613f9a565b60005b83811015614a7e57815481890152600182019150602081019050614a5f565b808801955050505b50505092915050565b6000614a9b8383614a0b565b905092915050565b6000600182019050919050565b6000614abb826149eb565b614ac58185613196565b935083602082028501614ad7856149f6565b8060005b85811015614b1257848403895281614af38582614a8f565b9450614afe83614aa3565b925060208a01995050600181019050614adb565b50829750879550505050505092915050565b6000606082019050614b39600083018661424a565b614b4660208301856132ff565b8181036040830152614b588184614ab0565b9050949350505050565b60008115159050919050565b614b7781614b62565b8114614b8257600080fd5b50565b600081519050614b9481614b6e565b92915050565b600060208284031215614bb057614baf6130de565b5b6000614bbe84828501614b85565b91505092915050565b7f5374616b696e6720417070726f7665206661696c656400000000000000000000600082015250565b6000614bfd601683613329565b9150614c0882614bc7565b602082019050919050565b60006020820190508181036000830152614c2c81614bf0565b9050919050565b6000604082019050614c48600083018561424a565b8181036020830152614c5a8184614ab0565b90509392505050565b7f446973747269627574696f6e20417070726f7665206661696c65640000000000600082015250565b6000614c99601b83613329565b9150614ca482614c63565b602082019050919050565b60006020820190508181036000830152614cc881614c8c565b905091905056fe4d6f6e657920686173206265656e2073656e7420746f2049646561204f776e6572a2646970667358221220a137b93ac7c5ccda2324736d8102a753b01fae756cb6a63be410d334e2cc282d64736f6c634300081100332f636f736d6f732e7374616b696e672e763162657461312e4d7367426567696e526564656c656761746565766d6f7376616c6f7065723135387777617334763666676375327833706c67373073367530666d306c6c653233376b6c74722f636f736d6f732e7374616b696e672e763162657461312e4d7367556e64656c65676174652f636f736d6f732e646973747269627574696f6e2e763162657461312e4d7367576974686472617744656c656761746f725265776172642f636f736d6f732e7374616b696e672e763162657461312e4d736744656c6567617465","opcodes":"PUSH1 0x80 PUSH1 0x40 MSTORE PUSH1 0x40 MLOAD DUP1 PUSH1 0x60 ADD PUSH1 0x40 MSTORE DUP1 PUSH1 0x40 MLOAD DUP1 PUSH1 0x60 ADD PUSH1 0x40 MSTORE DUP1 PUSH1 0x23 DUP2 MSTORE PUSH1 0x20 ADD PUSH3 0x5394 PUSH1 0x23 SWAP2 CODECOPY DUP2 MSTORE PUSH1 0x20 ADD PUSH1 0x40 MLOAD DUP1 PUSH1 0x60 ADD PUSH1 0x40 MSTORE DUP1 PUSH1 0x25 DUP2 MSTORE PUSH1 0x20 ADD PUSH3 0x5338 PUSH1 0x25 SWAP2 CODECOPY DUP2 MSTORE PUSH1 0x20 ADD PUSH1 0x40 MLOAD DUP1 PUSH1 0x60 ADD PUSH1 0x40 MSTORE DUP1 PUSH1 0x2A DUP2 MSTORE PUSH1 0x20 ADD PUSH3 0x52DB PUSH1 0x2A SWAP2 CODECOPY DUP2 MSTORE POP PUSH1 0x0 SWAP1 PUSH1 0x3 PUSH3 0x7C SWAP3 SWAP2 SWAP1 PUSH3 0xF7 JUMP JUMPDEST POP PUSH1 0x40 MLOAD DUP1 PUSH1 0x20 ADD PUSH1 0x40 MSTORE DUP1 PUSH1 0x40 MLOAD DUP1 PUSH1 0x60 ADD PUSH1 0x40 MSTORE DUP1 PUSH1 0x37 DUP2 MSTORE PUSH1 0x20 ADD PUSH3 0x535D PUSH1 0x37 SWAP2 CODECOPY DUP2 MSTORE POP PUSH1 0x1 SWAP1 PUSH1 0x1 PUSH3 0xB7 SWAP3 SWAP2 SWAP1 PUSH3 0x157 JUMP JUMPDEST POP PUSH1 0x40 MLOAD DUP1 PUSH1 0x60 ADD PUSH1 0x40 MSTORE DUP1 PUSH1 0x33 DUP2 MSTORE PUSH1 0x20 ADD PUSH3 0x5305 PUSH1 0x33 SWAP2 CODECOPY PUSH1 0x4 SWAP1 DUP2 PUSH3 0xE2 SWAP2 SWAP1 PUSH3 0x4BE JUMP JUMPDEST POP CALLVALUE DUP1 ISZERO PUSH3 0xF0 JUMPI PUSH1 0x0 DUP1 REVERT JUMPDEST POP PUSH3 0x5A5 JUMP JUMPDEST DUP3 DUP1 SLOAD DUP3 DUP3 SSTORE SWAP1 PUSH1 0x0 MSTORE PUSH1 0x20 PUSH1 0x0 KECCAK256 SWAP1 DUP2 ADD SWAP3 DUP3 ISZERO PUSH3 0x144 JUMPI SWAP2 PUSH1 0x20 MUL DUP3 ADD JUMPDEST DUP3 DUP2 GT ISZERO PUSH3 0x143 JUMPI DUP3 MLOAD DUP3 SWAP1 DUP2 PUSH3 0x132 SWAP2 SWAP1 PUSH3 0x4BE JUMP JUMPDEST POP SWAP2 PUSH1 0x20 ADD SWAP2 SWAP1 PUSH1 0x1 ADD SWAP1 PUSH3 0x118 JUMP JUMPDEST JUMPDEST POP SWAP1 POP PUSH3 0x153 SWAP2 SWAP1 PUSH3 0x1B7 JUMP JUMPDEST POP SWAP1 JUMP JUMPDEST DUP3 DUP1 SLOAD DUP3 DUP3 SSTORE SWAP1 PUSH1 0x0 MSTORE PUSH1 0x20 PUSH1 0x0 KECCAK256 SWAP1 DUP2 ADD SWAP3 DUP3 ISZERO PUSH3 0x1A4 JUMPI SWAP2 PUSH1 0x20 MUL DUP3 ADD JUMPDEST DUP3 DUP2 GT ISZERO PUSH3 0x1A3 JUMPI DUP3 MLOAD DUP3 SWAP1 DUP2 PUSH3 0x192 SWAP2 SWAP1 PUSH3 0x4BE JUMP JUMPDEST POP SWAP2 PUSH1 0x20 ADD SWAP2 SWAP1 PUSH1 0x1 ADD SWAP1 PUSH3 0x178 JUMP JUMPDEST JUMPDEST POP SWAP1 POP PUSH3 0x1B3 SWAP2 SWAP1 PUSH3 0x1B7 JUMP JUMPDEST POP SWAP1 JUMP JUMPDEST JUMPDEST DUP1 DUP3 GT ISZERO PUSH3 0x1DB JUMPI PUSH1 0x0 DUP2 DUP2 PUSH3 0x1D1 SWAP2 SWAP1 PUSH3 0x1DF JUMP JUMPDEST POP PUSH1 0x1 ADD PUSH3 0x1B8 JUMP JUMPDEST POP SWAP1 JUMP JUMPDEST POP DUP1 SLOAD PUSH3 0x1ED SWAP1 PUSH3 0x2AD JUMP JUMPDEST PUSH1 0x0 DUP3 SSTORE DUP1 PUSH1 0x1F LT PUSH3 0x201 JUMPI POP PUSH3 0x222 JUMP JUMPDEST PUSH1 0x1F ADD PUSH1 0x20 SWAP1 DIV SWAP1 PUSH1 0x0 MSTORE PUSH1 0x20 PUSH1 0x0 KECCAK256 SWAP1 DUP2 ADD SWAP1 PUSH3 0x221 SWAP2 SWAP1 PUSH3 0x225 JUMP JUMPDEST JUMPDEST POP JUMP JUMPDEST JUMPDEST DUP1 DUP3 GT ISZERO PUSH3 0x240 JUMPI PUSH1 0x0 DUP2 PUSH1 0x0 SWAP1 SSTORE POP PUSH1 0x1 ADD PUSH3 0x226 JUMP JUMPDEST POP SWAP1 JUMP JUMPDEST PUSH1 0x0 DUP2 MLOAD SWAP1 POP SWAP2 SWAP1 POP JUMP JUMPDEST PUSH32 0x4E487B7100000000000000000000000000000000000000000000000000000000 PUSH1 0x0 MSTORE PUSH1 0x41 PUSH1 0x4 MSTORE PUSH1 0x24 PUSH1 0x0 REVERT JUMPDEST PUSH32 0x4E487B7100000000000000000000000000000000000000000000000000000000 PUSH1 0x0 MSTORE PUSH1 0x22 PUSH1 0x4 MSTORE PUSH1 0x24 PUSH1 0x0 REVERT JUMPDEST PUSH1 0x0 PUSH1 0x2 DUP3 DIV SWAP1 POP PUSH1 0x1 DUP3 AND DUP1 PUSH3 0x2C6 JUMPI PUSH1 0x7F DUP3 AND SWAP2 POP JUMPDEST PUSH1 0x20 DUP3 LT DUP2 SUB PUSH3 0x2DC JUMPI PUSH3 0x2DB PUSH3 0x27E JUMP JUMPDEST JUMPDEST POP SWAP2 SWAP1 POP JUMP JUMPDEST PUSH1 0x0 DUP2 SWAP1 POP DUP2 PUSH1 0x0 MSTORE PUSH1 0x20 PUSH1 0x0 KECCAK256 SWAP1 POP SWAP2 SWAP1 POP JUMP JUMPDEST PUSH1 0x0 PUSH1 0x20 PUSH1 0x1F DUP4 ADD DIV SWAP1 POP SWAP2 SWAP1 POP JUMP JUMPDEST PUSH1 0x0 DUP3 DUP3 SHL SWAP1 POP SWAP3 SWAP2 POP POP JUMP JUMPDEST PUSH1 0x0 PUSH1 0x8 DUP4 MUL PUSH3 0x346 PUSH32 0xFFFFFFFFFFFFFFFFFFFFFFFFFFFFFFFFFFFFFFFFFFFFFFFFFFFFFFFFFFFFFFFF DUP3 PUSH3 0x307 JUMP JUMPDEST PUSH3 0x352 DUP7 DUP4 PUSH3 0x307 JUMP JUMPDEST SWAP6 POP DUP1 NOT DUP5 AND SWAP4 POP DUP1 DUP7 AND DUP5 OR SWAP3 POP POP POP SWAP4 SWAP3 POP POP POP JUMP JUMPDEST PUSH1 0x0 DUP2 SWAP1 POP SWAP2 SWAP1 POP JUMP JUMPDEST PUSH1 0x0 DUP2 SWAP1 POP SWAP2 SWAP1 POP JUMP JUMPDEST PUSH1 0x0 PUSH3 0x39F PUSH3 0x399 PUSH3 0x393 DUP5 PUSH3 0x36A JUMP JUMPDEST PUSH3 0x374 JUMP JUMPDEST PUSH3 0x36A JUMP JUMPDEST SWAP1 POP SWAP2 SWAP1 POP JUMP JUMPDEST PUSH1 0x0 DUP2 SWAP1 POP SWAP2 SWAP1 POP JUMP JUMPDEST PUSH3 0x3BB DUP4 PUSH3 0x37E JUMP JUMPDEST PUSH3 0x3D3 PUSH3 0x3CA DUP3 PUSH3 0x3A6 JUMP JUMPDEST DUP5 DUP5 SLOAD PUSH3 0x314 JUMP JUMPDEST DUP3 SSTORE POP POP POP POP JUMP JUMPDEST PUSH1 0x0 SWAP1 JUMP JUMPDEST PUSH3 0x3EA PUSH3 0x3DB JUMP JUMPDEST PUSH3 0x3F7 DUP2 DUP5 DUP5 PUSH3 0x3B0 JUMP JUMPDEST POP POP POP JUMP JUMPDEST JUMPDEST DUP2 DUP2 LT ISZERO PUSH3 0x41F JUMPI PUSH3 0x413 PUSH1 0x0 DUP3 PUSH3 0x3E0 JUMP JUMPDEST PUSH1 0x1 DUP2 ADD SWAP1 POP PUSH3 0x3FD JUMP JUMPDEST POP POP JUMP JUMPDEST PUSH1 0x1F DUP3 GT ISZERO PUSH3 0x46E JUMPI PUSH3 0x438 DUP2 PUSH3 0x2E2 JUMP JUMPDEST PUSH3 0x443 DUP5 PUSH3 0x2F7 JUMP JUMPDEST DUP2 ADD PUSH1 0x20 DUP6 LT ISZERO PUSH3 0x453 JUMPI DUP2 SWAP1 POP JUMPDEST PUSH3 0x46B PUSH3 0x462 DUP6 PUSH3 0x2F7 JUMP JUMPDEST DUP4 ADD DUP3 PUSH3 0x3FC JUMP JUMPDEST POP POP JUMPDEST POP POP POP JUMP JUMPDEST PUSH1 0x0 DUP3 DUP3 SHR SWAP1 POP SWAP3 SWAP2 POP POP JUMP JUMPDEST PUSH1 0x0 PUSH3 0x493 PUSH1 0x0 NOT DUP5 PUSH1 0x8 MUL PUSH3 0x473 JUMP JUMPDEST NOT DUP1 DUP4 AND SWAP2 POP POP SWAP3 SWAP2 POP POP JUMP JUMPDEST PUSH1 0x0 PUSH3 0x4AE DUP4 DUP4 PUSH3 0x480 JUMP JUMPDEST SWAP2 POP DUP3 PUSH1 0x2 MUL DUP3 OR SWAP1 POP SWAP3 SWAP2 POP POP JUMP JUMPDEST PUSH3 0x4C9 DUP3 PUSH3 0x244 JUMP JUMPDEST PUSH8 0xFFFFFFFFFFFFFFFF DUP2 GT ISZERO PUSH3 0x4E5 JUMPI PUSH3 0x4E4 PUSH3 0x24F JUMP JUMPDEST JUMPDEST PUSH3 0x4F1 DUP3 SLOAD PUSH3 0x2AD JUMP JUMPDEST PUSH3 0x4FE DUP3 DUP3 DUP6 PUSH3 0x423 JUMP JUMPDEST PUSH1 0x0 PUSH1 0x20 SWAP1 POP PUSH1 0x1F DUP4 GT PUSH1 0x1 DUP2 EQ PUSH3 0x536 JUMPI PUSH1 0x0 DUP5 ISZERO PUSH3 0x521 JUMPI DUP3 DUP8 ADD MLOAD SWAP1 POP JUMPDEST PUSH3 0x52D DUP6 DUP3 PUSH3 0x4A0 JUMP JUMPDEST DUP7 SSTORE POP PUSH3 0x59D JUMP JUMPDEST PUSH1 0x1F NOT DUP5 AND PUSH3 0x546 DUP7 PUSH3 0x2E2 JUMP JUMPDEST PUSH1 0x0 JUMPDEST DUP3 DUP2 LT ISZERO PUSH3 0x570 JUMPI DUP5 DUP10 ADD MLOAD DUP3 SSTORE PUSH1 0x1 DUP3 ADD SWAP2 POP PUSH1 0x20 DUP6 ADD SWAP5 POP PUSH1 0x20 DUP2 ADD SWAP1 POP PUSH3 0x549 JUMP JUMPDEST DUP7 DUP4 LT ISZERO PUSH3 0x590 JUMPI DUP5 DUP10 ADD MLOAD PUSH3 0x58C PUSH1 0x1F DUP10 AND DUP3 PUSH3 0x480 JUMP JUMPDEST DUP4 SSTORE POP JUMPDEST PUSH1 0x1 PUSH1 0x2 DUP9 MUL ADD DUP9 SSTORE POP POP POP JUMPDEST POP POP POP POP POP POP JUMP JUMPDEST PUSH2 0x4D26 DUP1 PUSH3 0x5B5 PUSH1 0x0 CODECOPY PUSH1 0x0 RETURN INVALID PUSH1 0x80 PUSH1 0x40 MSTORE PUSH1 0x4 CALLDATASIZE LT PUSH2 0x2E4 JUMPI PUSH1 0x0 CALLDATALOAD PUSH1 0xE0 SHR DUP1 PUSH4 0x803F5B9F GT PUSH2 0x190 JUMPI DUP1 PUSH4 0xAA4CDF2A GT PUSH2 0xDC JUMPI DUP1 PUSH4 0xC04FE978 GT PUSH2 0x95 JUMPI DUP1 PUSH4 0xD3791B20 GT PUSH2 0x6F JUMPI DUP1 PUSH4 0xD3791B20 EQ PUSH2 0xC47 JUMPI DUP1 PUSH4 0xE3280C96 EQ PUSH2 0xC72 JUMPI DUP1 PUSH4 0xE32ACC1A EQ PUSH2 0xCAF JUMPI DUP1 PUSH4 0xFF4A37EF EQ PUSH2 0xCEC JUMPI PUSH2 0x2E4 JUMP JUMPDEST DUP1 PUSH4 0xC04FE978 EQ PUSH2 0xBB6 JUMPI DUP1 PUSH4 0xC29595C5 EQ PUSH2 0xBE1 JUMPI DUP1 PUSH4 0xC4C2E364 EQ PUSH2 0xC0A JUMPI PUSH2 0x2E4 JUMP JUMPDEST DUP1 PUSH4 0xAA4CDF2A EQ PUSH2 0xAB8 JUMPI DUP1 PUSH4 0xAE429E47 EQ PUSH2 0xAF5 JUMPI DUP1 PUSH4 0xB16060A6 EQ PUSH2 0xB20 JUMPI DUP1 PUSH4 0xB2947C71 EQ PUSH2 0xB37 JUMPI DUP1 PUSH4 0xB527D45E EQ PUSH2 0xB4E JUMPI DUP1 PUSH4 0xC04E7430 EQ PUSH2 0xB8D JUMPI PUSH2 0x2E4 JUMP JUMPDEST DUP1 PUSH4 0x90D756A7 GT PUSH2 0x149 JUMPI DUP1 PUSH4 0xA1CA9178 GT PUSH2 0x123 JUMPI DUP1 PUSH4 0xA1CA9178 EQ PUSH2 0x9FE JUMPI DUP1 PUSH4 0xA2CDB3A9 EQ PUSH2 0xA3B JUMPI DUP1 PUSH4 0xA694FC3A EQ PUSH2 0xA64 JUMPI DUP1 PUSH4 0xAA2BF5D3 EQ PUSH2 0xA8D JUMPI PUSH2 0x2E4 JUMP JUMPDEST DUP1 PUSH4 0x90D756A7 EQ PUSH2 0x959 JUMPI DUP1 PUSH4 0x97EE7606 EQ PUSH2 0x996 JUMPI DUP1 PUSH4 0x9C6353E8 EQ PUSH2 0x9C1 JUMPI PUSH2 0x2E4 JUMP JUMPDEST DUP1 PUSH4 0x803F5B9F EQ PUSH2 0x811 JUMPI DUP1 PUSH4 0x812FAE1F EQ PUSH2 0x84E JUMPI DUP1 PUSH4 0x82FCC732 EQ PUSH2 0x88B JUMPI DUP1 PUSH4 0x881DE858 EQ PUSH2 0x8C8 JUMPI DUP1 PUSH4 0x8D3D2595 EQ PUSH2 0x8F1 JUMPI DUP1 PUSH4 0x9077007D EQ PUSH2 0x92E JUMPI PUSH2 0x2E4 JUMP JUMPDEST DUP1 PUSH4 0x414D9A2B GT PUSH2 0x24F JUMPI DUP1 PUSH4 0x5D907DA1 GT PUSH2 0x208 JUMPI DUP1 PUSH4 0x71085CAB GT PUSH2 0x1E2 JUMPI DUP1 PUSH4 0x71085CAB EQ PUSH2 0x72D JUMPI DUP1 PUSH4 0x7495F854 EQ PUSH2 0x76A JUMPI DUP1 PUSH4 0x7BBD582D EQ PUSH2 0x7A8 JUMPI DUP1 PUSH4 0x7F2035D4 EQ PUSH2 0x7D3 JUMPI PUSH2 0x2E4 JUMP JUMPDEST DUP1 PUSH4 0x5D907DA1 EQ PUSH2 0x688 JUMPI DUP1 PUSH4 0x6AF3304E EQ PUSH2 0x6C5 JUMPI DUP1 PUSH4 0x6F9FB98A EQ PUSH2 0x702 JUMPI PUSH2 0x2E4 JUMP JUMPDEST DUP1 PUSH4 0x414D9A2B EQ PUSH2 0x54E JUMPI DUP1 PUSH4 0x42C7652A EQ PUSH2 0x58B JUMPI DUP1 PUSH4 0x468D0C80 EQ PUSH2 0x5B6 JUMPI DUP1 PUSH4 0x4A797BD7 EQ PUSH2 0x5F5 JUMPI DUP1 PUSH4 0x4BE7ADB5 EQ PUSH2 0x620 JUMPI DUP1 PUSH4 0x53F68802 EQ PUSH2 0x65D JUMPI PUSH2 0x2E4 JUMP JUMPDEST DUP1 PUSH4 0x1BA44C4C GT PUSH2 0x2A1 JUMPI DUP1 PUSH4 0x1BA44C4C EQ PUSH2 0x3EC JUMPI DUP1 PUSH4 0x1E9AC9F5 EQ PUSH2 0x42B JUMPI DUP1 PUSH4 0x27A568B9 EQ PUSH2 0x468 JUMPI DUP1 PUSH4 0x29B56F60 EQ PUSH2 0x4A7 JUMPI DUP1 PUSH4 0x2D5BF5B0 EQ PUSH2 0x4D2 JUMPI DUP1 PUSH4 0x3F87A2F4 EQ PUSH2 0x50F JUMPI PUSH2 0x2E4 JUMP JUMPDEST DUP1 PUSH4 0xCDD53F6 EQ PUSH2 0x2E9 JUMPI DUP1 PUSH4 0x109AC970 EQ PUSH2 0x305 JUMPI DUP1 PUSH4 0x131D44F2 EQ PUSH2 0x342 JUMPI DUP1 PUSH4 0x13BF4CEA EQ PUSH2 0x37F JUMPI DUP1 PUSH4 0x1B52B9DE EQ PUSH2 0x3AA JUMPI DUP1 PUSH4 0x1B592AEB EQ PUSH2 0x3C1 JUMPI JUMPDEST PUSH1 0x0 DUP1 REVERT JUMPDEST PUSH2 0x303 PUSH1 0x4 DUP1 CALLDATASIZE SUB DUP2 ADD SWAP1 PUSH2 0x2FE SWAP2 SWAP1 PUSH2 0x311E JUMP JUMPDEST PUSH2 0xD2B JUMP JUMPDEST STOP JUMPDEST CALLVALUE DUP1 ISZERO PUSH2 0x311 JUMPI PUSH1 0x0 DUP1 REVERT JUMPDEST POP PUSH2 0x32C PUSH1 0x4 DUP1 CALLDATASIZE SUB DUP2 ADD SWAP1 PUSH2 0x327 SWAP2 SWAP1 PUSH2 0x315E JUMP JUMPDEST PUSH2 0xD61 JUMP JUMPDEST PUSH1 0x40 MLOAD PUSH2 0x339 SWAP2 SWAP1 PUSH2 0x32DD JUMP JUMPDEST PUSH1 0x40 MLOAD DUP1 SWAP2 SUB SWAP1 RETURN JUMPDEST CALLVALUE DUP1 ISZERO PUSH2 0x34E JUMPI PUSH1 0x0 DUP1 REVERT JUMPDEST POP PUSH2 0x369 PUSH1 0x4 DUP1 CALLDATASIZE SUB DUP2 ADD SWAP1 PUSH2 0x364 SWAP2 SWAP1 PUSH2 0x315E JUMP JUMPDEST PUSH2 0xED0 JUMP JUMPDEST PUSH1 0x40 MLOAD PUSH2 0x376 SWAP2 SWAP1 PUSH2 0x32DD JUMP JUMPDEST PUSH1 0x40 MLOAD DUP1 SWAP2 SUB SWAP1 RETURN JUMPDEST CALLVALUE DUP1 ISZERO PUSH2 0x38B JUMPI PUSH1 0x0 DUP1 REVERT JUMPDEST POP PUSH2 0x394 PUSH2 0x103F JUMP JUMPDEST PUSH1 0x40 MLOAD PUSH2 0x3A1 SWAP2 SWAP1 PUSH2 0x330E JUMP JUMPDEST PUSH1 0x40 MLOAD DUP1 SWAP2 SUB SWAP1 RETURN JUMPDEST CALLVALUE DUP1 ISZERO PUSH2 0x3B6 JUMPI PUSH1 0x0 DUP1 REVERT JUMPDEST POP PUSH2 0x3BF PUSH2 0x1045 JUMP JUMPDEST STOP JUMPDEST CALLVALUE DUP1 ISZERO PUSH2 0x3CD JUMPI PUSH1 0x0 DUP1 REVERT JUMPDEST POP PUSH2 0x3D6 PUSH2 0x10BA JUMP JUMPDEST PUSH1 0x40 MLOAD PUSH2 0x3E3 SWAP2 SWAP1 PUSH2 0x330E JUMP JUMPDEST PUSH1 0x40 MLOAD DUP1 SWAP2 SUB SWAP1 RETURN JUMPDEST CALLVALUE DUP1 ISZERO PUSH2 0x3F8 JUMPI PUSH1 0x0 DUP1 REVERT JUMPDEST POP PUSH2 0x413 PUSH1 0x4 DUP1 CALLDATASIZE SUB DUP2 ADD SWAP1 PUSH2 0x40E SWAP2 SWAP1 PUSH2 0x315E JUMP JUMPDEST PUSH2 0x10C0 JUMP JUMPDEST PUSH1 0x40 MLOAD PUSH2 0x422 SWAP4 SWAP3 SWAP2 SWAP1 PUSH2 0x3373 JUMP JUMPDEST PUSH1 0x40 MLOAD DUP1 SWAP2 SUB SWAP1 RETURN JUMPDEST CALLVALUE DUP1 ISZERO PUSH2 0x437 JUMPI PUSH1 0x0 DUP1 REVERT JUMPDEST POP PUSH2 0x452 PUSH1 0x4 DUP1 CALLDATASIZE SUB DUP2 ADD SWAP1 PUSH2 0x44D SWAP2 SWAP1 PUSH2 0x34E6 JUMP JUMPDEST PUSH2 0x1172 JUMP JUMPDEST PUSH1 0x40 MLOAD PUSH2 0x45F SWAP2 SWAP1 PUSH2 0x330E JUMP JUMPDEST PUSH1 0x40 MLOAD DUP1 SWAP2 SUB SWAP1 RETURN JUMPDEST CALLVALUE DUP1 ISZERO PUSH2 0x474 JUMPI PUSH1 0x0 DUP1 REVERT JUMPDEST POP PUSH2 0x48F PUSH1 0x4 DUP1 CALLDATASIZE SUB DUP2 ADD SWAP1 PUSH2 0x48A SWAP2 SWAP1 PUSH2 0x315E JUMP JUMPDEST PUSH2 0x11E3 JUMP JUMPDEST PUSH1 0x40 MLOAD PUSH2 0x49E SWAP4 SWAP3 SWAP2 SWAP1 PUSH2 0x352F JUMP JUMPDEST PUSH1 0x40 MLOAD DUP1 SWAP2 SUB SWAP1 RETURN JUMPDEST CALLVALUE DUP1 ISZERO PUSH2 0x4B3 JUMPI PUSH1 0x0 DUP1 REVERT JUMPDEST POP PUSH2 0x4BC PUSH2 0x13A5 JUMP JUMPDEST PUSH1 0x40 MLOAD PUSH2 0x4C9 SWAP2 SWAP1 PUSH2 0x32DD JUMP JUMPDEST PUSH1 0x40 MLOAD DUP1 SWAP2 SUB SWAP1 RETURN JUMPDEST CALLVALUE DUP1 ISZERO PUSH2 0x4DE JUMPI PUSH1 0x0 DUP1 REVERT JUMPDEST POP PUSH2 0x4F9 PUSH1 0x4 DUP1 CALLDATASIZE SUB DUP2 ADD SWAP1 PUSH2 0x4F4 SWAP2 SWAP1 PUSH2 0x357B JUMP JUMPDEST PUSH2 0x14E0 JUMP JUMPDEST PUSH1 0x40 MLOAD PUSH2 0x506 SWAP2 SWAP1 PUSH2 0x330E JUMP JUMPDEST PUSH1 0x40 MLOAD DUP1 SWAP2 SUB SWAP1 RETURN JUMPDEST CALLVALUE DUP1 ISZERO PUSH2 0x51B JUMPI PUSH1 0x0 DUP1 REVERT JUMPDEST POP PUSH2 0x536 PUSH1 0x4 DUP1 CALLDATASIZE SUB DUP2 ADD SWAP1 PUSH2 0x531 SWAP2 SWAP1 PUSH2 0x315E JUMP JUMPDEST PUSH2 0x1564 JUMP JUMPDEST PUSH1 0x40 MLOAD PUSH2 0x545 SWAP4 SWAP3 SWAP2 SWAP1 PUSH2 0x3373 JUMP JUMPDEST PUSH1 0x40 MLOAD DUP1 SWAP2 SUB SWAP1 RETURN JUMPDEST CALLVALUE DUP1 ISZERO PUSH2 0x55A JUMPI PUSH1 0x0 DUP1 REVERT JUMPDEST POP PUSH2 0x575 PUSH1 0x4 DUP1 CALLDATASIZE SUB DUP2 ADD SWAP1 PUSH2 0x570 SWAP2 SWAP1 PUSH2 0x315E JUMP JUMPDEST PUSH2 0x1616 JUMP JUMPDEST PUSH1 0x40 MLOAD PUSH2 0x582 SWAP2 SWAP1 PUSH2 0x330E JUMP JUMPDEST PUSH1 0x40 MLOAD DUP1 SWAP2 SUB SWAP1 RETURN JUMPDEST CALLVALUE DUP1 ISZERO PUSH2 0x597 JUMPI PUSH1 0x0 DUP1 REVERT JUMPDEST POP PUSH2 0x5A0 PUSH2 0x162E JUMP JUMPDEST PUSH1 0x40 MLOAD PUSH2 0x5AD SWAP2 SWAP1 PUSH2 0x3706 JUMP JUMPDEST PUSH1 0x40 MLOAD DUP1 SWAP2 SUB SWAP1 RETURN JUMPDEST CALLVALUE DUP1 ISZERO PUSH2 0x5C2 JUMPI PUSH1 0x0 DUP1 REVERT JUMPDEST POP PUSH2 0x5DD PUSH1 0x4 DUP1 CALLDATASIZE SUB DUP2 ADD SWAP1 PUSH2 0x5D8 SWAP2 SWAP1 PUSH2 0x315E JUMP JUMPDEST PUSH2 0x16B9 JUMP JUMPDEST PUSH1 0x40 MLOAD PUSH2 0x5EC SWAP4 SWAP3 SWAP2 SWAP1 PUSH2 0x3728 JUMP JUMPDEST PUSH1 0x40 MLOAD DUP1 SWAP2 SUB SWAP1 RETURN JUMPDEST CALLVALUE DUP1 ISZERO PUSH2 0x601 JUMPI PUSH1 0x0 DUP1 REVERT JUMPDEST POP PUSH2 0x60A PUSH2 0x176B JUMP JUMPDEST PUSH1 0x40 MLOAD PUSH2 0x617 SWAP2 SWAP1 PUSH2 0x330E JUMP JUMPDEST PUSH1 0x40 MLOAD DUP1 SWAP2 SUB SWAP1 RETURN JUMPDEST CALLVALUE DUP1 ISZERO PUSH2 0x62C JUMPI PUSH1 0x0 DUP1 REVERT JUMPDEST POP PUSH2 0x647 PUSH1 0x4 DUP1 CALLDATASIZE SUB DUP2 ADD SWAP1 PUSH2 0x642 SWAP2 SWAP1 PUSH2 0x311E JUMP JUMPDEST PUSH2 0x1771 JUMP JUMPDEST PUSH1 0x40 MLOAD PUSH2 0x654 SWAP2 SWAP1 PUSH2 0x32DD JUMP JUMPDEST PUSH1 0x40 MLOAD DUP1 SWAP2 SUB SWAP1 RETURN JUMPDEST CALLVALUE DUP1 ISZERO PUSH2 0x669 JUMPI PUSH1 0x0 DUP1 REVERT JUMPDEST POP PUSH2 0x672 PUSH2 0x1903 JUMP JUMPDEST PUSH1 0x40 MLOAD PUSH2 0x67F SWAP2 SWAP1 PUSH2 0x330E JUMP JUMPDEST PUSH1 0x40 MLOAD DUP1 SWAP2 SUB SWAP1 RETURN JUMPDEST CALLVALUE DUP1 ISZERO PUSH2 0x694 JUMPI PUSH1 0x0 DUP1 REVERT JUMPDEST POP PUSH2 0x6AF PUSH1 0x4 DUP1 CALLDATASIZE SUB DUP2 ADD SWAP1 PUSH2 0x6AA SWAP2 SWAP1 PUSH2 0x315E JUMP JUMPDEST PUSH2 0x199C JUMP JUMPDEST PUSH1 0x40 MLOAD PUSH2 0x6BC SWAP2 SWAP1 PUSH2 0x3766 JUMP JUMPDEST PUSH1 0x40 MLOAD DUP1 SWAP2 SUB SWAP1 RETURN JUMPDEST CALLVALUE DUP1 ISZERO PUSH2 0x6D1 JUMPI PUSH1 0x0 DUP1 REVERT JUMPDEST POP PUSH2 0x6EC PUSH1 0x4 DUP1 CALLDATASIZE SUB DUP2 ADD SWAP1 PUSH2 0x6E7 SWAP2 SWAP1 PUSH2 0x357B JUMP JUMPDEST PUSH2 0x1A44 JUMP JUMPDEST PUSH1 0x40 MLOAD PUSH2 0x6F9 SWAP2 SWAP1 PUSH2 0x330E JUMP JUMPDEST PUSH1 0x40 MLOAD DUP1 SWAP2 SUB SWAP1 RETURN JUMPDEST CALLVALUE DUP1 ISZERO PUSH2 0x70E JUMPI PUSH1 0x0 DUP1 REVERT JUMPDEST POP PUSH2 0x717 PUSH2 0x1AC8 JUMP JUMPDEST PUSH1 0x40 MLOAD PUSH2 0x724 SWAP2 SWAP1 PUSH2 0x330E JUMP JUMPDEST PUSH1 0x40 MLOAD DUP1 SWAP2 SUB SWAP1 RETURN JUMPDEST CALLVALUE DUP1 ISZERO PUSH2 0x739 JUMPI PUSH1 0x0 DUP1 REVERT JUMPDEST POP PUSH2 0x754 PUSH1 0x4 DUP1 CALLDATASIZE SUB DUP2 ADD SWAP1 PUSH2 0x74F SWAP2 SWAP1 PUSH2 0x3788 JUMP JUMPDEST PUSH2 0x1AD0 JUMP JUMPDEST PUSH1 0x40 MLOAD PUSH2 0x761 SWAP2 SWAP1 PUSH2 0x330E JUMP JUMPDEST PUSH1 0x40 MLOAD DUP1 SWAP2 SUB SWAP1 RETURN JUMPDEST CALLVALUE DUP1 ISZERO PUSH2 0x776 JUMPI PUSH1 0x0 DUP1 REVERT JUMPDEST POP PUSH2 0x791 PUSH1 0x4 DUP1 CALLDATASIZE SUB DUP2 ADD SWAP1 PUSH2 0x78C SWAP2 SWAP1 PUSH2 0x315E JUMP JUMPDEST PUSH2 0x1B42 JUMP JUMPDEST PUSH1 0x40 MLOAD PUSH2 0x79F SWAP3 SWAP2 SWAP1 PUSH2 0x37F3 JUMP JUMPDEST PUSH1 0x40 MLOAD DUP1 SWAP2 SUB SWAP1 RETURN JUMPDEST CALLVALUE DUP1 ISZERO PUSH2 0x7B4 JUMPI PUSH1 0x0 DUP1 REVERT JUMPDEST POP PUSH2 0x7BD PUSH2 0x1B73 JUMP JUMPDEST PUSH1 0x40 MLOAD PUSH2 0x7CA SWAP2 SWAP1 PUSH2 0x330E JUMP JUMPDEST PUSH1 0x40 MLOAD DUP1 SWAP2 SUB SWAP1 RETURN JUMPDEST CALLVALUE DUP1 ISZERO PUSH2 0x7DF JUMPI PUSH1 0x0 DUP1 REVERT JUMPDEST POP PUSH2 0x7FA PUSH1 0x4 DUP1 CALLDATASIZE SUB DUP2 ADD SWAP1 PUSH2 0x7F5 SWAP2 SWAP1 PUSH2 0x315E JUMP JUMPDEST PUSH2 0x1B79 JUMP JUMPDEST PUSH1 0x40 MLOAD PUSH2 0x808 SWAP3 SWAP2 SWAP1 PUSH2 0x381C JUMP JUMPDEST PUSH1 0x40 MLOAD DUP1 SWAP2 SUB SWAP1 RETURN JUMPDEST CALLVALUE DUP1 ISZERO PUSH2 0x81D JUMPI PUSH1 0x0 DUP1 REVERT JUMPDEST POP PUSH2 0x838 PUSH1 0x4 DUP1 CALLDATASIZE SUB DUP2 ADD SWAP1 PUSH2 0x833 SWAP2 SWAP1 PUSH2 0x315E JUMP JUMPDEST PUSH2 0x1C25 JUMP JUMPDEST PUSH1 0x40 MLOAD PUSH2 0x845 SWAP2 SWAP1 PUSH2 0x38FB JUMP JUMPDEST PUSH1 0x40 MLOAD DUP1 SWAP2 SUB SWAP1 RETURN JUMPDEST CALLVALUE DUP1 ISZERO PUSH2 0x85A JUMPI PUSH1 0x0 DUP1 REVERT JUMPDEST POP PUSH2 0x875 PUSH1 0x4 DUP1 CALLDATASIZE SUB DUP2 ADD SWAP1 PUSH2 0x870 SWAP2 SWAP1 PUSH2 0x315E JUMP JUMPDEST PUSH2 0x1D08 JUMP JUMPDEST PUSH1 0x40 MLOAD PUSH2 0x882 SWAP2 SWAP1 PUSH2 0x38FB JUMP JUMPDEST PUSH1 0x40 MLOAD DUP1 SWAP2 SUB SWAP1 RETURN JUMPDEST CALLVALUE DUP1 ISZERO PUSH2 0x897 JUMPI PUSH1 0x0 DUP1 REVERT JUMPDEST POP PUSH2 0x8B2 PUSH1 0x4 DUP1 CALLDATASIZE SUB DUP2 ADD SWAP1 PUSH2 0x8AD SWAP2 SWAP1 PUSH2 0x391D JUMP JUMPDEST PUSH2 0x1DEB JUMP JUMPDEST PUSH1 0x40 MLOAD PUSH2 0x8BF SWAP2 SWAP1 PUSH2 0x330E JUMP JUMPDEST PUSH1 0x40 MLOAD DUP1 SWAP2 SUB SWAP1 RETURN JUMPDEST CALLVALUE DUP1 ISZERO PUSH2 0x8D4 JUMPI PUSH1 0x0 DUP1 REVERT JUMPDEST POP PUSH2 0x8EF PUSH1 0x4 DUP1 CALLDATASIZE SUB DUP2 ADD SWAP1 PUSH2 0x8EA SWAP2 SWAP1 PUSH2 0x398C JUMP JUMPDEST PUSH2 0x1E6E JUMP JUMPDEST STOP JUMPDEST CALLVALUE DUP1 ISZERO PUSH2 0x8FD JUMPI PUSH1 0x0 DUP1 REVERT JUMPDEST POP PUSH2 0x918 PUSH1 0x4 DUP1 CALLDATASIZE SUB DUP2 ADD SWAP1 PUSH2 0x913 SWAP2 SWAP1 PUSH2 0x315E JUMP JUMPDEST PUSH2 0x1EBB JUMP JUMPDEST PUSH1 0x40 MLOAD PUSH2 0x925 SWAP2 SWAP1 PUSH2 0x3766 JUMP JUMPDEST PUSH1 0x40 MLOAD DUP1 SWAP2 SUB SWAP1 RETURN JUMPDEST CALLVALUE DUP1 ISZERO PUSH2 0x93A JUMPI PUSH1 0x0 DUP1 REVERT JUMPDEST POP PUSH2 0x943 PUSH2 0x1F63 JUMP JUMPDEST PUSH1 0x40 MLOAD PUSH2 0x950 SWAP2 SWAP1 PUSH2 0x330E JUMP JUMPDEST PUSH1 0x40 MLOAD DUP1 SWAP2 SUB SWAP1 RETURN JUMPDEST CALLVALUE DUP1 ISZERO PUSH2 0x965 JUMPI PUSH1 0x0 DUP1 REVERT JUMPDEST POP PUSH2 0x980 PUSH1 0x4 DUP1 CALLDATASIZE SUB DUP2 ADD SWAP1 PUSH2 0x97B SWAP2 SWAP1 PUSH2 0x315E JUMP JUMPDEST PUSH2 0x1F69 JUMP JUMPDEST PUSH1 0x40 MLOAD PUSH2 0x98D SWAP2 SWAP1 PUSH2 0x3766 JUMP JUMPDEST PUSH1 0x40 MLOAD DUP1 SWAP2 SUB SWAP1 RETURN JUMPDEST CALLVALUE DUP1 ISZERO PUSH2 0x9A2 JUMPI PUSH1 0x0 DUP1 REVERT JUMPDEST POP PUSH2 0x9AB PUSH2 0x208B JUMP JUMPDEST PUSH1 0x40 MLOAD PUSH2 0x9B8 SWAP2 SWAP1 PUSH2 0x32DD JUMP JUMPDEST PUSH1 0x40 MLOAD DUP1 SWAP2 SUB SWAP1 RETURN JUMPDEST CALLVALUE DUP1 ISZERO PUSH2 0x9CD JUMPI PUSH1 0x0 DUP1 REVERT JUMPDEST POP PUSH2 0x9E8 PUSH1 0x4 DUP1 CALLDATASIZE SUB DUP2 ADD SWAP1 PUSH2 0x9E3 SWAP2 SWAP1 PUSH2 0x315E JUMP JUMPDEST PUSH2 0x21C6 JUMP JUMPDEST PUSH1 0x40 MLOAD PUSH2 0x9F5 SWAP2 SWAP1 PUSH2 0x3A17 JUMP JUMPDEST PUSH1 0x40 MLOAD DUP1 SWAP2 SUB SWAP1 RETURN JUMPDEST CALLVALUE DUP1 ISZERO PUSH2 0xA0A JUMPI PUSH1 0x0 DUP1 REVERT JUMPDEST POP PUSH2 0xA25 PUSH1 0x4 DUP1 CALLDATASIZE SUB DUP2 ADD SWAP1 PUSH2 0xA20 SWAP2 SWAP1 PUSH2 0x34E6 JUMP JUMPDEST PUSH2 0x243A JUMP JUMPDEST PUSH1 0x40 MLOAD PUSH2 0xA32 SWAP2 SWAP1 PUSH2 0x330E JUMP JUMPDEST PUSH1 0x40 MLOAD DUP1 SWAP2 SUB SWAP1 RETURN JUMPDEST CALLVALUE DUP1 ISZERO PUSH2 0xA47 JUMPI PUSH1 0x0 DUP1 REVERT JUMPDEST POP PUSH2 0xA62 PUSH1 0x4 DUP1 CALLDATASIZE SUB DUP2 ADD SWAP1 PUSH2 0xA5D SWAP2 SWAP1 PUSH2 0x311E JUMP JUMPDEST PUSH2 0x24AB JUMP JUMPDEST STOP JUMPDEST CALLVALUE DUP1 ISZERO PUSH2 0xA70 JUMPI PUSH1 0x0 DUP1 REVERT JUMPDEST POP PUSH2 0xA8B PUSH1 0x4 DUP1 CALLDATASIZE SUB DUP2 ADD SWAP1 PUSH2 0xA86 SWAP2 SWAP1 PUSH2 0x315E JUMP JUMPDEST PUSH2 0x24DC JUMP JUMPDEST STOP JUMPDEST CALLVALUE DUP1 ISZERO PUSH2 0xA99 JUMPI PUSH1 0x0 DUP1 REVERT JUMPDEST POP PUSH2 0xAA2 PUSH2 0x2563 JUMP JUMPDEST PUSH1 0x40 MLOAD PUSH2 0xAAF SWAP2 SWAP1 PUSH2 0x330E JUMP JUMPDEST PUSH1 0x40 MLOAD DUP1 SWAP2 SUB SWAP1 RETURN JUMPDEST CALLVALUE DUP1 ISZERO PUSH2 0xAC4 JUMPI PUSH1 0x0 DUP1 REVERT JUMPDEST POP PUSH2 0xADF PUSH1 0x4 DUP1 CALLDATASIZE SUB DUP2 ADD SWAP1 PUSH2 0xADA SWAP2 SWAP1 PUSH2 0x34E6 JUMP JUMPDEST PUSH2 0x2569 JUMP JUMPDEST PUSH1 0x40 MLOAD PUSH2 0xAEC SWAP2 SWAP1 PUSH2 0x330E JUMP JUMPDEST PUSH1 0x40 MLOAD DUP1 SWAP2 SUB SWAP1 RETURN JUMPDEST CALLVALUE DUP1 ISZERO PUSH2 0xB01 JUMPI PUSH1 0x0 DUP1 REVERT JUMPDEST POP PUSH2 0xB0A PUSH2 0x25F0 JUMP JUMPDEST PUSH1 0x40 MLOAD PUSH2 0xB17 SWAP2 SWAP1 PUSH2 0x3B60 JUMP JUMPDEST PUSH1 0x40 MLOAD DUP1 SWAP2 SUB SWAP1 RETURN JUMPDEST CALLVALUE DUP1 ISZERO PUSH2 0xB2C JUMPI PUSH1 0x0 DUP1 REVERT JUMPDEST POP PUSH2 0xB35 PUSH2 0x267B JUMP JUMPDEST STOP JUMPDEST CALLVALUE DUP1 ISZERO PUSH2 0xB43 JUMPI PUSH1 0x0 DUP1 REVERT JUMPDEST POP PUSH2 0xB4C PUSH2 0x2916 JUMP JUMPDEST STOP JUMPDEST CALLVALUE DUP1 ISZERO PUSH2 0xB5A JUMPI PUSH1 0x0 DUP1 REVERT JUMPDEST POP PUSH2 0xB75 PUSH1 0x4 DUP1 CALLDATASIZE SUB DUP2 ADD SWAP1 PUSH2 0xB70 SWAP2 SWAP1 PUSH2 0x315E JUMP JUMPDEST PUSH2 0x2AC6 JUMP JUMPDEST PUSH1 0x40 MLOAD PUSH2 0xB84 SWAP4 SWAP3 SWAP2 SWAP1 PUSH2 0x3373 JUMP JUMPDEST PUSH1 0x40 MLOAD DUP1 SWAP2 SUB SWAP1 RETURN JUMPDEST CALLVALUE DUP1 ISZERO PUSH2 0xB99 JUMPI PUSH1 0x0 DUP1 REVERT JUMPDEST POP PUSH2 0xBB4 PUSH1 0x4 DUP1 CALLDATASIZE SUB DUP2 ADD SWAP1 PUSH2 0xBAF SWAP2 SWAP1 PUSH2 0x357B JUMP JUMPDEST PUSH2 0x2B78 JUMP JUMPDEST STOP JUMPDEST CALLVALUE DUP1 ISZERO PUSH2 0xBC2 JUMPI PUSH1 0x0 DUP1 REVERT JUMPDEST POP PUSH2 0xBCB PUSH2 0x2BA0 JUMP JUMPDEST PUSH1 0x40 MLOAD PUSH2 0xBD8 SWAP2 SWAP1 PUSH2 0x32DD JUMP JUMPDEST PUSH1 0x40 MLOAD DUP1 SWAP2 SUB SWAP1 RETURN JUMPDEST CALLVALUE DUP1 ISZERO PUSH2 0xBED JUMPI PUSH1 0x0 DUP1 REVERT JUMPDEST POP PUSH2 0xC08 PUSH1 0x4 DUP1 CALLDATASIZE SUB DUP2 ADD SWAP1 PUSH2 0xC03 SWAP2 SWAP1 PUSH2 0x357B JUMP JUMPDEST PUSH2 0x2CDB JUMP JUMPDEST STOP JUMPDEST CALLVALUE DUP1 ISZERO PUSH2 0xC16 JUMPI PUSH1 0x0 DUP1 REVERT JUMPDEST POP PUSH2 0xC31 PUSH1 0x4 DUP1 CALLDATASIZE SUB DUP2 ADD SWAP1 PUSH2 0xC2C SWAP2 SWAP1 PUSH2 0x3B82 JUMP JUMPDEST PUSH2 0x2D03 JUMP JUMPDEST PUSH1 0x40 MLOAD PUSH2 0xC3E SWAP2 SWAP1 PUSH2 0x330E JUMP JUMPDEST PUSH1 0x40 MLOAD DUP1 SWAP2 SUB SWAP1 RETURN JUMPDEST CALLVALUE DUP1 ISZERO PUSH2 0xC53 JUMPI PUSH1 0x0 DUP1 REVERT JUMPDEST POP PUSH2 0xC5C PUSH2 0x2DD2 JUMP JUMPDEST PUSH1 0x40 MLOAD PUSH2 0xC69 SWAP2 SWAP1 PUSH2 0x330E JUMP JUMPDEST PUSH1 0x40 MLOAD DUP1 SWAP2 SUB SWAP1 RETURN JUMPDEST CALLVALUE DUP1 ISZERO PUSH2 0xC7E JUMPI PUSH1 0x0 DUP1 REVERT JUMPDEST POP PUSH2 0xC99 PUSH1 0x4 DUP1 CALLDATASIZE SUB DUP2 ADD SWAP1 PUSH2 0xC94 SWAP2 SWAP1 PUSH2 0x3CE0 JUMP JUMPDEST PUSH2 0x2DD8 JUMP JUMPDEST PUSH1 0x40 MLOAD PUSH2 0xCA6 SWAP2 SWAP1 PUSH2 0x330E JUMP JUMPDEST PUSH1 0x40 MLOAD DUP1 SWAP2 SUB SWAP1 RETURN JUMPDEST CALLVALUE DUP1 ISZERO PUSH2 0xCBB JUMPI PUSH1 0x0 DUP1 REVERT JUMPDEST POP PUSH2 0xCD6 PUSH1 0x4 DUP1 CALLDATASIZE SUB DUP2 ADD SWAP1 PUSH2 0xCD1 SWAP2 SWAP1 PUSH2 0x315E JUMP JUMPDEST PUSH2 0x2EBD JUMP JUMPDEST PUSH1 0x40 MLOAD PUSH2 0xCE3 SWAP2 SWAP1 PUSH2 0x3766 JUMP JUMPDEST PUSH1 0x40 MLOAD DUP1 SWAP2 SUB SWAP1 RETURN JUMPDEST CALLVALUE DUP1 ISZERO PUSH2 0xCF8 JUMPI PUSH1 0x0 DUP1 REVERT JUMPDEST POP PUSH2 0xD13 PUSH1 0x4 DUP1 CALLDATASIZE SUB DUP2 ADD SWAP1 PUSH2 0xD0E SWAP2 SWAP1 PUSH2 0x315E JUMP JUMPDEST PUSH2 0x2F65 JUMP JUMPDEST PUSH1 0x40 MLOAD PUSH2 0xD22 SWAP4 SWAP3 SWAP2 SWAP1 PUSH2 0x3373 JUMP JUMPDEST PUSH1 0x40 MLOAD DUP1 SWAP2 SUB SWAP1 RETURN JUMPDEST PUSH2 0xD33 PUSH2 0x2916 JUMP JUMPDEST DUP1 PUSH1 0x2 PUSH1 0x0 DUP5 DUP2 MSTORE PUSH1 0x20 ADD SWAP1 DUP2 MSTORE PUSH1 0x20 ADD PUSH1 0x0 KECCAK256 PUSH1 0x0 DUP3 DUP3 SLOAD PUSH2 0xD56 SWAP2 SWAP1 PUSH2 0x3D9A JUMP JUMPDEST SWAP3 POP POP DUP2 SWAP1 SSTORE POP POP POP JUMP JUMPDEST PUSH1 0x60 PUSH1 0x0 PUSH1 0x7 SLOAD PUSH8 0xFFFFFFFFFFFFFFFF DUP2 GT ISZERO PUSH2 0xD81 JUMPI PUSH2 0xD80 PUSH2 0x33BB JUMP JUMPDEST JUMPDEST PUSH1 0x40 MLOAD SWAP1 DUP1 DUP3 MSTORE DUP1 PUSH1 0x20 MUL PUSH1 0x20 ADD DUP3 ADD PUSH1 0x40 MSTORE DUP1 ISZERO PUSH2 0xDB4 JUMPI DUP2 PUSH1 0x20 ADD JUMPDEST PUSH1 0x60 DUP2 MSTORE PUSH1 0x20 ADD SWAP1 PUSH1 0x1 SWAP1 SUB SWAP1 DUP2 PUSH2 0xD9F JUMPI SWAP1 POP JUMPDEST POP SWAP1 POP PUSH1 0x0 DUP1 PUSH1 0x0 SWAP1 POP JUMPDEST PUSH1 0x7 SLOAD DUP2 LT ISZERO PUSH2 0xEC5 JUMPI DUP5 PUSH1 0xE PUSH1 0x0 DUP4 DUP2 MSTORE PUSH1 0x20 ADD SWAP1 DUP2 MSTORE PUSH1 0x20 ADD PUSH1 0x0 KECCAK256 PUSH1 0x0 ADD SLOAD SUB PUSH2 0xEB2 JUMPI PUSH1 0xE PUSH1 0x0 DUP3 DUP2 MSTORE PUSH1 0x20 ADD SWAP1 DUP2 MSTORE PUSH1 0x20 ADD PUSH1 0x0 KECCAK256 PUSH1 0x1 ADD DUP1 SLOAD PUSH2 0xE07 SWAP1 PUSH2 0x3DFD JUMP JUMPDEST DUP1 PUSH1 0x1F ADD PUSH1 0x20 DUP1 SWAP2 DIV MUL PUSH1 0x20 ADD PUSH1 0x40 MLOAD SWAP1 DUP2 ADD PUSH1 0x40 MSTORE DUP1 SWAP3 SWAP2 SWAP1 DUP2 DUP2 MSTORE PUSH1 0x20 ADD DUP3 DUP1 SLOAD PUSH2 0xE33 SWAP1 PUSH2 0x3DFD JUMP JUMPDEST DUP1 ISZERO PUSH2 0xE80 JUMPI DUP1 PUSH1 0x1F LT PUSH2 0xE55 JUMPI PUSH2 0x100 DUP1 DUP4 SLOAD DIV MUL DUP4 MSTORE SWAP2 PUSH1 0x20 ADD SWAP2 PUSH2 0xE80 JUMP JUMPDEST DUP3 ADD SWAP2 SWAP1 PUSH1 0x0 MSTORE PUSH1 0x20 PUSH1 0x0 KECCAK256 SWAP1 JUMPDEST DUP2 SLOAD DUP2 MSTORE SWAP1 PUSH1 0x1 ADD SWAP1 PUSH1 0x20 ADD DUP1 DUP4 GT PUSH2 0xE63 JUMPI DUP3 SWAP1 SUB PUSH1 0x1F AND DUP3 ADD SWAP2 JUMPDEST POP POP POP POP POP DUP4 DUP4 DUP2 MLOAD DUP2 LT PUSH2 0xE98 JUMPI PUSH2 0xE97 PUSH2 0x3E2E JUMP JUMPDEST JUMPDEST PUSH1 0x20 MUL PUSH1 0x20 ADD ADD DUP2 SWAP1 MSTORE POP DUP2 DUP1 PUSH2 0xEAE SWAP1 PUSH2 0x3E5D JUMP JUMPDEST SWAP3 POP POP JUMPDEST DUP1 DUP1 PUSH2 0xEBD SWAP1 PUSH2 0x3E5D JUMP JUMPDEST SWAP2 POP POP PUSH2 0xDBF JUMP JUMPDEST POP DUP2 SWAP3 POP POP POP SWAP2 SWAP1 POP JUMP JUMPDEST PUSH1 0x60 PUSH1 0x0 PUSH1 0x8 SLOAD PUSH8 0xFFFFFFFFFFFFFFFF DUP2 GT ISZERO PUSH2 0xEF0 JUMPI PUSH2 0xEEF PUSH2 0x33BB JUMP JUMPDEST JUMPDEST PUSH1 0x40 MLOAD SWAP1 DUP1 DUP3 MSTORE DUP1 PUSH1 0x20 MUL PUSH1 0x20 ADD DUP3 ADD PUSH1 0x40 MSTORE DUP1 ISZERO PUSH2 0xF23 JUMPI DUP2 PUSH1 0x20 ADD JUMPDEST PUSH1 0x60 DUP2 MSTORE PUSH1 0x20 ADD SWAP1 PUSH1 0x1 SWAP1 SUB SWAP1 DUP2 PUSH2 0xF0E JUMPI SWAP1 POP JUMPDEST POP SWAP1 POP PUSH1 0x0 DUP1 PUSH1 0x0 SWAP1 POP JUMPDEST PUSH1 0x8 SLOAD DUP2 LT ISZERO PUSH2 0x1034 JUMPI DUP5 PUSH1 0xF PUSH1 0x0 DUP4 DUP2 MSTORE PUSH1 0x20 ADD SWAP1 DUP2 MSTORE PUSH1 0x20 ADD PUSH1 0x0 KECCAK256 PUSH1 0x0 ADD SLOAD SUB PUSH2 0x1013 JUMPI PUSH1 0xF PUSH1 0x0 DUP3 DUP2 MSTORE PUSH1 0x20 ADD SWAP1 DUP2 MSTORE PUSH1 0x20 ADD PUSH1 0x0 KECCAK256 PUSH1 0x1 ADD DUP1 SLOAD PUSH2 0xF76 SWAP1 PUSH2 0x3DFD JUMP JUMPDEST DUP1 PUSH1 0x1F ADD PUSH1 0x20 DUP1 SWAP2 DIV MUL PUSH1 0x20 ADD PUSH1 0x40 MLOAD SWAP1 DUP2 ADD PUSH1 0x40 MSTORE DUP1 SWAP3 SWAP2 SWAP1 DUP2 DUP2 MSTORE PUSH1 0x20 ADD DUP3 DUP1 SLOAD PUSH2 0xFA2 SWAP1 PUSH2 0x3DFD JUMP JUMPDEST DUP1 ISZERO PUSH2 0xFEF JUMPI DUP1 PUSH1 0x1F LT PUSH2 0xFC4 JUMPI PUSH2 0x100 DUP1 DUP4 SLOAD DIV MUL DUP4 MSTORE SWAP2 PUSH1 0x20 ADD SWAP2 PUSH2 0xFEF JUMP JUMPDEST DUP3 ADD SWAP2 SWAP1 PUSH1 0x0 MSTORE PUSH1 0x20 PUSH1 0x0 KECCAK256 SWAP1 JUMPDEST DUP2 SLOAD DUP2 MSTORE SWAP1 PUSH1 0x1 ADD SWAP1 PUSH1 0x20 ADD DUP1 DUP4 GT PUSH2 0xFD2 JUMPI DUP3 SWAP1 SUB PUSH1 0x1F AND DUP3 ADD SWAP2 JUMPDEST POP POP POP POP POP DUP4 DUP4 DUP2 MLOAD DUP2 LT PUSH2 0x1007 JUMPI PUSH2 0x1006 PUSH2 0x3E2E JUMP JUMPDEST JUMPDEST PUSH1 0x20 MUL PUSH1 0x20 ADD ADD DUP2 SWAP1 MSTORE POP JUMPDEST DUP2 DUP1 PUSH2 0x101E SWAP1 PUSH2 0x3E5D JUMP JUMPDEST SWAP3 POP POP DUP1 DUP1 PUSH2 0x102C SWAP1 PUSH2 0x3E5D JUMP JUMPDEST SWAP2 POP POP PUSH2 0xF2E JUMP JUMPDEST POP DUP2 SWAP3 POP POP POP SWAP2 SWAP1 POP JUMP JUMPDEST PUSH1 0x7 SLOAD DUP2 JUMP JUMPDEST PUSH1 0x0 SELFBALANCE SWAP1 POP PUSH1 0x0 CALLER PUSH20 0xFFFFFFFFFFFFFFFFFFFFFFFFFFFFFFFFFFFFFFFF AND DUP3 PUSH1 0x40 MLOAD PUSH2 0x1070 SWAP1 PUSH2 0x3ED6 JUMP JUMPDEST PUSH1 0x0 PUSH1 0x40 MLOAD DUP1 DUP4 SUB DUP2 DUP6 DUP8 GAS CALL SWAP3 POP POP POP RETURNDATASIZE DUP1 PUSH1 0x0 DUP2 EQ PUSH2 0x10AD JUMPI PUSH1 0x40 MLOAD SWAP2 POP PUSH1 0x1F NOT PUSH1 0x3F RETURNDATASIZE ADD AND DUP3 ADD PUSH1 0x40 MSTORE RETURNDATASIZE DUP3 MSTORE RETURNDATASIZE PUSH1 0x0 PUSH1 0x20 DUP5 ADD RETURNDATACOPY PUSH2 0x10B2 JUMP JUMPDEST PUSH1 0x60 SWAP2 POP JUMPDEST POP POP SWAP1 POP POP POP JUMP JUMPDEST PUSH1 0x9 SLOAD DUP2 JUMP JUMPDEST PUSH1 0x11 PUSH1 0x20 MSTORE DUP1 PUSH1 0x0 MSTORE PUSH1 0x40 PUSH1 0x0 KECCAK256 PUSH1 0x0 SWAP2 POP SWAP1 POP DUP1 PUSH1 0x0 ADD SLOAD SWAP1 DUP1 PUSH1 0x1 ADD SLOAD SWAP1 DUP1 PUSH1 0x2 ADD DUP1 SLOAD PUSH2 0x10EF SWAP1 PUSH2 0x3DFD JUMP JUMPDEST DUP1 PUSH1 0x1F ADD PUSH1 0x20 DUP1 SWAP2 DIV MUL PUSH1 0x20 ADD PUSH1 0x40 MLOAD SWAP1 DUP2 ADD PUSH1 0x40 MSTORE DUP1 SWAP3 SWAP2 SWAP1 DUP2 DUP2 MSTORE PUSH1 0x20 ADD DUP3 DUP1 SLOAD PUSH2 0x111B SWAP1 PUSH2 0x3DFD JUMP JUMPDEST DUP1 ISZERO PUSH2 0x1168 JUMPI DUP1 PUSH1 0x1F LT PUSH2 0x113D JUMPI PUSH2 0x100 DUP1 DUP4 SLOAD DIV MUL DUP4 MSTORE SWAP2 PUSH1 0x20 ADD SWAP2 PUSH2 0x1168 JUMP JUMPDEST DUP3 ADD SWAP2 SWAP1 PUSH1 0x0 MSTORE PUSH1 0x20 PUSH1 0x0 KECCAK256 SWAP1 JUMPDEST DUP2 SLOAD DUP2 MSTORE SWAP1 PUSH1 0x1 ADD SWAP1 PUSH1 0x20 ADD DUP1 DUP4 GT PUSH2 0x114B JUMPI DUP3 SWAP1 SUB PUSH1 0x1F AND DUP3 ADD SWAP2 JUMPDEST POP POP POP POP POP SWAP1 POP DUP4 JUMP JUMPDEST PUSH1 0x0 DUP1 PUSH1 0x0 SWAP1 POP JUMPDEST PUSH1 0x7 SLOAD DUP2 LT ISZERO PUSH2 0x11D8 JUMPI DUP3 DUP1 MLOAD SWAP1 PUSH1 0x20 ADD KECCAK256 PUSH1 0xE PUSH1 0x0 DUP4 DUP2 MSTORE PUSH1 0x20 ADD SWAP1 DUP2 MSTORE PUSH1 0x20 ADD PUSH1 0x0 KECCAK256 PUSH1 0x1 ADD PUSH1 0x40 MLOAD PUSH2 0x11AF SWAP2 SWAP1 PUSH2 0x3F83 JUMP JUMPDEST PUSH1 0x40 MLOAD DUP1 SWAP2 SUB SWAP1 KECCAK256 SUB PUSH2 0x11C5 JUMPI DUP1 SWAP2 POP POP PUSH2 0x11DE JUMP JUMPDEST DUP1 DUP1 PUSH2 0x11D0 SWAP1 PUSH2 0x3E5D JUMP JUMPDEST SWAP2 POP POP PUSH2 0x117A JUMP JUMPDEST POP PUSH1 0x0 SWAP1 POP JUMPDEST SWAP2 SWAP1 POP JUMP JUMPDEST PUSH1 0xD PUSH1 0x20 MSTORE DUP1 PUSH1 0x0 MSTORE PUSH1 0x40 PUSH1 0x0 KECCAK256 PUSH1 0x0 SWAP2 POP SWAP1 POP DUP1 PUSH1 0x0 ADD DUP1 SLOAD PUSH2 0x1206 SWAP1 PUSH2 0x3DFD JUMP JUMPDEST DUP1 PUSH1 0x1F ADD PUSH1 0x20 DUP1 SWAP2 DIV MUL PUSH1 0x20 ADD PUSH1 0x40 MLOAD SWAP1 DUP2 ADD PUSH1 0x40 MSTORE DUP1 SWAP3 SWAP2 SWAP1 DUP2 DUP2 MSTORE PUSH1 0x20 ADD DUP3 DUP1 SLOAD PUSH2 0x1232 SWAP1 PUSH2 0x3DFD JUMP JUMPDEST DUP1 ISZERO PUSH2 0x127F JUMPI DUP1 PUSH1 0x1F LT PUSH2 0x1254 JUMPI PUSH2 0x100 DUP1 DUP4 SLOAD DIV MUL DUP4 MSTORE SWAP2 PUSH1 0x20 ADD SWAP2 PUSH2 0x127F JUMP JUMPDEST DUP3 ADD SWAP2 SWAP1 PUSH1 0x0 MSTORE PUSH1 0x20 PUSH1 0x0 KECCAK256 SWAP1 JUMPDEST DUP2 SLOAD DUP2 MSTORE SWAP1 PUSH1 0x1 ADD SWAP1 PUSH1 0x20 ADD DUP1 DUP4 GT PUSH2 0x1262 JUMPI DUP3 SWAP1 SUB PUSH1 0x1F AND DUP3 ADD SWAP2 JUMPDEST POP POP POP POP POP SWAP1 DUP1 PUSH1 0x1 ADD DUP1 SLOAD PUSH2 0x1294 SWAP1 PUSH2 0x3DFD JUMP JUMPDEST DUP1 PUSH1 0x1F ADD PUSH1 0x20 DUP1 SWAP2 DIV MUL PUSH1 0x20 ADD PUSH1 0x40 MLOAD SWAP1 DUP2 ADD PUSH1 0x40 MSTORE DUP1 SWAP3 SWAP2 SWAP1 DUP2 DUP2 MSTORE PUSH1 0x20 ADD DUP3 DUP1 SLOAD PUSH2 0x12C0 SWAP1 PUSH2 0x3DFD JUMP JUMPDEST DUP1 ISZERO PUSH2 0x130D JUMPI DUP1 PUSH1 0x1F LT PUSH2 0x12E2 JUMPI PUSH2 0x100 DUP1 DUP4 SLOAD DIV MUL DUP4 MSTORE SWAP2 PUSH1 0x20 ADD SWAP2 PUSH2 0x130D JUMP JUMPDEST DUP3 ADD SWAP2 SWAP1 PUSH1 0x0 MSTORE PUSH1 0x20 PUSH1 0x0 KECCAK256 SWAP1 JUMPDEST DUP2 SLOAD DUP2 MSTORE SWAP1 PUSH1 0x1 ADD SWAP1 PUSH1 0x20 ADD DUP1 DUP4 GT PUSH2 0x12F0 JUMPI DUP3 SWAP1 SUB PUSH1 0x1F AND DUP3 ADD SWAP2 JUMPDEST POP POP POP POP POP SWAP1 DUP1 PUSH1 0x2 ADD DUP1 SLOAD PUSH2 0x1322 SWAP1 PUSH2 0x3DFD JUMP JUMPDEST DUP1 PUSH1 0x1F ADD PUSH1 0x20 DUP1 SWAP2 DIV MUL PUSH1 0x20 ADD PUSH1 0x40 MLOAD SWAP1 DUP2 ADD PUSH1 0x40 MSTORE DUP1 SWAP3 SWAP2 SWAP1 DUP2 DUP2 MSTORE PUSH1 0x20 ADD DUP3 DUP1 SLOAD PUSH2 0x134E SWAP1 PUSH2 0x3DFD JUMP JUMPDEST DUP1 ISZERO PUSH2 0x139B JUMPI DUP1 PUSH1 0x1F LT PUSH2 0x1370 JUMPI PUSH2 0x100 DUP1 DUP4 SLOAD DIV MUL DUP4 MSTORE SWAP2 PUSH1 0x20 ADD SWAP2 PUSH2 0x139B JUMP JUMPDEST DUP3 ADD SWAP2 SWAP1 PUSH1 0x0 MSTORE PUSH1 0x20 PUSH1 0x0 KECCAK256 SWAP1 JUMPDEST DUP2 SLOAD DUP2 MSTORE SWAP1 PUSH1 0x1 ADD SWAP1 PUSH1 0x20 ADD DUP1 DUP4 GT PUSH2 0x137E JUMPI DUP3 SWAP1 SUB PUSH1 0x1F AND DUP3 ADD SWAP2 JUMPDEST POP POP POP POP POP SWAP1 POP DUP4 JUMP JUMPDEST PUSH1 0x60 PUSH1 0x0 PUSH1 0x7 SLOAD PUSH8 0xFFFFFFFFFFFFFFFF DUP2 GT ISZERO PUSH2 0x13C5 JUMPI PUSH2 0x13C4 PUSH2 0x33BB JUMP JUMPDEST JUMPDEST PUSH1 0x40 MLOAD SWAP1 DUP1 DUP3 MSTORE DUP1 PUSH1 0x20 MUL PUSH1 0x20 ADD DUP3 ADD PUSH1 0x40 MSTORE DUP1 ISZERO PUSH2 0x13F8 JUMPI DUP2 PUSH1 0x20 ADD JUMPDEST PUSH1 0x60 DUP2 MSTORE PUSH1 0x20 ADD SWAP1 PUSH1 0x1 SWAP1 SUB SWAP1 DUP2 PUSH2 0x13E3 JUMPI SWAP1 POP JUMPDEST POP SWAP1 POP PUSH1 0x0 JUMPDEST PUSH1 0x7 SLOAD DUP2 LT ISZERO PUSH2 0x14D8 JUMPI PUSH1 0xE PUSH1 0x0 DUP3 DUP2 MSTORE PUSH1 0x20 ADD SWAP1 DUP2 MSTORE PUSH1 0x20 ADD PUSH1 0x0 KECCAK256 PUSH1 0x1 ADD DUP1 SLOAD PUSH2 0x1429 SWAP1 PUSH2 0x3DFD JUMP JUMPDEST DUP1 PUSH1 0x1F ADD PUSH1 0x20 DUP1 SWAP2 DIV MUL PUSH1 0x20 ADD PUSH1 0x40 MLOAD SWAP1 DUP2 ADD PUSH1 0x40 MSTORE DUP1 SWAP3 SWAP2 SWAP1 DUP2 DUP2 MSTORE PUSH1 0x20 ADD DUP3 DUP1 SLOAD PUSH2 0x1455 SWAP1 PUSH2 0x3DFD JUMP JUMPDEST DUP1 ISZERO PUSH2 0x14A2 JUMPI DUP1 PUSH1 0x1F LT PUSH2 0x1477 JUMPI PUSH2 0x100 DUP1 DUP4 SLOAD DIV MUL DUP4 MSTORE SWAP2 PUSH1 0x20 ADD SWAP2 PUSH2 0x14A2 JUMP JUMPDEST DUP3 ADD SWAP2 SWAP1 PUSH1 0x0 MSTORE PUSH1 0x20 PUSH1 0x0 KECCAK256 SWAP1 JUMPDEST DUP2 SLOAD DUP2 MSTORE SWAP1 PUSH1 0x1 ADD SWAP1 PUSH1 0x20 ADD DUP1 DUP4 GT PUSH2 0x1485 JUMPI DUP3 SWAP1 SUB PUSH1 0x1F AND DUP3 ADD SWAP2 JUMPDEST POP POP POP POP POP DUP3 DUP3 DUP2 MLOAD DUP2 LT PUSH2 0x14BA JUMPI PUSH2 0x14B9 PUSH2 0x3E2E JUMP JUMPDEST JUMPDEST PUSH1 0x20 MUL PUSH1 0x20 ADD ADD DUP2 SWAP1 MSTORE POP DUP1 DUP1 PUSH2 0x14D0 SWAP1 PUSH2 0x3E5D JUMP JUMPDEST SWAP2 POP POP PUSH2 0x13FE JUMP JUMPDEST POP DUP1 SWAP2 POP POP SWAP1 JUMP JUMPDEST PUSH1 0x0 PUSH1 0x40 MLOAD DUP1 PUSH1 0x60 ADD PUSH1 0x40 MSTORE DUP1 PUSH1 0xB SLOAD DUP2 MSTORE PUSH1 0x20 ADD DUP5 DUP2 MSTORE PUSH1 0x20 ADD DUP4 DUP2 MSTORE POP PUSH1 0x12 PUSH1 0x0 PUSH1 0xB SLOAD DUP2 MSTORE PUSH1 0x20 ADD SWAP1 DUP2 MSTORE PUSH1 0x20 ADD PUSH1 0x0 KECCAK256 PUSH1 0x0 DUP3 ADD MLOAD DUP2 PUSH1 0x0 ADD SSTORE PUSH1 0x20 DUP3 ADD MLOAD DUP2 PUSH1 0x1 ADD SSTORE PUSH1 0x40 DUP3 ADD MLOAD DUP2 PUSH1 0x2 ADD SWAP1 DUP2 PUSH2 0x153D SWAP2 SWAP1 PUSH2 0x4146 JUMP JUMPDEST POP SWAP1 POP POP PUSH1 0xB PUSH1 0x0 DUP2 SLOAD DUP1 SWAP3 SWAP2 SWAP1 PUSH2 0x1554 SWAP1 PUSH2 0x3E5D JUMP JUMPDEST SWAP2 SWAP1 POP SSTORE POP PUSH1 0xB SLOAD SWAP1 POP SWAP3 SWAP2 POP POP JUMP JUMPDEST PUSH1 0x13 PUSH1 0x20 MSTORE DUP1 PUSH1 0x0 MSTORE PUSH1 0x40 PUSH1 0x0 KECCAK256 PUSH1 0x0 SWAP2 POP SWAP1 POP DUP1 PUSH1 0x0 ADD SLOAD SWAP1 DUP1 PUSH1 0x1 ADD SLOAD SWAP1 DUP1 PUSH1 0x2 ADD DUP1 SLOAD PUSH2 0x1593 SWAP1 PUSH2 0x3DFD JUMP JUMPDEST DUP1 PUSH1 0x1F ADD PUSH1 0x20 DUP1 SWAP2 DIV MUL PUSH1 0x20 ADD PUSH1 0x40 MLOAD SWAP1 DUP2 ADD PUSH1 0x40 MSTORE DUP1 SWAP3 SWAP2 SWAP1 DUP2 DUP2 MSTORE PUSH1 0x20 ADD DUP3 DUP1 SLOAD PUSH2 0x15BF SWAP1 PUSH2 0x3DFD JUMP JUMPDEST DUP1 ISZERO PUSH2 0x160C JUMPI DUP1 PUSH1 0x1F LT PUSH2 0x15E1 JUMPI PUSH2 0x100 DUP1 DUP4 SLOAD DIV MUL DUP4 MSTORE SWAP2 PUSH1 0x20 ADD SWAP2 PUSH2 0x160C JUMP JUMPDEST DUP3 ADD SWAP2 SWAP1 PUSH1 0x0 MSTORE PUSH1 0x20 PUSH1 0x0 KECCAK256 SWAP1 JUMPDEST DUP2 SLOAD DUP2 MSTORE SWAP1 PUSH1 0x1 ADD SWAP1 PUSH1 0x20 ADD DUP1 DUP4 GT PUSH2 0x15EF JUMPI DUP3 SWAP1 SUB PUSH1 0x1F AND DUP3 ADD SWAP2 JUMPDEST POP POP POP POP POP SWAP1 POP DUP4 JUMP JUMPDEST PUSH1 0x2 PUSH1 0x20 MSTORE DUP1 PUSH1 0x0 MSTORE PUSH1 0x40 PUSH1 0x0 KECCAK256 PUSH1 0x0 SWAP2 POP SWAP1 POP SLOAD DUP2 JUMP JUMPDEST PUSH1 0x60 PUSH2 0x800 PUSH20 0xFFFFFFFFFFFFFFFFFFFFFFFFFFFFFFFFFFFFFFFF AND PUSH4 0xA03FFEE1 ADDRESS PUSH1 0x4 PUSH1 0x40 MLOAD DUP4 PUSH4 0xFFFFFFFF AND PUSH1 0xE0 SHL DUP2 MSTORE PUSH1 0x4 ADD PUSH2 0x166E SWAP3 SWAP2 SWAP1 PUSH2 0x42DD JUMP JUMPDEST PUSH1 0x0 PUSH1 0x40 MLOAD DUP1 DUP4 SUB DUP2 DUP7 GAS STATICCALL ISZERO DUP1 ISZERO PUSH2 0x168B JUMPI RETURNDATASIZE PUSH1 0x0 DUP1 RETURNDATACOPY RETURNDATASIZE PUSH1 0x0 REVERT JUMPDEST POP POP POP POP PUSH1 0x40 MLOAD RETURNDATASIZE PUSH1 0x0 DUP3 RETURNDATACOPY RETURNDATASIZE PUSH1 0x1F NOT PUSH1 0x1F DUP3 ADD AND DUP3 ADD DUP1 PUSH1 0x40 MSTORE POP DUP2 ADD SWAP1 PUSH2 0x16B4 SWAP2 SWAP1 PUSH2 0x4493 JUMP JUMPDEST SWAP1 POP SWAP1 JUMP JUMPDEST PUSH1 0xF PUSH1 0x20 MSTORE DUP1 PUSH1 0x0 MSTORE PUSH1 0x40 PUSH1 0x0 KECCAK256 PUSH1 0x0 SWAP2 POP SWAP1 POP DUP1 PUSH1 0x0 ADD SLOAD SWAP1 DUP1 PUSH1 0x1 ADD DUP1 SLOAD PUSH2 0x16E2 SWAP1 PUSH2 0x3DFD JUMP JUMPDEST DUP1 PUSH1 0x1F ADD PUSH1 0x20 DUP1 SWAP2 DIV MUL PUSH1 0x20 ADD PUSH1 0x40 MLOAD SWAP1 DUP2 ADD PUSH1 0x40 MSTORE DUP1 SWAP3 SWAP2 SWAP1 DUP2 DUP2 MSTORE PUSH1 0x20 ADD DUP3 DUP1 SLOAD PUSH2 0x170E SWAP1 PUSH2 0x3DFD JUMP JUMPDEST DUP1 ISZERO PUSH2 0x175B JUMPI DUP1 PUSH1 0x1F LT PUSH2 0x1730 JUMPI PUSH2 0x100 DUP1 DUP4 SLOAD DIV MUL DUP4 MSTORE SWAP2 PUSH1 0x20 ADD SWAP2 PUSH2 0x175B JUMP JUMPDEST DUP3 ADD SWAP2 SWAP1 PUSH1 0x0 MSTORE PUSH1 0x20 PUSH1 0x0 KECCAK256 SWAP1 JUMPDEST DUP2 SLOAD DUP2 MSTORE SWAP1 PUSH1 0x1 ADD SWAP1 PUSH1 0x20 ADD DUP1 DUP4 GT PUSH2 0x173E JUMPI DUP3 SWAP1 SUB PUSH1 0x1F AND DUP3 ADD SWAP2 JUMPDEST POP POP POP POP POP SWAP1 DUP1 PUSH1 0x2 ADD SLOAD SWAP1 POP DUP4 JUMP JUMPDEST PUSH1 0xA SLOAD DUP2 JUMP JUMPDEST PUSH1 0x60 PUSH1 0x0 PUSH1 0xA SLOAD PUSH8 0xFFFFFFFFFFFFFFFF DUP2 GT ISZERO PUSH2 0x1791 JUMPI PUSH2 0x1790 PUSH2 0x33BB JUMP JUMPDEST JUMPDEST PUSH1 0x40 MLOAD SWAP1 DUP1 DUP3 MSTORE DUP1 PUSH1 0x20 MUL PUSH1 0x20 ADD DUP3 ADD PUSH1 0x40 MSTORE DUP1 ISZERO PUSH2 0x17C4 JUMPI DUP2 PUSH1 0x20 ADD JUMPDEST PUSH1 0x60 DUP2 MSTORE PUSH1 0x20 ADD SWAP1 PUSH1 0x1 SWAP1 SUB SWAP1 DUP2 PUSH2 0x17AF JUMPI SWAP1 POP JUMPDEST POP SWAP1 POP PUSH1 0x0 DUP1 PUSH1 0x0 SWAP1 POP JUMPDEST PUSH1 0xA SLOAD DUP2 LT ISZERO PUSH2 0x18F7 JUMPI DUP6 PUSH1 0x11 PUSH1 0x0 DUP4 DUP2 MSTORE PUSH1 0x20 ADD SWAP1 DUP2 MSTORE PUSH1 0x20 ADD PUSH1 0x0 KECCAK256 PUSH1 0x0 ADD SLOAD EQ DUP1 ISZERO PUSH2 0x1813 JUMPI POP DUP5 PUSH1 0x11 PUSH1 0x0 DUP4 DUP2 MSTORE PUSH1 0x20 ADD SWAP1 DUP2 MSTORE PUSH1 0x20 ADD PUSH1 0x0 KECCAK256 PUSH1 0x1 ADD SLOAD EQ JUMPDEST ISZERO PUSH2 0x18D6 JUMPI PUSH1 0x11 PUSH1 0x0 DUP3 DUP2 MSTORE PUSH1 0x20 ADD SWAP1 DUP2 MSTORE PUSH1 0x20 ADD PUSH1 0x0 KECCAK256 PUSH1 0x2 ADD DUP1 SLOAD PUSH2 0x1839 SWAP1 PUSH2 0x3DFD JUMP JUMPDEST DUP1 PUSH1 0x1F ADD PUSH1 0x20 DUP1 SWAP2 DIV MUL PUSH1 0x20 ADD PUSH1 0x40 MLOAD SWAP1 DUP2 ADD PUSH1 0x40 MSTORE DUP1 SWAP3 SWAP2 SWAP1 DUP2 DUP2 MSTORE PUSH1 0x20 ADD DUP3 DUP1 SLOAD PUSH2 0x1865 SWAP1 PUSH2 0x3DFD JUMP JUMPDEST DUP1 ISZERO PUSH2 0x18B2 JUMPI DUP1 PUSH1 0x1F LT PUSH2 0x1887 JUMPI PUSH2 0x100 DUP1 DUP4 SLOAD DIV MUL DUP4 MSTORE SWAP2 PUSH1 0x20 ADD SWAP2 PUSH2 0x18B2 JUMP JUMPDEST DUP3 ADD SWAP2 SWAP1 PUSH1 0x0 MSTORE PUSH1 0x20 PUSH1 0x0 KECCAK256 SWAP1 JUMPDEST DUP2 SLOAD DUP2 MSTORE SWAP1 PUSH1 0x1 ADD SWAP1 PUSH1 0x20 ADD DUP1 DUP4 GT PUSH2 0x1895 JUMPI DUP3 SWAP1 SUB PUSH1 0x1F AND DUP3 ADD SWAP2 JUMPDEST POP POP POP POP POP DUP4 DUP4 DUP2 MLOAD DUP2 LT PUSH2 0x18CA JUMPI PUSH2 0x18C9 PUSH2 0x3E2E JUMP JUMPDEST JUMPDEST PUSH1 0x20 MUL PUSH1 0x20 ADD ADD DUP2 SWAP1 MSTORE POP JUMPDEST DUP2 DUP1 PUSH2 0x18E1 SWAP1 PUSH2 0x3E5D JUMP JUMPDEST SWAP3 POP POP DUP1 DUP1 PUSH2 0x18EF SWAP1 PUSH2 0x3E5D JUMP JUMPDEST SWAP2 POP POP PUSH2 0x17CF JUMP JUMPDEST POP DUP2 SWAP3 POP POP POP SWAP3 SWAP2 POP POP JUMP JUMPDEST PUSH1 0x0 DUP1 PUSH1 0x0 PUSH2 0x800 PUSH20 0xFFFFFFFFFFFFFFFFFFFFFFFFFFFFFFFFFFFFFFFF AND PUSH4 0x241774E6 ADDRESS PUSH1 0x4 PUSH1 0x40 MLOAD DUP4 PUSH4 0xFFFFFFFF AND PUSH1 0xE0 SHL DUP2 MSTORE PUSH1 0x4 ADD PUSH2 0x1946 SWAP3 SWAP2 SWAP1 PUSH2 0x42DD JUMP JUMPDEST PUSH1 0x0 PUSH1 0x40 MLOAD DUP1 DUP4 SUB DUP2 DUP7 GAS STATICCALL ISZERO DUP1 ISZERO PUSH2 0x1963 JUMPI RETURNDATASIZE PUSH1 0x0 DUP1 RETURNDATACOPY RETURNDATASIZE PUSH1 0x0 REVERT JUMPDEST POP POP POP POP PUSH1 0x40 MLOAD RETURNDATASIZE PUSH1 0x0 DUP3 RETURNDATACOPY RETURNDATASIZE PUSH1 0x1F NOT PUSH1 0x1F DUP3 ADD AND DUP3 ADD DUP1 PUSH1 0x40 MSTORE POP DUP2 ADD SWAP1 PUSH2 0x198C SWAP2 SWAP1 PUSH2 0x45B8 JUMP JUMPDEST SWAP2 POP SWAP2 POP DUP1 PUSH1 0x20 ADD MLOAD SWAP3 POP POP POP SWAP1 JUMP JUMPDEST PUSH1 0x60 PUSH1 0xD PUSH1 0x0 DUP4 DUP2 MSTORE PUSH1 0x20 ADD SWAP1 DUP2 MSTORE PUSH1 0x20 ADD PUSH1 0x0 KECCAK256 PUSH1 0x1 ADD DUP1 SLOAD PUSH2 0x19BF SWAP1 PUSH2 0x3DFD JUMP JUMPDEST DUP1 PUSH1 0x1F ADD PUSH1 0x20 DUP1 SWAP2 DIV MUL PUSH1 0x20 ADD PUSH1 0x40 MLOAD SWAP1 DUP2 ADD PUSH1 0x40 MSTORE DUP1 SWAP3 SWAP2 SWAP1 DUP2 DUP2 MSTORE PUSH1 0x20 ADD DUP3 DUP1 SLOAD PUSH2 0x19EB SWAP1 PUSH2 0x3DFD JUMP JUMPDEST DUP1 ISZERO PUSH2 0x1A38 JUMPI DUP1 PUSH1 0x1F LT PUSH2 0x1A0D JUMPI PUSH2 0x100 DUP1 DUP4 SLOAD DIV MUL DUP4 MSTORE SWAP2 PUSH1 0x20 ADD SWAP2 PUSH2 0x1A38 JUMP JUMPDEST DUP3 ADD SWAP2 SWAP1 PUSH1 0x0 MSTORE PUSH1 0x20 PUSH1 0x0 KECCAK256 SWAP1 JUMPDEST DUP2 SLOAD DUP2 MSTORE SWAP1 PUSH1 0x1 ADD SWAP1 PUSH1 0x20 ADD DUP1 DUP4 GT PUSH2 0x1A1B JUMPI DUP3 SWAP1 SUB PUSH1 0x1F AND DUP3 ADD SWAP2 JUMPDEST POP POP POP POP POP SWAP1 POP SWAP2 SWAP1 POP JUMP JUMPDEST PUSH1 0x0 PUSH1 0x40 MLOAD DUP1 PUSH1 0x60 ADD PUSH1 0x40 MSTORE DUP1 PUSH1 0xC SLOAD DUP2 MSTORE PUSH1 0x20 ADD DUP5 DUP2 MSTORE PUSH1 0x20 ADD DUP4 DUP2 MSTORE POP PUSH1 0x13 PUSH1 0x0 PUSH1 0xC SLOAD DUP2 MSTORE PUSH1 0x20 ADD SWAP1 DUP2 MSTORE PUSH1 0x20 ADD PUSH1 0x0 KECCAK256 PUSH1 0x0 DUP3 ADD MLOAD DUP2 PUSH1 0x0 ADD SSTORE PUSH1 0x20 DUP3 ADD MLOAD DUP2 PUSH1 0x1 ADD SSTORE PUSH1 0x40 DUP3 ADD MLOAD DUP2 PUSH1 0x2 ADD SWAP1 DUP2 PUSH2 0x1AA1 SWAP2 SWAP1 PUSH2 0x4146 JUMP JUMPDEST POP SWAP1 POP POP PUSH1 0xC PUSH1 0x0 DUP2 SLOAD DUP1 SWAP3 SWAP2 SWAP1 PUSH2 0x1AB8 SWAP1 PUSH2 0x3E5D JUMP JUMPDEST SWAP2 SWAP1 POP SSTORE POP PUSH1 0xC SLOAD SWAP1 POP SWAP3 SWAP2 POP POP JUMP JUMPDEST PUSH1 0x0 SELFBALANCE SWAP1 POP SWAP1 JUMP JUMPDEST PUSH1 0x0 PUSH1 0x40 MLOAD DUP1 PUSH1 0x40 ADD PUSH1 0x40 MSTORE DUP1 DUP4 DUP2 MSTORE PUSH1 0x20 ADD DUP5 DUP2 MSTORE POP PUSH1 0xE PUSH1 0x0 PUSH1 0x7 SLOAD DUP2 MSTORE PUSH1 0x20 ADD SWAP1 DUP2 MSTORE PUSH1 0x20 ADD PUSH1 0x0 KECCAK256 PUSH1 0x0 DUP3 ADD MLOAD DUP2 PUSH1 0x0 ADD SSTORE PUSH1 0x20 DUP3 ADD MLOAD DUP2 PUSH1 0x1 ADD SWAP1 DUP2 PUSH2 0x1B1B SWAP2 SWAP1 PUSH2 0x4146 JUMP JUMPDEST POP SWAP1 POP POP PUSH1 0x7 PUSH1 0x0 DUP2 SLOAD DUP1 SWAP3 SWAP2 SWAP1 PUSH2 0x1B32 SWAP1 PUSH2 0x3E5D JUMP JUMPDEST SWAP2 SWAP1 POP SSTORE POP PUSH1 0x7 SLOAD SWAP1 POP SWAP3 SWAP2 POP POP JUMP JUMPDEST PUSH1 0x5 PUSH1 0x20 MSTORE DUP1 PUSH1 0x0 MSTORE PUSH1 0x40 PUSH1 0x0 KECCAK256 PUSH1 0x0 SWAP2 POP SWAP1 POP DUP1 PUSH1 0x0 ADD PUSH1 0x0 SWAP1 SLOAD SWAP1 PUSH2 0x100 EXP SWAP1 DIV PUSH1 0x7 SIGNEXTEND SWAP1 DUP1 PUSH1 0x1 ADD SLOAD SWAP1 POP DUP3 JUMP JUMPDEST PUSH1 0x6 SLOAD DUP2 JUMP JUMPDEST PUSH1 0xE PUSH1 0x20 MSTORE DUP1 PUSH1 0x0 MSTORE PUSH1 0x40 PUSH1 0x0 KECCAK256 PUSH1 0x0 SWAP2 POP SWAP1 POP DUP1 PUSH1 0x0 ADD SLOAD SWAP1 DUP1 PUSH1 0x1 ADD DUP1 SLOAD PUSH2 0x1BA2 SWAP1 PUSH2 0x3DFD JUMP JUMPDEST DUP1 PUSH1 0x1F ADD PUSH1 0x20 DUP1 SWAP2 DIV MUL PUSH1 0x20 ADD PUSH1 0x40 MLOAD SWAP1 DUP2 ADD PUSH1 0x40 MSTORE DUP1 SWAP3 SWAP2 SWAP1 DUP2 DUP2 MSTORE PUSH1 0x20 ADD DUP3 DUP1 SLOAD PUSH2 0x1BCE SWAP1 PUSH2 0x3DFD JUMP JUMPDEST DUP1 ISZERO PUSH2 0x1C1B JUMPI DUP1 PUSH1 0x1F LT PUSH2 0x1BF0 JUMPI PUSH2 0x100 DUP1 DUP4 SLOAD DIV MUL DUP4 MSTORE SWAP2 PUSH1 0x20 ADD SWAP2 PUSH2 0x1C1B JUMP JUMPDEST DUP3 ADD SWAP2 SWAP1 PUSH1 0x0 MSTORE PUSH1 0x20 PUSH1 0x0 KECCAK256 SWAP1 JUMPDEST DUP2 SLOAD DUP2 MSTORE SWAP1 PUSH1 0x1 ADD SWAP1 PUSH1 0x20 ADD DUP1 DUP4 GT PUSH2 0x1BFE JUMPI DUP3 SWAP1 SUB PUSH1 0x1F AND DUP3 ADD SWAP2 JUMPDEST POP POP POP POP POP SWAP1 POP DUP3 JUMP JUMPDEST PUSH1 0x60 PUSH1 0x0 PUSH1 0xB SLOAD PUSH8 0xFFFFFFFFFFFFFFFF DUP2 GT ISZERO PUSH2 0x1C45 JUMPI PUSH2 0x1C44 PUSH2 0x33BB JUMP JUMPDEST JUMPDEST PUSH1 0x40 MLOAD SWAP1 DUP1 DUP3 MSTORE DUP1 PUSH1 0x20 MUL PUSH1 0x20 ADD DUP3 ADD PUSH1 0x40 MSTORE DUP1 ISZERO PUSH2 0x1C73 JUMPI DUP2 PUSH1 0x20 ADD PUSH1 0x20 DUP3 MUL DUP1 CALLDATASIZE DUP4 CALLDATACOPY DUP1 DUP3 ADD SWAP2 POP POP SWAP1 POP JUMPDEST POP SWAP1 POP PUSH1 0x0 DUP1 PUSH1 0x0 SWAP1 POP JUMPDEST PUSH1 0xB SLOAD DUP2 LT ISZERO PUSH2 0x1CFD JUMPI DUP5 PUSH1 0x12 PUSH1 0x0 DUP4 DUP2 MSTORE PUSH1 0x20 ADD SWAP1 DUP2 MSTORE PUSH1 0x20 ADD PUSH1 0x0 KECCAK256 PUSH1 0x1 ADD SLOAD SUB PUSH2 0x1CEA JUMPI PUSH1 0x12 PUSH1 0x0 DUP3 DUP2 MSTORE PUSH1 0x20 ADD SWAP1 DUP2 MSTORE PUSH1 0x20 ADD PUSH1 0x0 KECCAK256 PUSH1 0x0 ADD SLOAD DUP4 DUP4 DUP2 MLOAD DUP2 LT PUSH2 0x1CCF JUMPI PUSH2 0x1CCE PUSH2 0x3E2E JUMP JUMPDEST JUMPDEST PUSH1 0x20 MUL PUSH1 0x20 ADD ADD DUP2 DUP2 MSTORE POP POP DUP2 DUP1 PUSH2 0x1CE6 SWAP1 PUSH2 0x3E5D JUMP JUMPDEST SWAP3 POP POP JUMPDEST DUP1 DUP1 PUSH2 0x1CF5 SWAP1 PUSH2 0x3E5D JUMP JUMPDEST SWAP2 POP POP PUSH2 0x1C7E JUMP JUMPDEST POP DUP2 SWAP3 POP POP POP SWAP2 SWAP1 POP JUMP JUMPDEST PUSH1 0x60 PUSH1 0x0 PUSH1 0xC SLOAD PUSH8 0xFFFFFFFFFFFFFFFF DUP2 GT ISZERO PUSH2 0x1D28 JUMPI PUSH2 0x1D27 PUSH2 0x33BB JUMP JUMPDEST JUMPDEST PUSH1 0x40 MLOAD SWAP1 DUP1 DUP3 MSTORE DUP1 PUSH1 0x20 MUL PUSH1 0x20 ADD DUP3 ADD PUSH1 0x40 MSTORE DUP1 ISZERO PUSH2 0x1D56 JUMPI DUP2 PUSH1 0x20 ADD PUSH1 0x20 DUP3 MUL DUP1 CALLDATASIZE DUP4 CALLDATACOPY DUP1 DUP3 ADD SWAP2 POP POP SWAP1 POP JUMPDEST POP SWAP1 POP PUSH1 0x0 DUP1 PUSH1 0x0 SWAP1 POP JUMPDEST PUSH1 0xC SLOAD DUP2 LT ISZERO PUSH2 0x1DE0 JUMPI DUP5 PUSH1 0x13 PUSH1 0x0 DUP4 DUP2 MSTORE PUSH1 0x20 ADD SWAP1 DUP2 MSTORE PUSH1 0x20 ADD PUSH1 0x0 KECCAK256 PUSH1 0x1 ADD SLOAD SUB PUSH2 0x1DCD JUMPI PUSH1 0x13 PUSH1 0x0 DUP3 DUP2 MSTORE PUSH1 0x20 ADD SWAP1 DUP2 MSTORE PUSH1 0x20 ADD PUSH1 0x0 KECCAK256 PUSH1 0x0 ADD SLOAD DUP4 DUP4 DUP2 MLOAD DUP2 LT PUSH2 0x1DB2 JUMPI PUSH2 0x1DB1 PUSH2 0x3E2E JUMP JUMPDEST JUMPDEST PUSH1 0x20 MUL PUSH1 0x20 ADD ADD DUP2 DUP2 MSTORE POP POP DUP2 DUP1 PUSH2 0x1DC9 SWAP1 PUSH2 0x3E5D JUMP JUMPDEST SWAP3 POP POP JUMPDEST DUP1 DUP1 PUSH2 0x1DD8 SWAP1 PUSH2 0x3E5D JUMP JUMPDEST SWAP2 POP POP PUSH2 0x1D61 JUMP JUMPDEST POP DUP2 SWAP3 POP POP POP SWAP2 SWAP1 POP JUMP JUMPDEST PUSH1 0x0 PUSH1 0x40 MLOAD DUP1 PUSH1 0x60 ADD PUSH1 0x40 MSTORE DUP1 DUP6 DUP2 MSTORE PUSH1 0x20 ADD DUP5 DUP2 MSTORE PUSH1 0x20 ADD DUP4 DUP2 MSTORE POP PUSH1 0x11 PUSH1 0x0 PUSH1 0xA SLOAD DUP2 MSTORE PUSH1 0x20 ADD SWAP1 DUP2 MSTORE PUSH1 0x20 ADD PUSH1 0x0 KECCAK256 PUSH1 0x0 DUP3 ADD MLOAD DUP2 PUSH1 0x0 ADD SSTORE PUSH1 0x20 DUP3 ADD MLOAD DUP2 PUSH1 0x1 ADD SSTORE PUSH1 0x40 DUP3 ADD MLOAD DUP2 PUSH1 0x2 ADD SWAP1 DUP2 PUSH2 0x1E46 SWAP2 SWAP1 PUSH2 0x4146 JUMP JUMPDEST POP SWAP1 POP POP PUSH1 0xA PUSH1 0x0 DUP2 SLOAD DUP1 SWAP3 SWAP2 SWAP1 PUSH2 0x1E5D SWAP1 PUSH2 0x3E5D JUMP JUMPDEST SWAP2 SWAP1 POP SSTORE POP PUSH1 0xA SLOAD SWAP1 POP SWAP4 SWAP3 POP POP POP JUMP JUMPDEST DUP2 PUSH1 0xD PUSH1 0x0 DUP6 DUP2 MSTORE PUSH1 0x20 ADD SWAP1 DUP2 MSTORE PUSH1 0x20 ADD PUSH1 0x0 KECCAK256 PUSH1 0x0 ADD SWAP1 DUP2 PUSH2 0x1E91 SWAP2 SWAP1 PUSH2 0x4146 JUMP JUMPDEST POP DUP1 PUSH1 0xD PUSH1 0x0 DUP6 DUP2 MSTORE PUSH1 0x20 ADD SWAP1 DUP2 MSTORE PUSH1 0x20 ADD PUSH1 0x0 KECCAK256 PUSH1 0x1 ADD SWAP1 DUP2 PUSH2 0x1EB5 SWAP2 SWAP1 PUSH2 0x4146 JUMP JUMPDEST POP POP POP POP JUMP JUMPDEST PUSH1 0x60 PUSH1 0xF PUSH1 0x0 DUP4 DUP2 MSTORE PUSH1 0x20 ADD SWAP1 DUP2 MSTORE PUSH1 0x20 ADD PUSH1 0x0 KECCAK256 PUSH1 0x1 ADD DUP1 SLOAD PUSH2 0x1EDE SWAP1 PUSH2 0x3DFD JUMP JUMPDEST DUP1 PUSH1 0x1F ADD PUSH1 0x20 DUP1 SWAP2 DIV MUL PUSH1 0x20 ADD PUSH1 0x40 MLOAD SWAP1 DUP2 ADD PUSH1 0x40 MSTORE DUP1 SWAP3 SWAP2 SWAP1 DUP2 DUP2 MSTORE PUSH1 0x20 ADD DUP3 DUP1 SLOAD PUSH2 0x1F0A SWAP1 PUSH2 0x3DFD JUMP JUMPDEST DUP1 ISZERO PUSH2 0x1F57 JUMPI DUP1 PUSH1 0x1F LT PUSH2 0x1F2C JUMPI PUSH2 0x100 DUP1 DUP4 SLOAD DIV MUL DUP4 MSTORE SWAP2 PUSH1 0x20 ADD SWAP2 PUSH2 0x1F57 JUMP JUMPDEST DUP3 ADD SWAP2 SWAP1 PUSH1 0x0 MSTORE PUSH1 0x20 PUSH1 0x0 KECCAK256 SWAP1 JUMPDEST DUP2 SLOAD DUP2 MSTORE SWAP1 PUSH1 0x1 ADD SWAP1 PUSH1 0x20 ADD DUP1 DUP4 GT PUSH2 0x1F3A JUMPI DUP3 SWAP1 SUB PUSH1 0x1F AND DUP3 ADD SWAP2 JUMPDEST POP POP POP POP POP SWAP1 POP SWAP2 SWAP1 POP JUMP JUMPDEST PUSH1 0xB SLOAD DUP2 JUMP JUMPDEST PUSH1 0x60 PUSH2 0x1F73 PUSH2 0x2916 JUMP JUMPDEST PUSH1 0x0 PUSH1 0x5 PUSH1 0x0 DUP5 DUP2 MSTORE PUSH1 0x20 ADD SWAP1 DUP2 MSTORE PUSH1 0x20 ADD PUSH1 0x0 KECCAK256 PUSH1 0x0 ADD PUSH1 0x0 SWAP1 SLOAD SWAP1 PUSH2 0x100 EXP SWAP1 DIV PUSH1 0x7 SIGNEXTEND PUSH1 0x7 SIGNEXTEND SWAP1 POP DUP1 TIMESTAMP LT ISZERO PUSH2 0x1FE1 JUMPI PUSH1 0x40 MLOAD PUSH32 0x8C379A000000000000000000000000000000000000000000000000000000000 DUP2 MSTORE PUSH1 0x4 ADD PUSH2 0x1FD8 SWAP1 PUSH2 0x4660 JUMP JUMPDEST PUSH1 0x40 MLOAD DUP1 SWAP2 SUB SWAP1 REVERT JUMPDEST PUSH1 0x0 PUSH1 0x5 PUSH1 0x0 DUP6 DUP2 MSTORE PUSH1 0x20 ADD SWAP1 DUP2 MSTORE PUSH1 0x20 ADD PUSH1 0x0 KECCAK256 PUSH1 0x1 ADD SLOAD SWAP1 POP PUSH1 0x0 CALLER PUSH20 0xFFFFFFFFFFFFFFFFFFFFFFFFFFFFFFFFFFFFFFFF AND DUP3 PUSH1 0x40 MLOAD PUSH2 0x2022 SWAP1 PUSH2 0x3ED6 JUMP JUMPDEST PUSH1 0x0 PUSH1 0x40 MLOAD DUP1 DUP4 SUB DUP2 DUP6 DUP8 GAS CALL SWAP3 POP POP POP RETURNDATASIZE DUP1 PUSH1 0x0 DUP2 EQ PUSH2 0x205F JUMPI PUSH1 0x40 MLOAD SWAP2 POP PUSH1 0x1F NOT PUSH1 0x3F RETURNDATASIZE ADD AND DUP3 ADD PUSH1 0x40 MSTORE RETURNDATASIZE DUP3 MSTORE RETURNDATASIZE PUSH1 0x0 PUSH1 0x20 DUP5 ADD RETURNDATACOPY PUSH2 0x2064 JUMP JUMPDEST PUSH1 0x60 SWAP2 POP JUMPDEST POP POP SWAP1 POP PUSH1 0x40 MLOAD DUP1 PUSH1 0x60 ADD PUSH1 0x40 MSTORE DUP1 PUSH1 0x21 DUP2 MSTORE PUSH1 0x20 ADD PUSH2 0x4CD0 PUSH1 0x21 SWAP2 CODECOPY SWAP4 POP POP POP POP SWAP2 SWAP1 POP JUMP JUMPDEST PUSH1 0x60 PUSH1 0x0 PUSH1 0x8 SLOAD PUSH8 0xFFFFFFFFFFFFFFFF DUP2 GT ISZERO PUSH2 0x20AB JUMPI PUSH2 0x20AA PUSH2 0x33BB JUMP JUMPDEST JUMPDEST PUSH1 0x40 MLOAD SWAP1 DUP1 DUP3 MSTORE DUP1 PUSH1 0x20 MUL PUSH1 0x20 ADD DUP3 ADD PUSH1 0x40 MSTORE DUP1 ISZERO PUSH2 0x20DE JUMPI DUP2 PUSH1 0x20 ADD JUMPDEST PUSH1 0x60 DUP2 MSTORE PUSH1 0x20 ADD SWAP1 PUSH1 0x1 SWAP1 SUB SWAP1 DUP2 PUSH2 0x20C9 JUMPI SWAP1 POP JUMPDEST POP SWAP1 POP PUSH1 0x0 JUMPDEST PUSH1 0x8 SLOAD DUP2 LT ISZERO PUSH2 0x21BE JUMPI PUSH1 0xF PUSH1 0x0 DUP3 DUP2 MSTORE PUSH1 0x20 ADD SWAP1 DUP2 MSTORE PUSH1 0x20 ADD PUSH1 0x0 KECCAK256 PUSH1 0x1 ADD DUP1 SLOAD PUSH2 0x210F SWAP1 PUSH2 0x3DFD JUMP JUMPDEST DUP1 PUSH1 0x1F ADD PUSH1 0x20 DUP1 SWAP2 DIV MUL PUSH1 0x20 ADD PUSH1 0x40 MLOAD SWAP1 DUP2 ADD PUSH1 0x40 MSTORE DUP1 SWAP3 SWAP2 SWAP1 DUP2 DUP2 MSTORE PUSH1 0x20 ADD DUP3 DUP1 SLOAD PUSH2 0x213B SWAP1 PUSH2 0x3DFD JUMP JUMPDEST DUP1 ISZERO PUSH2 0x2188 JUMPI DUP1 PUSH1 0x1F LT PUSH2 0x215D JUMPI PUSH2 0x100 DUP1 DUP4 SLOAD DIV MUL DUP4 MSTORE SWAP2 PUSH1 0x20 ADD SWAP2 PUSH2 0x2188 JUMP JUMPDEST DUP3 ADD SWAP2 SWAP1 PUSH1 0x0 MSTORE PUSH1 0x20 PUSH1 0x0 KECCAK256 SWAP1 JUMPDEST DUP2 SLOAD DUP2 MSTORE SWAP1 PUSH1 0x1 ADD SWAP1 PUSH1 0x20 ADD DUP1 DUP4 GT PUSH2 0x216B JUMPI DUP3 SWAP1 SUB PUSH1 0x1F AND DUP3 ADD SWAP2 JUMPDEST POP POP POP POP POP DUP3 DUP3 DUP2 MLOAD DUP2 LT PUSH2 0x21A0 JUMPI PUSH2 0x219F PUSH2 0x3E2E JUMP JUMPDEST JUMPDEST PUSH1 0x20 MUL PUSH1 0x20 ADD ADD DUP2 SWAP1 MSTORE POP DUP1 DUP1 PUSH2 0x21B6 SWAP1 PUSH2 0x3E5D JUMP JUMPDEST SWAP2 POP POP PUSH2 0x20E4 JUMP JUMPDEST POP DUP1 SWAP2 POP POP SWAP1 JUMP JUMPDEST PUSH1 0x0 PUSH2 0x21D0 PUSH2 0x2916 JUMP JUMPDEST PUSH1 0x0 PUSH2 0x801 PUSH20 0xFFFFFFFFFFFFFFFFFFFFFFFFFFFFFFFFFFFFFFFF AND PUSH4 0xB46A8D61 ADDRESS PUSH1 0x4 PUSH1 0x40 MLOAD DUP4 PUSH4 0xFFFFFFFF AND PUSH1 0xE0 SHL DUP2 MSTORE PUSH1 0x4 ADD PUSH2 0x2210 SWAP3 SWAP2 SWAP1 PUSH2 0x42DD JUMP JUMPDEST PUSH1 0x0 PUSH1 0x40 MLOAD DUP1 DUP4 SUB DUP2 PUSH1 0x0 DUP8 GAS CALL ISZERO DUP1 ISZERO PUSH2 0x222F JUMPI RETURNDATASIZE PUSH1 0x0 DUP1 RETURNDATACOPY RETURNDATASIZE PUSH1 0x0 REVERT JUMPDEST POP POP POP POP PUSH1 0x40 MLOAD RETURNDATASIZE PUSH1 0x0 DUP3 RETURNDATACOPY RETURNDATASIZE PUSH1 0x1F NOT PUSH1 0x1F DUP3 ADD AND DUP3 ADD DUP1 PUSH1 0x40 MSTORE POP DUP2 ADD SWAP1 PUSH2 0x2258 SWAP2 SWAP1 PUSH2 0x4761 JUMP JUMPDEST SWAP1 POP PUSH1 0x0 PUSH1 0x2 PUSH1 0x0 DUP6 DUP2 MSTORE PUSH1 0x20 ADD SWAP1 DUP2 MSTORE PUSH1 0x20 ADD PUSH1 0x0 KECCAK256 SLOAD SWAP1 POP PUSH1 0x0 PUSH2 0x800 PUSH20 0xFFFFFFFFFFFFFFFFFFFFFFFFFFFFFFFFFFFFFFFF AND PUSH4 0x3EDAB33C ADDRESS PUSH1 0x4 DUP6 PUSH1 0x40 MLOAD DUP5 PUSH4 0xFFFFFFFF AND PUSH1 0xE0 SHL DUP2 MSTORE PUSH1 0x4 ADD PUSH2 0x22B4 SWAP4 SWAP3 SWAP2 SWAP1 PUSH2 0x47AA JUMP JUMPDEST PUSH1 0x20 PUSH1 0x40 MLOAD DUP1 DUP4 SUB DUP2 PUSH1 0x0 DUP8 GAS CALL ISZERO DUP1 ISZERO PUSH2 0x22D3 JUMPI RETURNDATASIZE PUSH1 0x0 DUP1 RETURNDATACOPY RETURNDATASIZE PUSH1 0x0 REVERT JUMPDEST POP POP POP POP PUSH1 0x40 MLOAD RETURNDATASIZE PUSH1 0x1F NOT PUSH1 0x1F DUP3 ADD AND DUP3 ADD DUP1 PUSH1 0x40 MSTORE POP DUP2 ADD SWAP1 PUSH2 0x22F7 SWAP2 SWAP1 PUSH2 0x47E8 JUMP JUMPDEST SWAP1 POP PUSH1 0x40 MLOAD DUP1 PUSH1 0x40 ADD PUSH1 0x40 MSTORE DUP1 DUP3 PUSH1 0x7 SIGNEXTEND DUP2 MSTORE PUSH1 0x20 ADD DUP4 PUSH1 0x5 PUSH1 0x0 DUP10 DUP2 MSTORE PUSH1 0x20 ADD SWAP1 DUP2 MSTORE PUSH1 0x20 ADD PUSH1 0x0 KECCAK256 PUSH1 0x1 ADD SLOAD PUSH2 0x232F SWAP2 SWAP1 PUSH2 0x3D9A JUMP JUMPDEST DUP2 MSTORE POP PUSH1 0x5 PUSH1 0x0 DUP8 DUP2 MSTORE PUSH1 0x20 ADD SWAP1 DUP2 MSTORE PUSH1 0x20 ADD PUSH1 0x0 KECCAK256 PUSH1 0x0 DUP3 ADD MLOAD DUP2 PUSH1 0x0 ADD PUSH1 0x0 PUSH2 0x100 EXP DUP2 SLOAD DUP2 PUSH8 0xFFFFFFFFFFFFFFFF MUL NOT AND SWAP1 DUP4 PUSH1 0x7 SIGNEXTEND PUSH8 0xFFFFFFFFFFFFFFFF AND MUL OR SWAP1 SSTORE POP PUSH1 0x20 DUP3 ADD MLOAD DUP2 PUSH1 0x1 ADD SSTORE SWAP1 POP POP PUSH1 0x0 DUP4 PUSH1 0x0 DUP2 MLOAD DUP2 LT PUSH2 0x239A JUMPI PUSH2 0x2399 PUSH2 0x3E2E JUMP JUMPDEST JUMPDEST PUSH1 0x20 MUL PUSH1 0x20 ADD ADD MLOAD PUSH1 0x20 ADD MLOAD SWAP1 POP PUSH1 0x0 CALLER PUSH20 0xFFFFFFFFFFFFFFFFFFFFFFFFFFFFFFFFFFFFFFFF AND DUP3 PUSH1 0x40 MLOAD PUSH2 0x23CE SWAP1 PUSH2 0x3ED6 JUMP JUMPDEST PUSH1 0x0 PUSH1 0x40 MLOAD DUP1 DUP4 SUB DUP2 DUP6 DUP8 GAS CALL SWAP3 POP POP POP RETURNDATASIZE DUP1 PUSH1 0x0 DUP2 EQ PUSH2 0x240B JUMPI PUSH1 0x40 MLOAD SWAP2 POP PUSH1 0x1F NOT PUSH1 0x3F RETURNDATASIZE ADD AND DUP3 ADD PUSH1 0x40 MSTORE RETURNDATASIZE DUP3 MSTORE RETURNDATASIZE PUSH1 0x0 PUSH1 0x20 DUP5 ADD RETURNDATACOPY PUSH2 0x2410 JUMP JUMPDEST PUSH1 0x60 SWAP2 POP JUMPDEST POP POP SWAP1 POP PUSH1 0x0 PUSH1 0x2 PUSH1 0x0 DUP10 DUP2 MSTORE PUSH1 0x20 ADD SWAP1 DUP2 MSTORE PUSH1 0x20 ADD PUSH1 0x0 KECCAK256 DUP2 SWAP1 SSTORE POP DUP3 SWAP6 POP POP POP POP POP POP SWAP2 SWAP1 POP JUMP JUMPDEST PUSH1 0x0 DUP1 PUSH1 0x0 SWAP1 POP JUMPDEST PUSH1 0x8 SLOAD DUP2 LT ISZERO PUSH2 0x24A0 JUMPI DUP3 DUP1 MLOAD SWAP1 PUSH1 0x20 ADD KECCAK256 PUSH1 0xF PUSH1 0x0 DUP4 DUP2 MSTORE PUSH1 0x20 ADD SWAP1 DUP2 MSTORE PUSH1 0x20 ADD PUSH1 0x0 KECCAK256 PUSH1 0x1 ADD PUSH1 0x40 MLOAD PUSH2 0x2477 SWAP2 SWAP1 PUSH2 0x3F83 JUMP JUMPDEST PUSH1 0x40 MLOAD DUP1 SWAP2 SUB SWAP1 KECCAK256 SUB PUSH2 0x248D JUMPI DUP1 SWAP2 POP POP PUSH2 0x24A6 JUMP JUMPDEST DUP1 DUP1 PUSH2 0x2498 SWAP1 PUSH2 0x3E5D JUMP JUMPDEST SWAP2 POP POP PUSH2 0x2442 JUMP JUMPDEST POP PUSH1 0x0 SWAP1 POP JUMPDEST SWAP2 SWAP1 POP JUMP JUMPDEST DUP1 PUSH1 0xF PUSH1 0x0 DUP5 DUP2 MSTORE PUSH1 0x20 ADD SWAP1 DUP2 MSTORE PUSH1 0x20 ADD PUSH1 0x0 KECCAK256 PUSH1 0x2 ADD PUSH1 0x0 DUP3 DUP3 SLOAD PUSH2 0x24D1 SWAP2 SWAP1 PUSH2 0x3D9A JUMP JUMPDEST SWAP3 POP POP DUP2 SWAP1 SSTORE POP POP POP JUMP JUMPDEST PUSH2 0x800 PUSH20 0xFFFFFFFFFFFFFFFFFFFFFFFFFFFFFFFFFFFFFFFF AND PUSH4 0x53266BBB ADDRESS PUSH1 0x4 DUP5 PUSH1 0x40 MLOAD DUP5 PUSH4 0xFFFFFFFF AND PUSH1 0xE0 SHL DUP2 MSTORE PUSH1 0x4 ADD PUSH2 0x251C SWAP4 SWAP3 SWAP2 SWAP1 PUSH2 0x47AA JUMP JUMPDEST PUSH1 0x20 PUSH1 0x40 MLOAD DUP1 DUP4 SUB DUP2 PUSH1 0x0 DUP8 GAS CALL ISZERO DUP1 ISZERO PUSH2 0x253B JUMPI RETURNDATASIZE PUSH1 0x0 DUP1 RETURNDATACOPY RETURNDATASIZE PUSH1 0x0 REVERT JUMPDEST POP POP POP POP PUSH1 0x40 MLOAD RETURNDATASIZE PUSH1 0x1F NOT PUSH1 0x1F DUP3 ADD AND DUP3 ADD DUP1 PUSH1 0x40 MSTORE POP DUP2 ADD SWAP1 PUSH2 0x255F SWAP2 SWAP1 PUSH2 0x47E8 JUMP JUMPDEST POP POP JUMP JUMPDEST PUSH1 0xC SLOAD DUP2 JUMP JUMPDEST PUSH1 0x0 DUP1 PUSH1 0x0 SWAP1 POP JUMPDEST PUSH1 0x8 SLOAD DUP2 LT ISZERO PUSH2 0x25E5 JUMPI DUP3 DUP1 MLOAD SWAP1 PUSH1 0x20 ADD KECCAK256 PUSH1 0xF PUSH1 0x0 DUP4 DUP2 MSTORE PUSH1 0x20 ADD SWAP1 DUP2 MSTORE PUSH1 0x20 ADD PUSH1 0x0 KECCAK256 PUSH1 0x1 ADD PUSH1 0x40 MLOAD PUSH2 0x25A6 SWAP2 SWAP1 PUSH2 0x3F83 JUMP JUMPDEST PUSH1 0x40 MLOAD DUP1 SWAP2 SUB SWAP1 KECCAK256 SUB PUSH2 0x25D2 JUMPI PUSH1 0xF PUSH1 0x0 DUP3 DUP2 MSTORE PUSH1 0x20 ADD SWAP1 DUP2 MSTORE PUSH1 0x20 ADD PUSH1 0x0 KECCAK256 PUSH1 0x0 ADD SLOAD SWAP2 POP POP PUSH2 0x25EB JUMP JUMPDEST DUP1 DUP1 PUSH2 0x25DD SWAP1 PUSH2 0x3E5D JUMP JUMPDEST SWAP2 POP POP PUSH2 0x2571 JUMP JUMPDEST POP PUSH1 0x0 SWAP1 POP JUMPDEST SWAP2 SWAP1 POP JUMP JUMPDEST PUSH1 0x60 PUSH2 0x801 PUSH20 0xFFFFFFFFFFFFFFFFFFFFFFFFFFFFFFFFFFFFFFFF AND PUSH4 0x9AD563B4 ADDRESS PUSH1 0x4 PUSH1 0x40 MLOAD DUP4 PUSH4 0xFFFFFFFF AND PUSH1 0xE0 SHL DUP2 MSTORE PUSH1 0x4 ADD PUSH2 0x2630 SWAP3 SWAP2 SWAP1 PUSH2 0x42DD JUMP JUMPDEST PUSH1 0x0 PUSH1 0x40 MLOAD DUP1 DUP4 SUB DUP2 DUP7 GAS STATICCALL ISZERO DUP1 ISZERO PUSH2 0x264D JUMPI RETURNDATASIZE PUSH1 0x0 DUP1 RETURNDATACOPY RETURNDATASIZE PUSH1 0x0 REVERT JUMPDEST POP POP POP POP PUSH1 0x40 MLOAD RETURNDATASIZE PUSH1 0x0 DUP3 RETURNDATACOPY RETURNDATASIZE PUSH1 0x1F NOT PUSH1 0x1F DUP3 ADD AND DUP3 ADD DUP1 PUSH1 0x40 MSTORE POP DUP2 ADD SWAP1 PUSH2 0x2676 SWAP2 SWAP1 PUSH2 0x49A2 JUMP JUMPDEST SWAP1 POP SWAP1 JUMP JUMPDEST PUSH1 0x0 JUMPDEST PUSH1 0x6 SLOAD DUP2 LT ISZERO PUSH2 0x26E1 JUMPI PUSH1 0xD PUSH1 0x0 DUP3 DUP2 MSTORE PUSH1 0x20 ADD SWAP1 DUP2 MSTORE PUSH1 0x20 ADD PUSH1 0x0 KECCAK256 PUSH1 0x0 DUP1 DUP3 ADD PUSH1 0x0 PUSH2 0x26AC SWAP2 SWAP1 PUSH2 0x3077 JUMP JUMPDEST PUSH1 0x1 DUP3 ADD PUSH1 0x0 PUSH2 0x26BC SWAP2 SWAP1 PUSH2 0x3077 JUMP JUMPDEST PUSH1 0x2 DUP3 ADD PUSH1 0x0 PUSH2 0x26CC SWAP2 SWAP1 PUSH2 0x3077 JUMP JUMPDEST POP POP DUP1 DUP1 PUSH2 0x26D9 SWAP1 PUSH2 0x3E5D JUMP JUMPDEST SWAP2 POP POP PUSH2 0x267E JUMP JUMPDEST POP PUSH1 0x0 JUMPDEST PUSH1 0x7 SLOAD DUP2 LT ISZERO PUSH2 0x2730 JUMPI PUSH1 0xE PUSH1 0x0 DUP3 DUP2 MSTORE PUSH1 0x20 ADD SWAP1 DUP2 MSTORE PUSH1 0x20 ADD PUSH1 0x0 KECCAK256 PUSH1 0x0 DUP1 DUP3 ADD PUSH1 0x0 SWAP1 SSTORE PUSH1 0x1 DUP3 ADD PUSH1 0x0 PUSH2 0x271B SWAP2 SWAP1 PUSH2 0x3077 JUMP JUMPDEST POP POP DUP1 DUP1 PUSH2 0x2728 SWAP1 PUSH2 0x3E5D JUMP JUMPDEST SWAP2 POP POP PUSH2 0x26E5 JUMP JUMPDEST POP PUSH1 0x0 JUMPDEST PUSH1 0x8 SLOAD DUP2 LT ISZERO PUSH2 0x2787 JUMPI PUSH1 0xF PUSH1 0x0 DUP3 DUP2 MSTORE PUSH1 0x20 ADD SWAP1 DUP2 MSTORE PUSH1 0x20 ADD PUSH1 0x0 KECCAK256 PUSH1 0x0 DUP1 DUP3 ADD PUSH1 0x0 SWAP1 SSTORE PUSH1 0x1 DUP3 ADD PUSH1 0x0 PUSH2 0x276A SWAP2 SWAP1 PUSH2 0x3077 JUMP JUMPDEST PUSH1 0x2 DUP3 ADD PUSH1 0x0 SWAP1 SSTORE POP POP DUP1 DUP1 PUSH2 0x277F SWAP1 PUSH2 0x3E5D JUMP JUMPDEST SWAP2 POP POP PUSH2 0x2734 JUMP JUMPDEST POP PUSH1 0x0 JUMPDEST PUSH1 0x7 SLOAD DUP2 LT ISZERO PUSH2 0x27DE JUMPI PUSH1 0x10 PUSH1 0x0 DUP3 DUP2 MSTORE PUSH1 0x20 ADD SWAP1 DUP2 MSTORE PUSH1 0x20 ADD PUSH1 0x0 KECCAK256 PUSH1 0x0 DUP1 DUP3 ADD PUSH1 0x0 SWAP1 SSTORE PUSH1 0x1 DUP3 ADD PUSH1 0x0 SWAP1 SSTORE PUSH1 0x2 DUP3 ADD PUSH1 0x0 PUSH2 0x27C9 SWAP2 SWAP1 PUSH2 0x3077 JUMP JUMPDEST POP POP DUP1 DUP1 PUSH2 0x27D6 SWAP1 PUSH2 0x3E5D JUMP JUMPDEST SWAP2 POP POP PUSH2 0x278B JUMP JUMPDEST POP PUSH1 0x0 JUMPDEST PUSH1 0xB SLOAD DUP2 LT ISZERO PUSH2 0x2835 JUMPI PUSH1 0x12 PUSH1 0x0 DUP3 DUP2 MSTORE PUSH1 0x20 ADD SWAP1 DUP2 MSTORE PUSH1 0x20 ADD PUSH1 0x0 KECCAK256 PUSH1 0x0 DUP1 DUP3 ADD PUSH1 0x0 SWAP1 SSTORE PUSH1 0x1 DUP3 ADD PUSH1 0x0 SWAP1 SSTORE PUSH1 0x2 DUP3 ADD PUSH1 0x0 PUSH2 0x2820 SWAP2 SWAP1 PUSH2 0x3077 JUMP JUMPDEST POP POP DUP1 DUP1 PUSH2 0x282D SWAP1 PUSH2 0x3E5D JUMP JUMPDEST SWAP2 POP POP PUSH2 0x27E2 JUMP JUMPDEST POP PUSH1 0x0 JUMPDEST PUSH1 0xC SLOAD DUP2 LT ISZERO PUSH2 0x288C JUMPI PUSH1 0x13 PUSH1 0x0 DUP3 DUP2 MSTORE PUSH1 0x20 ADD SWAP1 DUP2 MSTORE PUSH1 0x20 ADD PUSH1 0x0 KECCAK256 PUSH1 0x0 DUP1 DUP3 ADD PUSH1 0x0 SWAP1 SSTORE PUSH1 0x1 DUP3 ADD PUSH1 0x0 SWAP1 SSTORE PUSH1 0x2 DUP3 ADD PUSH1 0x0 PUSH2 0x2877 SWAP2 SWAP1 PUSH2 0x3077 JUMP JUMPDEST POP POP DUP1 DUP1 PUSH2 0x2884 SWAP1 PUSH2 0x3E5D JUMP JUMPDEST SWAP2 POP POP PUSH2 0x2839 JUMP JUMPDEST POP PUSH1 0x0 JUMPDEST PUSH1 0xA SLOAD DUP2 LT ISZERO PUSH2 0x28E3 JUMPI PUSH1 0x11 PUSH1 0x0 DUP3 DUP2 MSTORE PUSH1 0x20 ADD SWAP1 DUP2 MSTORE PUSH1 0x20 ADD PUSH1 0x0 KECCAK256 PUSH1 0x0 DUP1 DUP3 ADD PUSH1 0x0 SWAP1 SSTORE PUSH1 0x1 DUP3 ADD PUSH1 0x0 SWAP1 SSTORE PUSH1 0x2 DUP3 ADD PUSH1 0x0 PUSH2 0x28CE SWAP2 SWAP1 PUSH2 0x3077 JUMP JUMPDEST POP POP DUP1 DUP1 PUSH2 0x28DB SWAP1 PUSH2 0x3E5D JUMP JUMPDEST SWAP2 POP POP PUSH2 0x2890 JUMP JUMPDEST POP PUSH1 0x0 PUSH1 0x6 DUP2 SWAP1 SSTORE POP PUSH1 0x0 PUSH1 0x7 DUP2 SWAP1 SSTORE POP PUSH1 0x0 PUSH1 0x8 DUP2 SWAP1 SSTORE POP PUSH1 0x0 PUSH1 0xB DUP2 SWAP1 SSTORE POP PUSH1 0x0 PUSH1 0xC DUP2 SWAP1 SSTORE POP PUSH1 0x0 PUSH1 0xA DUP2 SWAP1 SSTORE POP JUMP JUMPDEST PUSH1 0x0 PUSH2 0x800 PUSH20 0xFFFFFFFFFFFFFFFFFFFFFFFFFFFFFFFFFFFFFFFF AND PUSH4 0xB6039895 ORIGIN PUSH32 0xFFFFFFFFFFFFFFFFFFFFFFFFFFFFFFFFFFFFFFFFFFFFFFFFFFFFFFFFFFFFFFFF PUSH1 0x0 PUSH1 0x40 MLOAD DUP5 PUSH4 0xFFFFFFFF AND PUSH1 0xE0 SHL DUP2 MSTORE PUSH1 0x4 ADD PUSH2 0x2978 SWAP4 SWAP3 SWAP2 SWAP1 PUSH2 0x4B24 JUMP JUMPDEST PUSH1 0x20 PUSH1 0x40 MLOAD DUP1 DUP4 SUB DUP2 PUSH1 0x0 DUP8 GAS CALL ISZERO DUP1 ISZERO PUSH2 0x2997 JUMPI RETURNDATASIZE PUSH1 0x0 DUP1 RETURNDATACOPY RETURNDATASIZE PUSH1 0x0 REVERT JUMPDEST POP POP POP POP PUSH1 0x40 MLOAD RETURNDATASIZE PUSH1 0x1F NOT PUSH1 0x1F DUP3 ADD AND DUP3 ADD DUP1 PUSH1 0x40 MSTORE POP DUP2 ADD SWAP1 PUSH2 0x29BB SWAP2 SWAP1 PUSH2 0x4B9A JUMP JUMPDEST SWAP1 POP DUP1 PUSH2 0x29FD JUMPI PUSH1 0x40 MLOAD PUSH32 0x8C379A000000000000000000000000000000000000000000000000000000000 DUP2 MSTORE PUSH1 0x4 ADD PUSH2 0x29F4 SWAP1 PUSH2 0x4C13 JUMP JUMPDEST PUSH1 0x40 MLOAD DUP1 SWAP2 SUB SWAP1 REVERT JUMPDEST PUSH1 0x0 PUSH2 0x801 PUSH20 0xFFFFFFFFFFFFFFFFFFFFFFFFFFFFFFFFFFFFFFFF AND PUSH4 0x7A9841ED ORIGIN PUSH1 0x1 PUSH1 0x40 MLOAD DUP4 PUSH4 0xFFFFFFFF AND PUSH1 0xE0 SHL DUP2 MSTORE PUSH1 0x4 ADD PUSH2 0x2A3D SWAP3 SWAP2 SWAP1 PUSH2 0x4C33 JUMP JUMPDEST PUSH1 0x20 PUSH1 0x40 MLOAD DUP1 DUP4 SUB DUP2 PUSH1 0x0 DUP8 GAS CALL ISZERO DUP1 ISZERO PUSH2 0x2A5C JUMPI RETURNDATASIZE PUSH1 0x0 DUP1 RETURNDATACOPY RETURNDATASIZE PUSH1 0x0 REVERT JUMPDEST POP POP POP POP PUSH1 0x40 MLOAD RETURNDATASIZE PUSH1 0x1F NOT PUSH1 0x1F DUP3 ADD AND DUP3 ADD DUP1 PUSH1 0x40 MSTORE POP DUP2 ADD SWAP1 PUSH2 0x2A80 SWAP2 SWAP1 PUSH2 0x4B9A JUMP JUMPDEST SWAP1 POP DUP1 PUSH2 0x2AC2 JUMPI PUSH1 0x40 MLOAD PUSH32 0x8C379A000000000000000000000000000000000000000000000000000000000 DUP2 MSTORE PUSH1 0x4 ADD PUSH2 0x2AB9 SWAP1 PUSH2 0x4CAF JUMP JUMPDEST PUSH1 0x40 MLOAD DUP1 SWAP2 SUB SWAP1 REVERT JUMPDEST POP POP JUMP JUMPDEST PUSH1 0x12 PUSH1 0x20 MSTORE DUP1 PUSH1 0x0 MSTORE PUSH1 0x40 PUSH1 0x0 KECCAK256 PUSH1 0x0 SWAP2 POP SWAP1 POP DUP1 PUSH1 0x0 ADD SLOAD SWAP1 DUP1 PUSH1 0x1 ADD SLOAD SWAP1 DUP1 PUSH1 0x2 ADD DUP1 SLOAD PUSH2 0x2AF5 SWAP1 PUSH2 0x3DFD JUMP JUMPDEST DUP1 PUSH1 0x1F ADD PUSH1 0x20 DUP1 SWAP2 DIV MUL PUSH1 0x20 ADD PUSH1 0x40 MLOAD SWAP1 DUP2 ADD PUSH1 0x40 MSTORE DUP1 SWAP3 SWAP2 SWAP1 DUP2 DUP2 MSTORE PUSH1 0x20 ADD DUP3 DUP1 SLOAD PUSH2 0x2B21 SWAP1 PUSH2 0x3DFD JUMP JUMPDEST DUP1 ISZERO PUSH2 0x2B6E JUMPI DUP1 PUSH1 0x1F LT PUSH2 0x2B43 JUMPI PUSH2 0x100 DUP1 DUP4 SLOAD DIV MUL DUP4 MSTORE SWAP2 PUSH1 0x20 ADD SWAP2 PUSH2 0x2B6E JUMP JUMPDEST DUP3 ADD SWAP2 SWAP1 PUSH1 0x0 MSTORE PUSH1 0x20 PUSH1 0x0 KECCAK256 SWAP1 JUMPDEST DUP2 SLOAD DUP2 MSTORE SWAP1 PUSH1 0x1 ADD SWAP1 PUSH1 0x20 ADD DUP1 DUP4 GT PUSH2 0x2B51 JUMPI DUP3 SWAP1 SUB PUSH1 0x1F AND DUP3 ADD SWAP2 JUMPDEST POP POP POP POP POP SWAP1 POP DUP4 JUMP JUMPDEST DUP1 PUSH1 0xF PUSH1 0x0 DUP5 DUP2 MSTORE PUSH1 0x20 ADD SWAP1 DUP2 MSTORE PUSH1 0x20 ADD PUSH1 0x0 KECCAK256 PUSH1 0x1 ADD SWAP1 DUP2 PUSH2 0x2B9B SWAP2 SWAP1 PUSH2 0x4146 JUMP JUMPDEST POP POP POP JUMP JUMPDEST PUSH1 0x60 PUSH1 0x0 PUSH1 0x6 SLOAD PUSH8 0xFFFFFFFFFFFFFFFF DUP2 GT ISZERO PUSH2 0x2BC0 JUMPI PUSH2 0x2BBF PUSH2 0x33BB JUMP JUMPDEST JUMPDEST PUSH1 0x40 MLOAD SWAP1 DUP1 DUP3 MSTORE DUP1 PUSH1 0x20 MUL PUSH1 0x20 ADD DUP3 ADD PUSH1 0x40 MSTORE DUP1 ISZERO PUSH2 0x2BF3 JUMPI DUP2 PUSH1 0x20 ADD JUMPDEST PUSH1 0x60 DUP2 MSTORE PUSH1 0x20 ADD SWAP1 PUSH1 0x1 SWAP1 SUB SWAP1 DUP2 PUSH2 0x2BDE JUMPI SWAP1 POP JUMPDEST POP SWAP1 POP PUSH1 0x0 JUMPDEST PUSH1 0x6 SLOAD DUP2 LT ISZERO PUSH2 0x2CD3 JUMPI PUSH1 0xD PUSH1 0x0 DUP3 DUP2 MSTORE PUSH1 0x20 ADD SWAP1 DUP2 MSTORE PUSH1 0x20 ADD PUSH1 0x0 KECCAK256 PUSH1 0x1 ADD DUP1 SLOAD PUSH2 0x2C24 SWAP1 PUSH2 0x3DFD JUMP JUMPDEST DUP1 PUSH1 0x1F ADD PUSH1 0x20 DUP1 SWAP2 DIV MUL PUSH1 0x20 ADD PUSH1 0x40 MLOAD SWAP1 DUP2 ADD PUSH1 0x40 MSTORE DUP1 SWAP3 SWAP2 SWAP1 DUP2 DUP2 MSTORE PUSH1 0x20 ADD DUP3 DUP1 SLOAD PUSH2 0x2C50 SWAP1 PUSH2 0x3DFD JUMP JUMPDEST DUP1 ISZERO PUSH2 0x2C9D JUMPI DUP1 PUSH1 0x1F LT PUSH2 0x2C72 JUMPI PUSH2 0x100 DUP1 DUP4 SLOAD DIV MUL DUP4 MSTORE SWAP2 PUSH1 0x20 ADD SWAP2 PUSH2 0x2C9D JUMP JUMPDEST DUP3 ADD SWAP2 SWAP1 PUSH1 0x0 MSTORE PUSH1 0x20 PUSH1 0x0 KECCAK256 SWAP1 JUMPDEST DUP2 SLOAD DUP2 MSTORE SWAP1 PUSH1 0x1 ADD SWAP1 PUSH1 0x20 ADD DUP1 DUP4 GT PUSH2 0x2C80 JUMPI DUP3 SWAP1 SUB PUSH1 0x1F AND DUP3 ADD SWAP2 JUMPDEST POP POP POP POP POP DUP3 DUP3 DUP2 MLOAD DUP2 LT PUSH2 0x2CB5 JUMPI PUSH2 0x2CB4 PUSH2 0x3E2E JUMP JUMPDEST JUMPDEST PUSH1 0x20 MUL PUSH1 0x20 ADD ADD DUP2 SWAP1 MSTORE POP DUP1 DUP1 PUSH2 0x2CCB SWAP1 PUSH2 0x3E5D JUMP JUMPDEST SWAP2 POP POP PUSH2 0x2BF9 JUMP JUMPDEST POP DUP1 SWAP2 POP POP SWAP1 JUMP JUMPDEST DUP1 PUSH1 0xE PUSH1 0x0 DUP5 DUP2 MSTORE PUSH1 0x20 ADD SWAP1 DUP2 MSTORE PUSH1 0x20 ADD PUSH1 0x0 KECCAK256 PUSH1 0x1 ADD SWAP1 DUP2 PUSH2 0x2CFE SWAP2 SWAP1 PUSH2 0x4146 JUMP JUMPDEST POP POP POP JUMP JUMPDEST PUSH1 0x0 PUSH1 0x40 MLOAD DUP1 PUSH1 0x60 ADD PUSH1 0x40 MSTORE DUP1 DUP5 DUP2 MSTORE PUSH1 0x20 ADD DUP4 DUP2 MSTORE PUSH1 0x20 ADD PUSH1 0x40 MLOAD DUP1 PUSH1 0x40 ADD PUSH1 0x40 MSTORE DUP1 PUSH1 0x5 DUP2 MSTORE PUSH1 0x20 ADD PUSH32 0x46616C7365000000000000000000000000000000000000000000000000000000 DUP2 MSTORE POP DUP2 MSTORE POP PUSH1 0xD PUSH1 0x0 PUSH1 0x6 SLOAD DUP2 MSTORE PUSH1 0x20 ADD SWAP1 DUP2 MSTORE PUSH1 0x20 ADD PUSH1 0x0 KECCAK256 PUSH1 0x0 DUP3 ADD MLOAD DUP2 PUSH1 0x0 ADD SWAP1 DUP2 PUSH2 0x2D7F SWAP2 SWAP1 PUSH2 0x4146 JUMP JUMPDEST POP PUSH1 0x20 DUP3 ADD MLOAD DUP2 PUSH1 0x1 ADD SWAP1 DUP2 PUSH2 0x2D95 SWAP2 SWAP1 PUSH2 0x4146 JUMP JUMPDEST POP PUSH1 0x40 DUP3 ADD MLOAD DUP2 PUSH1 0x2 ADD SWAP1 DUP2 PUSH2 0x2DAB SWAP2 SWAP1 PUSH2 0x4146 JUMP JUMPDEST POP SWAP1 POP POP PUSH1 0x6 PUSH1 0x0 DUP2 SLOAD DUP1 SWAP3 SWAP2 SWAP1 PUSH2 0x2DC2 SWAP1 PUSH2 0x3E5D JUMP JUMPDEST SWAP2 SWAP1 POP SSTORE POP PUSH1 0x6 SLOAD SWAP1 POP SWAP3 SWAP2 POP POP JUMP JUMPDEST PUSH1 0x8 SLOAD DUP2 JUMP JUMPDEST PUSH1 0x0 PUSH1 0x40 MLOAD DUP1 PUSH1 0x60 ADD PUSH1 0x40 MSTORE DUP1 DUP5 DUP2 MSTORE PUSH1 0x20 ADD DUP6 DUP2 MSTORE PUSH1 0x20 ADD PUSH1 0x0 DUP2 MSTORE POP PUSH1 0xF PUSH1 0x0 PUSH1 0x8 SLOAD DUP2 MSTORE PUSH1 0x20 ADD SWAP1 DUP2 MSTORE PUSH1 0x20 ADD PUSH1 0x0 KECCAK256 PUSH1 0x0 DUP3 ADD MLOAD DUP2 PUSH1 0x0 ADD SSTORE PUSH1 0x20 DUP3 ADD MLOAD DUP2 PUSH1 0x1 ADD SWAP1 DUP2 PUSH2 0x2E2A SWAP2 SWAP1 PUSH2 0x4146 JUMP JUMPDEST POP PUSH1 0x40 DUP3 ADD MLOAD DUP2 PUSH1 0x2 ADD SSTORE SWAP1 POP POP PUSH1 0x8 PUSH1 0x0 DUP2 SLOAD DUP1 SWAP3 SWAP2 SWAP1 PUSH2 0x2E4B SWAP1 PUSH2 0x3E5D JUMP JUMPDEST SWAP2 SWAP1 POP SSTORE POP PUSH1 0x0 JUMPDEST DUP3 MLOAD DUP2 LT ISZERO PUSH2 0x2EB0 JUMPI PUSH2 0x2E85 PUSH1 0x8 SLOAD PUSH1 0x9 SLOAD DUP6 DUP5 DUP2 MLOAD DUP2 LT PUSH2 0x2E78 JUMPI PUSH2 0x2E77 PUSH2 0x3E2E JUMP JUMPDEST JUMPDEST PUSH1 0x20 MUL PUSH1 0x20 ADD ADD MLOAD PUSH2 0x3017 JUMP JUMPDEST PUSH1 0x9 PUSH1 0x0 DUP2 SLOAD DUP1 SWAP3 SWAP2 SWAP1 PUSH2 0x2E98 SWAP1 PUSH2 0x3E5D JUMP JUMPDEST SWAP2 SWAP1 POP SSTORE POP DUP1 DUP1 PUSH2 0x2EA8 SWAP1 PUSH2 0x3E5D JUMP JUMPDEST SWAP2 POP POP PUSH2 0x2E53 JUMP JUMPDEST POP PUSH1 0x8 SLOAD SWAP1 POP SWAP4 SWAP3 POP POP POP JUMP JUMPDEST PUSH1 0x60 PUSH1 0xE PUSH1 0x0 DUP4 DUP2 MSTORE PUSH1 0x20 ADD SWAP1 DUP2 MSTORE PUSH1 0x20 ADD PUSH1 0x0 KECCAK256 PUSH1 0x1 ADD DUP1 SLOAD PUSH2 0x2EE0 SWAP1 PUSH2 0x3DFD JUMP JUMPDEST DUP1 PUSH1 0x1F ADD PUSH1 0x20 DUP1 SWAP2 DIV MUL PUSH1 0x20 ADD PUSH1 0x40 MLOAD SWAP1 DUP2 ADD PUSH1 0x40 MSTORE DUP1 SWAP3 SWAP2 SWAP1 DUP2 DUP2 MSTORE PUSH1 0x20 ADD DUP3 DUP1 SLOAD PUSH2 0x2F0C SWAP1 PUSH2 0x3DFD JUMP JUMPDEST DUP1 ISZERO PUSH2 0x2F59 JUMPI DUP1 PUSH1 0x1F LT PUSH2 0x2F2E JUMPI PUSH2 0x100 DUP1 DUP4 SLOAD DIV MUL DUP4 MSTORE SWAP2 PUSH1 0x20 ADD SWAP2 PUSH2 0x2F59 JUMP JUMPDEST DUP3 ADD SWAP2 SWAP1 PUSH1 0x0 MSTORE PUSH1 0x20 PUSH1 0x0 KECCAK256 SWAP1 JUMPDEST DUP2 SLOAD DUP2 MSTORE SWAP1 PUSH1 0x1 ADD SWAP1 PUSH1 0x20 ADD DUP1 DUP4 GT PUSH2 0x2F3C JUMPI DUP3 SWAP1 SUB PUSH1 0x1F AND DUP3 ADD SWAP2 JUMPDEST POP POP POP POP POP SWAP1 POP SWAP2 SWAP1 POP JUMP JUMPDEST PUSH1 0x10 PUSH1 0x20 MSTORE DUP1 PUSH1 0x0 MSTORE PUSH1 0x40 PUSH1 0x0 KECCAK256 PUSH1 0x0 SWAP2 POP SWAP1 POP DUP1 PUSH1 0x0 ADD SLOAD SWAP1 DUP1 PUSH1 0x1 ADD SLOAD SWAP1 DUP1 PUSH1 0x2 ADD DUP1 SLOAD PUSH2 0x2F94 SWAP1 PUSH2 0x3DFD JUMP JUMPDEST DUP1 PUSH1 0x1F ADD PUSH1 0x20 DUP1 SWAP2 DIV MUL PUSH1 0x20 ADD PUSH1 0x40 MLOAD SWAP1 DUP2 ADD PUSH1 0x40 MSTORE DUP1 SWAP3 SWAP2 SWAP1 DUP2 DUP2 MSTORE PUSH1 0x20 ADD DUP3 DUP1 SLOAD PUSH2 0x2FC0 SWAP1 PUSH2 0x3DFD JUMP JUMPDEST DUP1 ISZERO PUSH2 0x300D JUMPI DUP1 PUSH1 0x1F LT PUSH2 0x2FE2 JUMPI PUSH2 0x100 DUP1 DUP4 SLOAD DIV MUL DUP4 MSTORE SWAP2 PUSH1 0x20 ADD SWAP2 PUSH2 0x300D JUMP JUMPDEST DUP3 ADD SWAP2 SWAP1 PUSH1 0x0 MSTORE PUSH1 0x20 PUSH1 0x0 KECCAK256 SWAP1 JUMPDEST DUP2 SLOAD DUP2 MSTORE SWAP1 PUSH1 0x1 ADD SWAP1 PUSH1 0x20 ADD DUP1 DUP4 GT PUSH2 0x2FF0 JUMPI DUP3 SWAP1 SUB PUSH1 0x1F AND DUP3 ADD SWAP2 JUMPDEST POP POP POP POP POP SWAP1 POP DUP4 JUMP JUMPDEST PUSH1 0x40 MLOAD DUP1 PUSH1 0x60 ADD PUSH1 0x40 MSTORE DUP1 DUP5 DUP2 MSTORE PUSH1 0x20 ADD DUP4 DUP2 MSTORE PUSH1 0x20 ADD DUP3 DUP2 MSTORE POP PUSH1 0x10 PUSH1 0x0 DUP5 DUP2 MSTORE PUSH1 0x20 ADD SWAP1 DUP2 MSTORE PUSH1 0x20 ADD PUSH1 0x0 KECCAK256 PUSH1 0x0 DUP3 ADD MLOAD DUP2 PUSH1 0x0 ADD SSTORE PUSH1 0x20 DUP3 ADD MLOAD DUP2 PUSH1 0x1 ADD SSTORE PUSH1 0x40 DUP3 ADD MLOAD DUP2 PUSH1 0x2 ADD SWAP1 DUP2 PUSH2 0x306E SWAP2 SWAP1 PUSH2 0x4146 JUMP JUMPDEST POP SWAP1 POP POP POP POP POP JUMP JUMPDEST POP DUP1 SLOAD PUSH2 0x3083 SWAP1 PUSH2 0x3DFD JUMP JUMPDEST PUSH1 0x0 DUP3 SSTORE DUP1 PUSH1 0x1F LT PUSH2 0x3095 JUMPI POP PUSH2 0x30B4 JUMP JUMPDEST PUSH1 0x1F ADD PUSH1 0x20 SWAP1 DIV SWAP1 PUSH1 0x0 MSTORE PUSH1 0x20 PUSH1 0x0 KECCAK256 SWAP1 DUP2 ADD SWAP1 PUSH2 0x30B3 SWAP2 SWAP1 PUSH2 0x30B7 JUMP JUMPDEST JUMPDEST POP JUMP JUMPDEST JUMPDEST DUP1 DUP3 GT ISZERO PUSH2 0x30D0 JUMPI PUSH1 0x0 DUP2 PUSH1 0x0 SWAP1 SSTORE POP PUSH1 0x1 ADD PUSH2 0x30B8 JUMP JUMPDEST POP SWAP1 JUMP JUMPDEST PUSH1 0x0 PUSH1 0x40 MLOAD SWAP1 POP SWAP1 JUMP JUMPDEST PUSH1 0x0 DUP1 REVERT JUMPDEST PUSH1 0x0 DUP1 REVERT JUMPDEST PUSH1 0x0 DUP2 SWAP1 POP SWAP2 SWAP1 POP JUMP JUMPDEST PUSH2 0x30FB DUP2 PUSH2 0x30E8 JUMP JUMPDEST DUP2 EQ PUSH2 0x3106 JUMPI PUSH1 0x0 DUP1 REVERT JUMPDEST POP JUMP JUMPDEST PUSH1 0x0 DUP2 CALLDATALOAD SWAP1 POP PUSH2 0x3118 DUP2 PUSH2 0x30F2 JUMP JUMPDEST SWAP3 SWAP2 POP POP JUMP JUMPDEST PUSH1 0x0 DUP1 PUSH1 0x40 DUP4 DUP6 SUB SLT ISZERO PUSH2 0x3135 JUMPI PUSH2 0x3134 PUSH2 0x30DE JUMP JUMPDEST JUMPDEST PUSH1 0x0 PUSH2 0x3143 DUP6 DUP3 DUP7 ADD PUSH2 0x3109 JUMP JUMPDEST SWAP3 POP POP PUSH1 0x20 PUSH2 0x3154 DUP6 DUP3 DUP7 ADD PUSH2 0x3109 JUMP JUMPDEST SWAP2 POP POP SWAP3 POP SWAP3 SWAP1 POP JUMP JUMPDEST PUSH1 0x0 PUSH1 0x20 DUP3 DUP5 SUB SLT ISZERO PUSH2 0x3174 JUMPI PUSH2 0x3173 PUSH2 0x30DE JUMP JUMPDEST JUMPDEST PUSH1 0x0 PUSH2 0x3182 DUP5 DUP3 DUP6 ADD PUSH2 0x3109 JUMP JUMPDEST SWAP2 POP POP SWAP3 SWAP2 POP POP JUMP JUMPDEST PUSH1 0x0 DUP2 MLOAD SWAP1 POP SWAP2 SWAP1 POP JUMP JUMPDEST PUSH1 0x0 DUP3 DUP3 MSTORE PUSH1 0x20 DUP3 ADD SWAP1 POP SWAP3 SWAP2 POP POP JUMP JUMPDEST PUSH1 0x0 DUP2 SWAP1 POP PUSH1 0x20 DUP3 ADD SWAP1 POP SWAP2 SWAP1 POP JUMP JUMPDEST PUSH1 0x0 DUP2 MLOAD SWAP1 POP SWAP2 SWAP1 POP JUMP JUMPDEST PUSH1 0x0 DUP3 DUP3 MSTORE PUSH1 0x20 DUP3 ADD SWAP1 POP SWAP3 SWAP2 POP POP JUMP JUMPDEST PUSH1 0x0 JUMPDEST DUP4 DUP2 LT ISZERO PUSH2 0x31F1 JUMPI DUP1 DUP3 ADD MLOAD DUP2 DUP5 ADD MSTORE PUSH1 0x20 DUP2 ADD SWAP1 POP PUSH2 0x31D6 JUMP JUMPDEST PUSH1 0x0 DUP5 DUP5 ADD MSTORE POP POP POP POP JUMP JUMPDEST PUSH1 0x0 PUSH1 0x1F NOT PUSH1 0x1F DUP4 ADD AND SWAP1 POP SWAP2 SWAP1 POP JUMP JUMPDEST PUSH1 0x0 PUSH2 0x3219 DUP3 PUSH2 0x31B7 JUMP JUMPDEST PUSH2 0x3223 DUP2 DUP6 PUSH2 0x31C2 JUMP JUMPDEST SWAP4 POP PUSH2 0x3233 DUP2 DUP6 PUSH1 0x20 DUP7 ADD PUSH2 0x31D3 JUMP JUMPDEST PUSH2 0x323C DUP2 PUSH2 0x31FD JUMP JUMPDEST DUP5 ADD SWAP2 POP POP SWAP3 SWAP2 POP POP JUMP JUMPDEST PUSH1 0x0 PUSH2 0x3253 DUP4 DUP4 PUSH2 0x320E JUMP JUMPDEST SWAP1 POP SWAP3 SWAP2 POP POP JUMP JUMPDEST PUSH1 0x0 PUSH1 0x20 DUP3 ADD SWAP1 POP SWAP2 SWAP1 POP JUMP JUMPDEST PUSH1 0x0 PUSH2 0x3273 DUP3 PUSH2 0x318B JUMP JUMPDEST PUSH2 0x327D DUP2 DUP6 PUSH2 0x3196 JUMP JUMPDEST SWAP4 POP DUP4 PUSH1 0x20 DUP3 MUL DUP6 ADD PUSH2 0x328F DUP6 PUSH2 0x31A7 JUMP JUMPDEST DUP1 PUSH1 0x0 JUMPDEST DUP6 DUP2 LT ISZERO PUSH2 0x32CB JUMPI DUP5 DUP5 SUB DUP10 MSTORE DUP2 MLOAD PUSH2 0x32AC DUP6 DUP3 PUSH2 0x3247 JUMP JUMPDEST SWAP5 POP PUSH2 0x32B7 DUP4 PUSH2 0x325B JUMP JUMPDEST SWAP3 POP PUSH1 0x20 DUP11 ADD SWAP10 POP POP PUSH1 0x1 DUP2 ADD SWAP1 POP PUSH2 0x3293 JUMP JUMPDEST POP DUP3 SWAP8 POP DUP8 SWAP6 POP POP POP POP POP POP SWAP3 SWAP2 POP POP JUMP JUMPDEST PUSH1 0x0 PUSH1 0x20 DUP3 ADD SWAP1 POP DUP2 DUP2 SUB PUSH1 0x0 DUP4 ADD MSTORE PUSH2 0x32F7 DUP2 DUP5 PUSH2 0x3268 JUMP JUMPDEST SWAP1 POP SWAP3 SWAP2 POP POP JUMP JUMPDEST PUSH2 0x3308 DUP2 PUSH2 0x30E8 JUMP JUMPDEST DUP3 MSTORE POP POP JUMP JUMPDEST PUSH1 0x0 PUSH1 0x20 DUP3 ADD SWAP1 POP PUSH2 0x3323 PUSH1 0x0 DUP4 ADD DUP5 PUSH2 0x32FF JUMP JUMPDEST SWAP3 SWAP2 POP POP JUMP JUMPDEST PUSH1 0x0 DUP3 DUP3 MSTORE PUSH1 0x20 DUP3 ADD SWAP1 POP SWAP3 SWAP2 POP POP JUMP JUMPDEST PUSH1 0x0 PUSH2 0x3345 DUP3 PUSH2 0x31B7 JUMP JUMPDEST PUSH2 0x334F DUP2 DUP6 PUSH2 0x3329 JUMP JUMPDEST SWAP4 POP PUSH2 0x335F DUP2 DUP6 PUSH1 0x20 DUP7 ADD PUSH2 0x31D3 JUMP JUMPDEST PUSH2 0x3368 DUP2 PUSH2 0x31FD JUMP JUMPDEST DUP5 ADD SWAP2 POP POP SWAP3 SWAP2 POP POP JUMP JUMPDEST PUSH1 0x0 PUSH1 0x60 DUP3 ADD SWAP1 POP PUSH2 0x3388 PUSH1 0x0 DUP4 ADD DUP7 PUSH2 0x32FF JUMP JUMPDEST PUSH2 0x3395 PUSH1 0x20 DUP4 ADD DUP6 PUSH2 0x32FF JUMP JUMPDEST DUP2 DUP2 SUB PUSH1 0x40 DUP4 ADD MSTORE PUSH2 0x33A7 DUP2 DUP5 PUSH2 0x333A JUMP JUMPDEST SWAP1 POP SWAP5 SWAP4 POP POP POP POP JUMP JUMPDEST PUSH1 0x0 DUP1 REVERT JUMPDEST PUSH1 0x0 DUP1 REVERT JUMPDEST PUSH32 0x4E487B7100000000000000000000000000000000000000000000000000000000 PUSH1 0x0 MSTORE PUSH1 0x41 PUSH1 0x4 MSTORE PUSH1 0x24 PUSH1 0x0 REVERT JUMPDEST PUSH2 0x33F3 DUP3 PUSH2 0x31FD JUMP JUMPDEST DUP2 ADD DUP2 DUP2 LT PUSH8 0xFFFFFFFFFFFFFFFF DUP3 GT OR ISZERO PUSH2 0x3412 JUMPI PUSH2 0x3411 PUSH2 0x33BB JUMP JUMPDEST JUMPDEST DUP1 PUSH1 0x40 MSTORE POP POP POP JUMP JUMPDEST PUSH1 0x0 PUSH2 0x3425 PUSH2 0x30D4 JUMP JUMPDEST SWAP1 POP PUSH2 0x3431 DUP3 DUP3 PUSH2 0x33EA JUMP JUMPDEST SWAP2 SWAP1 POP JUMP JUMPDEST PUSH1 0x0 PUSH8 0xFFFFFFFFFFFFFFFF DUP3 GT ISZERO PUSH2 0x3451 JUMPI PUSH2 0x3450 PUSH2 0x33BB JUMP JUMPDEST JUMPDEST PUSH2 0x345A DUP3 PUSH2 0x31FD JUMP JUMPDEST SWAP1 POP PUSH1 0x20 DUP2 ADD SWAP1 POP SWAP2 SWAP1 POP JUMP JUMPDEST DUP3 DUP2 DUP4 CALLDATACOPY PUSH1 0x0 DUP4 DUP4 ADD MSTORE POP POP POP JUMP JUMPDEST PUSH1 0x0 PUSH2 0x3489 PUSH2 0x3484 DUP5 PUSH2 0x3436 JUMP JUMPDEST PUSH2 0x341B JUMP JUMPDEST SWAP1 POP DUP3 DUP2 MSTORE PUSH1 0x20 DUP2 ADD DUP5 DUP5 DUP5 ADD GT ISZERO PUSH2 0x34A5 JUMPI PUSH2 0x34A4 PUSH2 0x33B6 JUMP JUMPDEST JUMPDEST PUSH2 0x34B0 DUP5 DUP3 DUP6 PUSH2 0x3467 JUMP JUMPDEST POP SWAP4 SWAP3 POP POP POP JUMP JUMPDEST PUSH1 0x0 DUP3 PUSH1 0x1F DUP4 ADD SLT PUSH2 0x34CD JUMPI PUSH2 0x34CC PUSH2 0x33B1 JUMP JUMPDEST JUMPDEST DUP2 CALLDATALOAD PUSH2 0x34DD DUP5 DUP3 PUSH1 0x20 DUP7 ADD PUSH2 0x3476 JUMP JUMPDEST SWAP2 POP POP SWAP3 SWAP2 POP POP JUMP JUMPDEST PUSH1 0x0 PUSH1 0x20 DUP3 DUP5 SUB SLT ISZERO PUSH2 0x34FC JUMPI PUSH2 0x34FB PUSH2 0x30DE JUMP JUMPDEST JUMPDEST PUSH1 0x0 DUP3 ADD CALLDATALOAD PUSH8 0xFFFFFFFFFFFFFFFF DUP2 GT ISZERO PUSH2 0x351A JUMPI PUSH2 0x3519 PUSH2 0x30E3 JUMP JUMPDEST JUMPDEST PUSH2 0x3526 DUP5 DUP3 DUP6 ADD PUSH2 0x34B8 JUMP JUMPDEST SWAP2 POP POP SWAP3 SWAP2 POP POP JUMP JUMPDEST PUSH1 0x0 PUSH1 0x60 DUP3 ADD SWAP1 POP DUP2 DUP2 SUB PUSH1 0x0 DUP4 ADD MSTORE PUSH2 0x3549 DUP2 DUP7 PUSH2 0x333A JUMP JUMPDEST SWAP1 POP DUP2 DUP2 SUB PUSH1 0x20 DUP4 ADD MSTORE PUSH2 0x355D DUP2 DUP6 PUSH2 0x333A JUMP JUMPDEST SWAP1 POP DUP2 DUP2 SUB PUSH1 0x40 DUP4 ADD MSTORE PUSH2 0x3571 DUP2 DUP5 PUSH2 0x333A JUMP JUMPDEST SWAP1 POP SWAP5 SWAP4 POP POP POP POP JUMP JUMPDEST PUSH1 0x0 DUP1 PUSH1 0x40 DUP4 DUP6 SUB SLT ISZERO PUSH2 0x3592 JUMPI PUSH2 0x3591 PUSH2 0x30DE JUMP JUMPDEST JUMPDEST PUSH1 0x0 PUSH2 0x35A0 DUP6 DUP3 DUP7 ADD PUSH2 0x3109 JUMP JUMPDEST SWAP3 POP POP PUSH1 0x20 DUP4 ADD CALLDATALOAD PUSH8 0xFFFFFFFFFFFFFFFF DUP2 GT ISZERO PUSH2 0x35C1 JUMPI PUSH2 0x35C0 PUSH2 0x30E3 JUMP JUMPDEST JUMPDEST PUSH2 0x35CD DUP6 DUP3 DUP7 ADD PUSH2 0x34B8 JUMP JUMPDEST SWAP2 POP POP SWAP3 POP SWAP3 SWAP1 POP JUMP JUMPDEST PUSH1 0x0 DUP2 MLOAD SWAP1 POP SWAP2 SWAP1 POP JUMP JUMPDEST PUSH1 0x0 DUP3 DUP3 MSTORE PUSH1 0x20 DUP3 ADD SWAP1 POP SWAP3 SWAP2 POP POP JUMP JUMPDEST PUSH1 0x0 DUP2 SWAP1 POP PUSH1 0x20 DUP3 ADD SWAP1 POP SWAP2 SWAP1 POP JUMP JUMPDEST PUSH1 0x0 DUP2 PUSH1 0x7 SIGNEXTEND SWAP1 POP SWAP2 SWAP1 POP JUMP JUMPDEST PUSH2 0x3619 DUP2 PUSH2 0x3603 JUMP JUMPDEST DUP3 MSTORE POP POP JUMP JUMPDEST PUSH2 0x3628 DUP2 PUSH2 0x30E8 JUMP JUMPDEST DUP3 MSTORE POP POP JUMP JUMPDEST PUSH1 0x80 DUP3 ADD PUSH1 0x0 DUP3 ADD MLOAD PUSH2 0x3644 PUSH1 0x0 DUP6 ADD DUP3 PUSH2 0x3610 JUMP JUMPDEST POP PUSH1 0x20 DUP3 ADD MLOAD PUSH2 0x3657 PUSH1 0x20 DUP6 ADD DUP3 PUSH2 0x3610 JUMP JUMPDEST POP PUSH1 0x40 DUP3 ADD MLOAD PUSH2 0x366A PUSH1 0x40 DUP6 ADD DUP3 PUSH2 0x361F JUMP JUMPDEST POP PUSH1 0x60 DUP3 ADD MLOAD PUSH2 0x367D PUSH1 0x60 DUP6 ADD DUP3 PUSH2 0x361F JUMP JUMPDEST POP POP POP POP JUMP JUMPDEST PUSH1 0x0 PUSH2 0x368F DUP4 DUP4 PUSH2 0x362E JUMP JUMPDEST PUSH1 0x80 DUP4 ADD SWAP1 POP SWAP3 SWAP2 POP POP JUMP JUMPDEST PUSH1 0x0 PUSH1 0x20 DUP3 ADD SWAP1 POP SWAP2 SWAP1 POP JUMP JUMPDEST PUSH1 0x0 PUSH2 0x36B3 DUP3 PUSH2 0x35D7 JUMP JUMPDEST PUSH2 0x36BD DUP2 DUP6 PUSH2 0x35E2 JUMP JUMPDEST SWAP4 POP PUSH2 0x36C8 DUP4 PUSH2 0x35F3 JUMP JUMPDEST DUP1 PUSH1 0x0 JUMPDEST DUP4 DUP2 LT ISZERO PUSH2 0x36F9 JUMPI DUP2 MLOAD PUSH2 0x36E0 DUP9 DUP3 PUSH2 0x3683 JUMP JUMPDEST SWAP8 POP PUSH2 0x36EB DUP4 PUSH2 0x369B JUMP JUMPDEST SWAP3 POP POP PUSH1 0x1 DUP2 ADD SWAP1 POP PUSH2 0x36CC JUMP JUMPDEST POP DUP6 SWAP4 POP POP POP POP SWAP3 SWAP2 POP POP JUMP JUMPDEST PUSH1 0x0 PUSH1 0x20 DUP3 ADD SWAP1 POP DUP2 DUP2 SUB PUSH1 0x0 DUP4 ADD MSTORE PUSH2 0x3720 DUP2 DUP5 PUSH2 0x36A8 JUMP JUMPDEST SWAP1 POP SWAP3 SWAP2 POP POP JUMP JUMPDEST PUSH1 0x0 PUSH1 0x60 DUP3 ADD SWAP1 POP PUSH2 0x373D PUSH1 0x0 DUP4 ADD DUP7 PUSH2 0x32FF JUMP JUMPDEST DUP2 DUP2 SUB PUSH1 0x20 DUP4 ADD MSTORE PUSH2 0x374F DUP2 DUP6 PUSH2 0x333A JUMP JUMPDEST SWAP1 POP PUSH2 0x375E PUSH1 0x40 DUP4 ADD DUP5 PUSH2 0x32FF JUMP JUMPDEST SWAP5 SWAP4 POP POP POP POP JUMP JUMPDEST PUSH1 0x0 PUSH1 0x20 DUP3 ADD SWAP1 POP DUP2 DUP2 SUB PUSH1 0x0 DUP4 ADD MSTORE PUSH2 0x3780 DUP2 DUP5 PUSH2 0x333A JUMP JUMPDEST SWAP1 POP SWAP3 SWAP2 POP POP JUMP JUMPDEST PUSH1 0x0 DUP1 PUSH1 0x40 DUP4 DUP6 SUB SLT ISZERO PUSH2 0x379F JUMPI PUSH2 0x379E PUSH2 0x30DE JUMP JUMPDEST JUMPDEST PUSH1 0x0 DUP4 ADD CALLDATALOAD PUSH8 0xFFFFFFFFFFFFFFFF DUP2 GT ISZERO PUSH2 0x37BD JUMPI PUSH2 0x37BC PUSH2 0x30E3 JUMP JUMPDEST JUMPDEST PUSH2 0x37C9 DUP6 DUP3 DUP7 ADD PUSH2 0x34B8 JUMP JUMPDEST SWAP3 POP POP PUSH1 0x20 PUSH2 0x37DA DUP6 DUP3 DUP7 ADD PUSH2 0x3109 JUMP JUMPDEST SWAP2 POP POP SWAP3 POP SWAP3 SWAP1 POP JUMP JUMPDEST PUSH2 0x37ED DUP2 PUSH2 0x3603 JUMP JUMPDEST DUP3 MSTORE POP POP JUMP JUMPDEST PUSH1 0x0 PUSH1 0x40 DUP3 ADD SWAP1 POP PUSH2 0x3808 PUSH1 0x0 DUP4 ADD DUP6 PUSH2 0x37E4 JUMP JUMPDEST PUSH2 0x3815 PUSH1 0x20 DUP4 ADD DUP5 PUSH2 0x32FF JUMP JUMPDEST SWAP4 SWAP3 POP POP POP JUMP JUMPDEST PUSH1 0x0 PUSH1 0x40 DUP3 ADD SWAP1 POP PUSH2 0x3831 PUSH1 0x0 DUP4 ADD DUP6 PUSH2 0x32FF JUMP JUMPDEST DUP2 DUP2 SUB PUSH1 0x20 DUP4 ADD MSTORE PUSH2 0x3843 DUP2 DUP5 PUSH2 0x333A JUMP JUMPDEST SWAP1 POP SWAP4 SWAP3 POP POP POP JUMP JUMPDEST PUSH1 0x0 DUP2 MLOAD SWAP1 POP SWAP2 SWAP1 POP JUMP JUMPDEST PUSH1 0x0 DUP3 DUP3 MSTORE PUSH1 0x20 DUP3 ADD SWAP1 POP SWAP3 SWAP2 POP POP JUMP JUMPDEST PUSH1 0x0 DUP2 SWAP1 POP PUSH1 0x20 DUP3 ADD SWAP1 POP SWAP2 SWAP1 POP JUMP JUMPDEST PUSH1 0x0 PUSH2 0x3884 DUP4 DUP4 PUSH2 0x361F JUMP JUMPDEST PUSH1 0x20 DUP4 ADD SWAP1 POP SWAP3 SWAP2 POP POP JUMP JUMPDEST PUSH1 0x0 PUSH1 0x20 DUP3 ADD SWAP1 POP SWAP2 SWAP1 POP JUMP JUMPDEST PUSH1 0x0 PUSH2 0x38A8 DUP3 PUSH2 0x384C JUMP JUMPDEST PUSH2 0x38B2 DUP2 DUP6 PUSH2 0x3857 JUMP JUMPDEST SWAP4 POP PUSH2 0x38BD DUP4 PUSH2 0x3868 JUMP JUMPDEST DUP1 PUSH1 0x0 JUMPDEST DUP4 DUP2 LT ISZERO PUSH2 0x38EE JUMPI DUP2 MLOAD PUSH2 0x38D5 DUP9 DUP3 PUSH2 0x3878 JUMP JUMPDEST SWAP8 POP PUSH2 0x38E0 DUP4 PUSH2 0x3890 JUMP JUMPDEST SWAP3 POP POP PUSH1 0x1 DUP2 ADD SWAP1 POP PUSH2 0x38C1 JUMP JUMPDEST POP DUP6 SWAP4 POP POP POP POP SWAP3 SWAP2 POP POP JUMP JUMPDEST PUSH1 0x0 PUSH1 0x20 DUP3 ADD SWAP1 POP DUP2 DUP2 SUB PUSH1 0x0 DUP4 ADD MSTORE PUSH2 0x3915 DUP2 DUP5 PUSH2 0x389D JUMP JUMPDEST SWAP1 POP SWAP3 SWAP2 POP POP JUMP JUMPDEST PUSH1 0x0 DUP1 PUSH1 0x0 PUSH1 0x60 DUP5 DUP7 SUB SLT ISZERO PUSH2 0x3936 JUMPI PUSH2 0x3935 PUSH2 0x30DE JUMP JUMPDEST JUMPDEST PUSH1 0x0 PUSH2 0x3944 DUP7 DUP3 DUP8 ADD PUSH2 0x3109 JUMP JUMPDEST SWAP4 POP POP PUSH1 0x20 PUSH2 0x3955 DUP7 DUP3 DUP8 ADD PUSH2 0x3109 JUMP JUMPDEST SWAP3 POP POP PUSH1 0x40 DUP5 ADD CALLDATALOAD PUSH8 0xFFFFFFFFFFFFFFFF DUP2 GT ISZERO PUSH2 0x3976 JUMPI PUSH2 0x3975 PUSH2 0x30E3 JUMP JUMPDEST JUMPDEST PUSH2 0x3982 DUP7 DUP3 DUP8 ADD PUSH2 0x34B8 JUMP JUMPDEST SWAP2 POP POP SWAP3 POP SWAP3 POP SWAP3 JUMP JUMPDEST PUSH1 0x0 DUP1 PUSH1 0x0 PUSH1 0x60 DUP5 DUP7 SUB SLT ISZERO PUSH2 0x39A5 JUMPI PUSH2 0x39A4 PUSH2 0x30DE JUMP JUMPDEST JUMPDEST PUSH1 0x0 PUSH2 0x39B3 DUP7 DUP3 DUP8 ADD PUSH2 0x3109 JUMP JUMPDEST SWAP4 POP POP PUSH1 0x20 DUP5 ADD CALLDATALOAD PUSH8 0xFFFFFFFFFFFFFFFF DUP2 GT ISZERO PUSH2 0x39D4 JUMPI PUSH2 0x39D3 PUSH2 0x30E3 JUMP JUMPDEST JUMPDEST PUSH2 0x39E0 DUP7 DUP3 DUP8 ADD PUSH2 0x34B8 JUMP JUMPDEST SWAP3 POP POP PUSH1 0x40 DUP5 ADD CALLDATALOAD PUSH8 0xFFFFFFFFFFFFFFFF DUP2 GT ISZERO PUSH2 0x3A01 JUMPI PUSH2 0x3A00 PUSH2 0x30E3 JUMP JUMPDEST JUMPDEST PUSH2 0x3A0D DUP7 DUP3 DUP8 ADD PUSH2 0x34B8 JUMP JUMPDEST SWAP2 POP POP SWAP3 POP SWAP3 POP SWAP3 JUMP JUMPDEST PUSH1 0x0 PUSH1 0x20 DUP3 ADD SWAP1 POP PUSH2 0x3A2C PUSH1 0x0 DUP4 ADD DUP5 PUSH2 0x37E4 JUMP JUMPDEST SWAP3 SWAP2 POP POP JUMP JUMPDEST PUSH1 0x0 DUP2 MLOAD SWAP1 POP SWAP2 SWAP1 POP JUMP JUMPDEST PUSH1 0x0 DUP3 DUP3 MSTORE PUSH1 0x20 DUP3 ADD SWAP1 POP SWAP3 SWAP2 POP POP JUMP JUMPDEST PUSH1 0x0 DUP2 SWAP1 POP PUSH1 0x20 DUP3 ADD SWAP1 POP SWAP2 SWAP1 POP JUMP JUMPDEST PUSH1 0x0 PUSH1 0xFF DUP3 AND SWAP1 POP SWAP2 SWAP1 POP JUMP JUMPDEST PUSH2 0x3A74 DUP2 PUSH2 0x3A5E JUMP JUMPDEST DUP3 MSTORE POP POP JUMP JUMPDEST PUSH1 0x0 PUSH1 0x60 DUP4 ADD PUSH1 0x0 DUP4 ADD MLOAD DUP5 DUP3 SUB PUSH1 0x0 DUP7 ADD MSTORE PUSH2 0x3A97 DUP3 DUP3 PUSH2 0x320E JUMP JUMPDEST SWAP2 POP POP PUSH1 0x20 DUP4 ADD MLOAD PUSH2 0x3AAC PUSH1 0x20 DUP7 ADD DUP3 PUSH2 0x361F JUMP JUMPDEST POP PUSH1 0x40 DUP4 ADD MLOAD PUSH2 0x3ABF PUSH1 0x40 DUP7 ADD DUP3 PUSH2 0x3A6B JUMP JUMPDEST POP DUP1 SWAP2 POP POP SWAP3 SWAP2 POP POP JUMP JUMPDEST PUSH1 0x0 PUSH2 0x3AD6 DUP4 DUP4 PUSH2 0x3A7A JUMP JUMPDEST SWAP1 POP SWAP3 SWAP2 POP POP JUMP JUMPDEST PUSH1 0x0 PUSH1 0x20 DUP3 ADD SWAP1 POP SWAP2 SWAP1 POP JUMP JUMPDEST PUSH1 0x0 PUSH2 0x3AF6 DUP3 PUSH2 0x3A32 JUMP JUMPDEST PUSH2 0x3B00 DUP2 DUP6 PUSH2 0x3A3D JUMP JUMPDEST SWAP4 POP DUP4 PUSH1 0x20 DUP3 MUL DUP6 ADD PUSH2 0x3B12 DUP6 PUSH2 0x3A4E JUMP JUMPDEST DUP1 PUSH1 0x0 JUMPDEST DUP6 DUP2 LT ISZERO PUSH2 0x3B4E JUMPI DUP5 DUP5 SUB DUP10 MSTORE DUP2 MLOAD PUSH2 0x3B2F DUP6 DUP3 PUSH2 0x3ACA JUMP JUMPDEST SWAP5 POP PUSH2 0x3B3A DUP4 PUSH2 0x3ADE JUMP JUMPDEST SWAP3 POP PUSH1 0x20 DUP11 ADD SWAP10 POP POP PUSH1 0x1 DUP2 ADD SWAP1 POP PUSH2 0x3B16 JUMP JUMPDEST POP DUP3 SWAP8 POP DUP8 SWAP6 POP POP POP POP POP POP SWAP3 SWAP2 POP POP JUMP JUMPDEST PUSH1 0x0 PUSH1 0x20 DUP3 ADD SWAP1 POP DUP2 DUP2 SUB PUSH1 0x0 DUP4 ADD MSTORE PUSH2 0x3B7A DUP2 DUP5 PUSH2 0x3AEB JUMP JUMPDEST SWAP1 POP SWAP3 SWAP2 POP POP JUMP JUMPDEST PUSH1 0x0 DUP1 PUSH1 0x40 DUP4 DUP6 SUB SLT ISZERO PUSH2 0x3B99 JUMPI PUSH2 0x3B98 PUSH2 0x30DE JUMP JUMPDEST JUMPDEST PUSH1 0x0 DUP4 ADD CALLDATALOAD PUSH8 0xFFFFFFFFFFFFFFFF DUP2 GT ISZERO PUSH2 0x3BB7 JUMPI PUSH2 0x3BB6 PUSH2 0x30E3 JUMP JUMPDEST JUMPDEST PUSH2 0x3BC3 DUP6 DUP3 DUP7 ADD PUSH2 0x34B8 JUMP JUMPDEST SWAP3 POP POP PUSH1 0x20 DUP4 ADD CALLDATALOAD PUSH8 0xFFFFFFFFFFFFFFFF DUP2 GT ISZERO PUSH2 0x3BE4 JUMPI PUSH2 0x3BE3 PUSH2 0x30E3 JUMP JUMPDEST JUMPDEST PUSH2 0x3BF0 DUP6 DUP3 DUP7 ADD PUSH2 0x34B8 JUMP JUMPDEST SWAP2 POP POP SWAP3 POP SWAP3 SWAP1 POP JUMP JUMPDEST PUSH1 0x0 PUSH8 0xFFFFFFFFFFFFFFFF DUP3 GT ISZERO PUSH2 0x3C15 JUMPI PUSH2 0x3C14 PUSH2 0x33BB JUMP JUMPDEST JUMPDEST PUSH1 0x20 DUP3 MUL SWAP1 POP PUSH1 0x20 DUP2 ADD SWAP1 POP SWAP2 SWAP1 POP JUMP JUMPDEST PUSH1 0x0 DUP1 REVERT JUMPDEST PUSH1 0x0 PUSH2 0x3C3E PUSH2 0x3C39 DUP5 PUSH2 0x3BFA JUMP JUMPDEST PUSH2 0x341B JUMP JUMPDEST SWAP1 POP DUP1 DUP4 DUP3 MSTORE PUSH1 0x20 DUP3 ADD SWAP1 POP PUSH1 0x20 DUP5 MUL DUP4 ADD DUP6 DUP2 GT ISZERO PUSH2 0x3C61 JUMPI PUSH2 0x3C60 PUSH2 0x3C26 JUMP JUMPDEST JUMPDEST DUP4 JUMPDEST DUP2 DUP2 LT ISZERO PUSH2 0x3CA8 JUMPI DUP1 CALLDATALOAD PUSH8 0xFFFFFFFFFFFFFFFF DUP2 GT ISZERO PUSH2 0x3C86 JUMPI PUSH2 0x3C85 PUSH2 0x33B1 JUMP JUMPDEST JUMPDEST DUP1 DUP7 ADD PUSH2 0x3C93 DUP10 DUP3 PUSH2 0x34B8 JUMP JUMPDEST DUP6 MSTORE PUSH1 0x20 DUP6 ADD SWAP5 POP POP POP PUSH1 0x20 DUP2 ADD SWAP1 POP PUSH2 0x3C63 JUMP JUMPDEST POP POP POP SWAP4 SWAP3 POP POP POP JUMP JUMPDEST PUSH1 0x0 DUP3 PUSH1 0x1F DUP4 ADD SLT PUSH2 0x3CC7 JUMPI PUSH2 0x3CC6 PUSH2 0x33B1 JUMP JUMPDEST JUMPDEST DUP2 CALLDATALOAD PUSH2 0x3CD7 DUP5 DUP3 PUSH1 0x20 DUP7 ADD PUSH2 0x3C2B JUMP JUMPDEST SWAP2 POP POP SWAP3 SWAP2 POP POP JUMP JUMPDEST PUSH1 0x0 DUP1 PUSH1 0x0 PUSH1 0x60 DUP5 DUP7 SUB SLT ISZERO PUSH2 0x3CF9 JUMPI PUSH2 0x3CF8 PUSH2 0x30DE JUMP JUMPDEST JUMPDEST PUSH1 0x0 DUP5 ADD CALLDATALOAD PUSH8 0xFFFFFFFFFFFFFFFF DUP2 GT ISZERO PUSH2 0x3D17 JUMPI PUSH2 0x3D16 PUSH2 0x30E3 JUMP JUMPDEST JUMPDEST PUSH2 0x3D23 DUP7 DUP3 DUP8 ADD PUSH2 0x34B8 JUMP JUMPDEST SWAP4 POP POP PUSH1 0x20 PUSH2 0x3D34 DUP7 DUP3 DUP8 ADD PUSH2 0x3109 JUMP JUMPDEST SWAP3 POP POP PUSH1 0x40 DUP5 ADD CALLDATALOAD PUSH8 0xFFFFFFFFFFFFFFFF DUP2 GT ISZERO PUSH2 0x3D55 JUMPI PUSH2 0x3D54 PUSH2 0x30E3 JUMP JUMPDEST JUMPDEST PUSH2 0x3D61 DUP7 DUP3 DUP8 ADD PUSH2 0x3CB2 JUMP JUMPDEST SWAP2 POP POP SWAP3 POP SWAP3 POP SWAP3 JUMP JUMPDEST PUSH32 0x4E487B7100000000000000000000000000000000000000000000000000000000 PUSH1 0x0 MSTORE PUSH1 0x11 PUSH1 0x4 MSTORE PUSH1 0x24 PUSH1 0x0 REVERT JUMPDEST PUSH1 0x0 PUSH2 0x3DA5 DUP3 PUSH2 0x30E8 JUMP JUMPDEST SWAP2 POP PUSH2 0x3DB0 DUP4 PUSH2 0x30E8 JUMP JUMPDEST SWAP3 POP DUP3 DUP3 ADD SWAP1 POP DUP1 DUP3 GT ISZERO PUSH2 0x3DC8 JUMPI PUSH2 0x3DC7 PUSH2 0x3D6B JUMP JUMPDEST JUMPDEST SWAP3 SWAP2 POP POP JUMP JUMPDEST PUSH32 0x4E487B7100000000000000000000000000000000000000000000000000000000 PUSH1 0x0 MSTORE PUSH1 0x22 PUSH1 0x4 MSTORE PUSH1 0x24 PUSH1 0x0 REVERT JUMPDEST PUSH1 0x0 PUSH1 0x2 DUP3 DIV SWAP1 POP PUSH1 0x1 DUP3 AND DUP1 PUSH2 0x3E15 JUMPI PUSH1 0x7F DUP3 AND SWAP2 POP JUMPDEST PUSH1 0x20 DUP3 LT DUP2 SUB PUSH2 0x3E28 JUMPI PUSH2 0x3E27 PUSH2 0x3DCE JUMP JUMPDEST JUMPDEST POP SWAP2 SWAP1 POP JUMP JUMPDEST PUSH32 0x4E487B7100000000000000000000000000000000000000000000000000000000 PUSH1 0x0 MSTORE PUSH1 0x32 PUSH1 0x4 MSTORE PUSH1 0x24 PUSH1 0x0 REVERT JUMPDEST PUSH1 0x0 PUSH2 0x3E68 DUP3 PUSH2 0x30E8 JUMP JUMPDEST SWAP2 POP PUSH32 0xFFFFFFFFFFFFFFFFFFFFFFFFFFFFFFFFFFFFFFFFFFFFFFFFFFFFFFFFFFFFFFFF DUP3 SUB PUSH2 0x3E9A JUMPI PUSH2 0x3E99 PUSH2 0x3D6B JUMP JUMPDEST JUMPDEST PUSH1 0x1 DUP3 ADD SWAP1 POP SWAP2 SWAP1 POP JUMP JUMPDEST PUSH1 0x0 DUP2 SWAP1 POP SWAP3 SWAP2 POP POP JUMP JUMPDEST POP JUMP JUMPDEST PUSH1 0x0 PUSH2 0x3EC0 PUSH1 0x0 DUP4 PUSH2 0x3EA5 JUMP JUMPDEST SWAP2 POP PUSH2 0x3ECB DUP3 PUSH2 0x3EB0 JUMP JUMPDEST PUSH1 0x0 DUP3 ADD SWAP1 POP SWAP2 SWAP1 POP JUMP JUMPDEST PUSH1 0x0 PUSH2 0x3EE1 DUP3 PUSH2 0x3EB3 JUMP JUMPDEST SWAP2 POP DUP2 SWAP1 POP SWAP2 SWAP1 POP JUMP JUMPDEST PUSH1 0x0 DUP2 SWAP1 POP DUP2 PUSH1 0x0 MSTORE PUSH1 0x20 PUSH1 0x0 KECCAK256 SWAP1 POP SWAP2 SWAP1 POP JUMP JUMPDEST PUSH1 0x0 DUP2 SLOAD PUSH2 0x3F0D DUP2 PUSH2 0x3DFD JUMP JUMPDEST PUSH2 0x3F17 DUP2 DUP7 PUSH2 0x3EA5 JUMP JUMPDEST SWAP5 POP PUSH1 0x1 DUP3 AND PUSH1 0x0 DUP2 EQ PUSH2 0x3F32 JUMPI PUSH1 0x1 DUP2 EQ PUSH2 0x3F47 JUMPI PUSH2 0x3F7A JUMP JUMPDEST PUSH1 0xFF NOT DUP4 AND DUP7 MSTORE DUP2 ISZERO ISZERO DUP3 MUL DUP7 ADD SWAP4 POP PUSH2 0x3F7A JUMP JUMPDEST PUSH2 0x3F50 DUP6 PUSH2 0x3EEB JUMP JUMPDEST PUSH1 0x0 JUMPDEST DUP4 DUP2 LT ISZERO PUSH2 0x3F72 JUMPI DUP2 SLOAD DUP2 DUP10 ADD MSTORE PUSH1 0x1 DUP3 ADD SWAP2 POP PUSH1 0x20 DUP2 ADD SWAP1 POP PUSH2 0x3F53 JUMP JUMPDEST DUP4 DUP9 ADD SWAP6 POP POP POP JUMPDEST POP POP POP SWAP3 SWAP2 POP POP JUMP JUMPDEST PUSH1 0x0 PUSH2 0x3F8F DUP3 DUP5 PUSH2 0x3F00 JUMP JUMPDEST SWAP2 POP DUP2 SWAP1 POP SWAP3 SWAP2 POP POP JUMP JUMPDEST PUSH1 0x0 DUP2 SWAP1 POP DUP2 PUSH1 0x0 MSTORE PUSH1 0x20 PUSH1 0x0 KECCAK256 SWAP1 POP SWAP2 SWAP1 POP JUMP JUMPDEST PUSH1 0x0 PUSH1 0x20 PUSH1 0x1F DUP4 ADD DIV SWAP1 POP SWAP2 SWAP1 POP JUMP JUMPDEST PUSH1 0x0 DUP3 DUP3 SHL SWAP1 POP SWAP3 SWAP2 POP POP JUMP JUMPDEST PUSH1 0x0 PUSH1 0x8 DUP4 MUL PUSH2 0x3FFC PUSH32 0xFFFFFFFFFFFFFFFFFFFFFFFFFFFFFFFFFFFFFFFFFFFFFFFFFFFFFFFFFFFFFFFF DUP3 PUSH2 0x3FBF JUMP JUMPDEST PUSH2 0x4006 DUP7 DUP4 PUSH2 0x3FBF JUMP JUMPDEST SWAP6 POP DUP1 NOT DUP5 AND SWAP4 POP DUP1 DUP7 AND DUP5 OR SWAP3 POP POP POP SWAP4 SWAP3 POP POP POP JUMP JUMPDEST PUSH1 0x0 DUP2 SWAP1 POP SWAP2 SWAP1 POP JUMP JUMPDEST PUSH1 0x0 PUSH2 0x4043 PUSH2 0x403E PUSH2 0x4039 DUP5 PUSH2 0x30E8 JUMP JUMPDEST PUSH2 0x401E JUMP JUMPDEST PUSH2 0x30E8 JUMP JUMPDEST SWAP1 POP SWAP2 SWAP1 POP JUMP JUMPDEST PUSH1 0x0 DUP2 SWAP1 POP SWAP2 SWAP1 POP JUMP JUMPDEST PUSH2 0x405D DUP4 PUSH2 0x4028 JUMP JUMPDEST PUSH2 0x4071 PUSH2 0x4069 DUP3 PUSH2 0x404A JUMP JUMPDEST DUP5 DUP5 SLOAD PUSH2 0x3FCC JUMP JUMPDEST DUP3 SSTORE POP POP POP POP JUMP JUMPDEST PUSH1 0x0 SWAP1 JUMP JUMPDEST PUSH2 0x4086 PUSH2 0x4079 JUMP JUMPDEST PUSH2 0x4091 DUP2 DUP5 DUP5 PUSH2 0x4054 JUMP JUMPDEST POP POP POP JUMP JUMPDEST JUMPDEST DUP2 DUP2 LT ISZERO PUSH2 0x40B5 JUMPI PUSH2 0x40AA PUSH1 0x0 DUP3 PUSH2 0x407E JUMP JUMPDEST PUSH1 0x1 DUP2 ADD SWAP1 POP PUSH2 0x4097 JUMP JUMPDEST POP POP JUMP JUMPDEST PUSH1 0x1F DUP3 GT ISZERO PUSH2 0x40FA JUMPI PUSH2 0x40CB DUP2 PUSH2 0x3F9A JUMP JUMPDEST PUSH2 0x40D4 DUP5 PUSH2 0x3FAF JUMP JUMPDEST DUP2 ADD PUSH1 0x20 DUP6 LT ISZERO PUSH2 0x40E3 JUMPI DUP2 SWAP1 POP JUMPDEST PUSH2 0x40F7 PUSH2 0x40EF DUP6 PUSH2 0x3FAF JUMP JUMPDEST DUP4 ADD DUP3 PUSH2 0x4096 JUMP JUMPDEST POP POP JUMPDEST POP POP POP JUMP JUMPDEST PUSH1 0x0 DUP3 DUP3 SHR SWAP1 POP SWAP3 SWAP2 POP POP JUMP JUMPDEST PUSH1 0x0 PUSH2 0x411D PUSH1 0x0 NOT DUP5 PUSH1 0x8 MUL PUSH2 0x40FF JUMP JUMPDEST NOT DUP1 DUP4 AND SWAP2 POP POP SWAP3 SWAP2 POP POP JUMP JUMPDEST PUSH1 0x0 PUSH2 0x4136 DUP4 DUP4 PUSH2 0x410C JUMP JUMPDEST SWAP2 POP DUP3 PUSH1 0x2 MUL DUP3 OR SWAP1 POP SWAP3 SWAP2 POP POP JUMP JUMPDEST PUSH2 0x414F DUP3 PUSH2 0x31B7 JUMP JUMPDEST PUSH8 0xFFFFFFFFFFFFFFFF DUP2 GT ISZERO PUSH2 0x4168 JUMPI PUSH2 0x4167 PUSH2 0x33BB JUMP JUMPDEST JUMPDEST PUSH2 0x4172 DUP3 SLOAD PUSH2 0x3DFD JUMP JUMPDEST PUSH2 0x417D DUP3 DUP3 DUP6 PUSH2 0x40B9 JUMP JUMPDEST PUSH1 0x0 PUSH1 0x20 SWAP1 POP PUSH1 0x1F DUP4 GT PUSH1 0x1 DUP2 EQ PUSH2 0x41B0 JUMPI PUSH1 0x0 DUP5 ISZERO PUSH2 0x419E JUMPI DUP3 DUP8 ADD MLOAD SWAP1 POP JUMPDEST PUSH2 0x41A8 DUP6 DUP3 PUSH2 0x412A JUMP JUMPDEST DUP7 SSTORE POP PUSH2 0x4210 JUMP JUMPDEST PUSH1 0x1F NOT DUP5 AND PUSH2 0x41BE DUP7 PUSH2 0x3F9A JUMP JUMPDEST PUSH1 0x0 JUMPDEST DUP3 DUP2 LT ISZERO PUSH2 0x41E6 JUMPI DUP5 DUP10 ADD MLOAD DUP3 SSTORE PUSH1 0x1 DUP3 ADD SWAP2 POP PUSH1 0x20 DUP6 ADD SWAP5 POP PUSH1 0x20 DUP2 ADD SWAP1 POP PUSH2 0x41C1 JUMP JUMPDEST DUP7 DUP4 LT ISZERO PUSH2 0x4203 JUMPI DUP5 DUP10 ADD MLOAD PUSH2 0x41FF PUSH1 0x1F DUP10 AND DUP3 PUSH2 0x410C JUMP JUMPDEST DUP4 SSTORE POP JUMPDEST PUSH1 0x1 PUSH1 0x2 DUP9 MUL ADD DUP9 SSTORE POP POP POP JUMPDEST POP POP POP POP POP POP JUMP JUMPDEST PUSH1 0x0 PUSH20 0xFFFFFFFFFFFFFFFFFFFFFFFFFFFFFFFFFFFFFFFF DUP3 AND SWAP1 POP SWAP2 SWAP1 POP JUMP JUMPDEST PUSH1 0x0 PUSH2 0x4243 DUP3 PUSH2 0x4218 JUMP JUMPDEST SWAP1 POP SWAP2 SWAP1 POP JUMP JUMPDEST PUSH2 0x4253 DUP2 PUSH2 0x4238 JUMP JUMPDEST DUP3 MSTORE POP POP JUMP JUMPDEST PUSH1 0x0 DUP2 SLOAD PUSH2 0x4266 DUP2 PUSH2 0x3DFD JUMP JUMPDEST PUSH2 0x4270 DUP2 DUP7 PUSH2 0x3329 JUMP JUMPDEST SWAP5 POP PUSH1 0x1 DUP3 AND PUSH1 0x0 DUP2 EQ PUSH2 0x428B JUMPI PUSH1 0x1 DUP2 EQ PUSH2 0x42A1 JUMPI PUSH2 0x42D4 JUMP JUMPDEST PUSH1 0xFF NOT DUP4 AND DUP7 MSTORE DUP2 ISZERO ISZERO PUSH1 0x20 MUL DUP7 ADD SWAP4 POP PUSH2 0x42D4 JUMP JUMPDEST PUSH2 0x42AA DUP6 PUSH2 0x3F9A JUMP JUMPDEST PUSH1 0x0 JUMPDEST DUP4 DUP2 LT ISZERO PUSH2 0x42CC JUMPI DUP2 SLOAD DUP2 DUP10 ADD MSTORE PUSH1 0x1 DUP3 ADD SWAP2 POP PUSH1 0x20 DUP2 ADD SWAP1 POP PUSH2 0x42AD JUMP JUMPDEST DUP1 DUP9 ADD SWAP6 POP POP POP JUMPDEST POP POP POP SWAP3 SWAP2 POP POP JUMP JUMPDEST PUSH1 0x0 PUSH1 0x40 DUP3 ADD SWAP1 POP PUSH2 0x42F2 PUSH1 0x0 DUP4 ADD DUP6 PUSH2 0x424A JUMP JUMPDEST DUP2 DUP2 SUB PUSH1 0x20 DUP4 ADD MSTORE PUSH2 0x4304 DUP2 DUP5 PUSH2 0x4259 JUMP JUMPDEST SWAP1 POP SWAP4 SWAP3 POP POP POP JUMP JUMPDEST PUSH1 0x0 PUSH8 0xFFFFFFFFFFFFFFFF DUP3 GT ISZERO PUSH2 0x4328 JUMPI PUSH2 0x4327 PUSH2 0x33BB JUMP JUMPDEST JUMPDEST PUSH1 0x20 DUP3 MUL SWAP1 POP PUSH1 0x20 DUP2 ADD SWAP1 POP SWAP2 SWAP1 POP JUMP JUMPDEST PUSH1 0x0 DUP1 REVERT JUMPDEST PUSH1 0x0 DUP1 REVERT JUMPDEST PUSH2 0x434C DUP2 PUSH2 0x3603 JUMP JUMPDEST DUP2 EQ PUSH2 0x4357 JUMPI PUSH1 0x0 DUP1 REVERT JUMPDEST POP JUMP JUMPDEST PUSH1 0x0 DUP2 MLOAD SWAP1 POP PUSH2 0x4369 DUP2 PUSH2 0x4343 JUMP JUMPDEST SWAP3 SWAP2 POP POP JUMP JUMPDEST PUSH1 0x0 DUP2 MLOAD SWAP1 POP PUSH2 0x437E DUP2 PUSH2 0x30F2 JUMP JUMPDEST SWAP3 SWAP2 POP POP JUMP JUMPDEST PUSH1 0x0 PUSH1 0x80 DUP3 DUP5 SUB SLT ISZERO PUSH2 0x439A JUMPI PUSH2 0x4399 PUSH2 0x4339 JUMP JUMPDEST JUMPDEST PUSH2 0x43A4 PUSH1 0x80 PUSH2 0x341B JUMP JUMPDEST SWAP1 POP PUSH1 0x0 PUSH2 0x43B4 DUP5 DUP3 DUP6 ADD PUSH2 0x435A JUMP JUMPDEST PUSH1 0x0 DUP4 ADD MSTORE POP PUSH1 0x20 PUSH2 0x43C8 DUP5 DUP3 DUP6 ADD PUSH2 0x435A JUMP JUMPDEST PUSH1 0x20 DUP4 ADD MSTORE POP PUSH1 0x40 PUSH2 0x43DC DUP5 DUP3 DUP6 ADD PUSH2 0x436F JUMP JUMPDEST PUSH1 0x40 DUP4 ADD MSTORE POP PUSH1 0x60 PUSH2 0x43F0 DUP5 DUP3 DUP6 ADD PUSH2 0x436F JUMP JUMPDEST PUSH1 0x60 DUP4 ADD MSTORE POP SWAP3 SWAP2 POP POP JUMP JUMPDEST PUSH1 0x0 PUSH2 0x440F PUSH2 0x440A DUP5 PUSH2 0x430D JUMP JUMPDEST PUSH2 0x341B JUMP JUMPDEST SWAP1 POP DUP1 DUP4 DUP3 MSTORE PUSH1 0x20 DUP3 ADD SWAP1 POP PUSH1 0x80 DUP5 MUL DUP4 ADD DUP6 DUP2 GT ISZERO PUSH2 0x4432 JUMPI PUSH2 0x4431 PUSH2 0x3C26 JUMP JUMPDEST JUMPDEST DUP4 JUMPDEST DUP2 DUP2 LT ISZERO PUSH2 0x445B JUMPI DUP1 PUSH2 0x4447 DUP9 DUP3 PUSH2 0x4384 JUMP JUMPDEST DUP5 MSTORE PUSH1 0x20 DUP5 ADD SWAP4 POP POP PUSH1 0x80 DUP2 ADD SWAP1 POP PUSH2 0x4434 JUMP JUMPDEST POP POP POP SWAP4 SWAP3 POP POP POP JUMP JUMPDEST PUSH1 0x0 DUP3 PUSH1 0x1F DUP4 ADD SLT PUSH2 0x447A JUMPI PUSH2 0x4479 PUSH2 0x33B1 JUMP JUMPDEST JUMPDEST DUP2 MLOAD PUSH2 0x448A DUP5 DUP3 PUSH1 0x20 DUP7 ADD PUSH2 0x43FC JUMP JUMPDEST SWAP2 POP POP SWAP3 SWAP2 POP POP JUMP JUMPDEST PUSH1 0x0 PUSH1 0x20 DUP3 DUP5 SUB SLT ISZERO PUSH2 0x44A9 JUMPI PUSH2 0x44A8 PUSH2 0x30DE JUMP JUMPDEST JUMPDEST PUSH1 0x0 DUP3 ADD MLOAD PUSH8 0xFFFFFFFFFFFFFFFF DUP2 GT ISZERO PUSH2 0x44C7 JUMPI PUSH2 0x44C6 PUSH2 0x30E3 JUMP JUMPDEST JUMPDEST PUSH2 0x44D3 DUP5 DUP3 DUP6 ADD PUSH2 0x4465 JUMP JUMPDEST SWAP2 POP POP SWAP3 SWAP2 POP POP JUMP JUMPDEST PUSH1 0x0 PUSH2 0x44EF PUSH2 0x44EA DUP5 PUSH2 0x3436 JUMP JUMPDEST PUSH2 0x341B JUMP JUMPDEST SWAP1 POP DUP3 DUP2 MSTORE PUSH1 0x20 DUP2 ADD DUP5 DUP5 DUP5 ADD GT ISZERO PUSH2 0x450B JUMPI PUSH2 0x450A PUSH2 0x33B6 JUMP JUMPDEST JUMPDEST PUSH2 0x4516 DUP5 DUP3 DUP6 PUSH2 0x31D3 JUMP JUMPDEST POP SWAP4 SWAP3 POP POP POP JUMP JUMPDEST PUSH1 0x0 DUP3 PUSH1 0x1F DUP4 ADD SLT PUSH2 0x4533 JUMPI PUSH2 0x4532 PUSH2 0x33B1 JUMP JUMPDEST JUMPDEST DUP2 MLOAD PUSH2 0x4543 DUP5 DUP3 PUSH1 0x20 DUP7 ADD PUSH2 0x44DC JUMP JUMPDEST SWAP2 POP POP SWAP3 SWAP2 POP POP JUMP JUMPDEST PUSH1 0x0 PUSH1 0x40 DUP3 DUP5 SUB SLT ISZERO PUSH2 0x4562 JUMPI PUSH2 0x4561 PUSH2 0x4339 JUMP JUMPDEST JUMPDEST PUSH2 0x456C PUSH1 0x40 PUSH2 0x341B JUMP JUMPDEST SWAP1 POP PUSH1 0x0 DUP3 ADD MLOAD PUSH8 0xFFFFFFFFFFFFFFFF DUP2 GT ISZERO PUSH2 0x458C JUMPI PUSH2 0x458B PUSH2 0x433E JUMP JUMPDEST JUMPDEST PUSH2 0x4598 DUP5 DUP3 DUP6 ADD PUSH2 0x451E JUMP JUMPDEST PUSH1 0x0 DUP4 ADD MSTORE POP PUSH1 0x20 PUSH2 0x45AC DUP5 DUP3 DUP6 ADD PUSH2 0x436F JUMP JUMPDEST PUSH1 0x20 DUP4 ADD MSTORE POP SWAP3 SWAP2 POP POP JUMP JUMPDEST PUSH1 0x0 DUP1 PUSH1 0x40 DUP4 DUP6 SUB SLT ISZERO PUSH2 0x45CF JUMPI PUSH2 0x45CE PUSH2 0x30DE JUMP JUMPDEST JUMPDEST PUSH1 0x0 PUSH2 0x45DD DUP6 DUP3 DUP7 ADD PUSH2 0x436F JUMP JUMPDEST SWAP3 POP POP PUSH1 0x20 DUP4 ADD MLOAD PUSH8 0xFFFFFFFFFFFFFFFF DUP2 GT ISZERO PUSH2 0x45FE JUMPI PUSH2 0x45FD PUSH2 0x30E3 JUMP JUMPDEST JUMPDEST PUSH2 0x460A DUP6 DUP3 DUP7 ADD PUSH2 0x454C JUMP JUMPDEST SWAP2 POP POP SWAP3 POP SWAP3 SWAP1 POP JUMP JUMPDEST PUSH32 0x5468652074696D6520686173206E6F7420706173736564207965740000000000 PUSH1 0x0 DUP3 ADD MSTORE POP JUMP JUMPDEST PUSH1 0x0 PUSH2 0x464A PUSH1 0x1B DUP4 PUSH2 0x3329 JUMP JUMPDEST SWAP2 POP PUSH2 0x4655 DUP3 PUSH2 0x4614 JUMP JUMPDEST PUSH1 0x20 DUP3 ADD SWAP1 POP SWAP2 SWAP1 POP JUMP JUMPDEST PUSH1 0x0 PUSH1 0x20 DUP3 ADD SWAP1 POP DUP2 DUP2 SUB PUSH1 0x0 DUP4 ADD MSTORE PUSH2 0x4679 DUP2 PUSH2 0x463D JUMP JUMPDEST SWAP1 POP SWAP2 SWAP1 POP JUMP JUMPDEST PUSH1 0x0 PUSH8 0xFFFFFFFFFFFFFFFF DUP3 GT ISZERO PUSH2 0x469B JUMPI PUSH2 0x469A PUSH2 0x33BB JUMP JUMPDEST JUMPDEST PUSH1 0x20 DUP3 MUL SWAP1 POP PUSH1 0x20 DUP2 ADD SWAP1 POP SWAP2 SWAP1 POP JUMP JUMPDEST PUSH1 0x0 PUSH2 0x46BF PUSH2 0x46BA DUP5 PUSH2 0x4680 JUMP JUMPDEST PUSH2 0x341B JUMP JUMPDEST SWAP1 POP DUP1 DUP4 DUP3 MSTORE PUSH1 0x20 DUP3 ADD SWAP1 POP PUSH1 0x20 DUP5 MUL DUP4 ADD DUP6 DUP2 GT ISZERO PUSH2 0x46E2 JUMPI PUSH2 0x46E1 PUSH2 0x3C26 JUMP JUMPDEST JUMPDEST DUP4 JUMPDEST DUP2 DUP2 LT ISZERO PUSH2 0x4729 JUMPI DUP1 MLOAD PUSH8 0xFFFFFFFFFFFFFFFF DUP2 GT ISZERO PUSH2 0x4707 JUMPI PUSH2 0x4706 PUSH2 0x33B1 JUMP JUMPDEST JUMPDEST DUP1 DUP7 ADD PUSH2 0x4714 DUP10 DUP3 PUSH2 0x454C JUMP JUMPDEST DUP6 MSTORE PUSH1 0x20 DUP6 ADD SWAP5 POP POP POP PUSH1 0x20 DUP2 ADD SWAP1 POP PUSH2 0x46E4 JUMP JUMPDEST POP POP POP SWAP4 SWAP3 POP POP POP JUMP JUMPDEST PUSH1 0x0 DUP3 PUSH1 0x1F DUP4 ADD SLT PUSH2 0x4748 JUMPI PUSH2 0x4747 PUSH2 0x33B1 JUMP JUMPDEST JUMPDEST DUP2 MLOAD PUSH2 0x4758 DUP5 DUP3 PUSH1 0x20 DUP7 ADD PUSH2 0x46AC JUMP JUMPDEST SWAP2 POP POP SWAP3 SWAP2 POP POP JUMP JUMPDEST PUSH1 0x0 PUSH1 0x20 DUP3 DUP5 SUB SLT ISZERO PUSH2 0x4777 JUMPI PUSH2 0x4776 PUSH2 0x30DE JUMP JUMPDEST JUMPDEST PUSH1 0x0 DUP3 ADD MLOAD PUSH8 0xFFFFFFFFFFFFFFFF DUP2 GT ISZERO PUSH2 0x4795 JUMPI PUSH2 0x4794 PUSH2 0x30E3 JUMP JUMPDEST JUMPDEST PUSH2 0x47A1 DUP5 DUP3 DUP6 ADD PUSH2 0x4733 JUMP JUMPDEST SWAP2 POP POP SWAP3 SWAP2 POP POP JUMP JUMPDEST PUSH1 0x0 PUSH1 0x60 DUP3 ADD SWAP1 POP PUSH2 0x47BF PUSH1 0x0 DUP4 ADD DUP7 PUSH2 0x424A JUMP JUMPDEST DUP2 DUP2 SUB PUSH1 0x20 DUP4 ADD MSTORE PUSH2 0x47D1 DUP2 DUP6 PUSH2 0x4259 JUMP JUMPDEST SWAP1 POP PUSH2 0x47E0 PUSH1 0x40 DUP4 ADD DUP5 PUSH2 0x32FF JUMP JUMPDEST SWAP5 SWAP4 POP POP POP POP JUMP JUMPDEST PUSH1 0x0 PUSH1 0x20 DUP3 DUP5 SUB SLT ISZERO PUSH2 0x47FE JUMPI PUSH2 0x47FD PUSH2 0x30DE JUMP JUMPDEST JUMPDEST PUSH1 0x0 PUSH2 0x480C DUP5 DUP3 DUP6 ADD PUSH2 0x435A JUMP JUMPDEST SWAP2 POP POP SWAP3 SWAP2 POP POP JUMP JUMPDEST PUSH1 0x0 PUSH8 0xFFFFFFFFFFFFFFFF DUP3 GT ISZERO PUSH2 0x4830 JUMPI PUSH2 0x482F PUSH2 0x33BB JUMP JUMPDEST JUMPDEST PUSH1 0x20 DUP3 MUL SWAP1 POP PUSH1 0x20 DUP2 ADD SWAP1 POP SWAP2 SWAP1 POP JUMP JUMPDEST PUSH2 0x484A DUP2 PUSH2 0x3A5E JUMP JUMPDEST DUP2 EQ PUSH2 0x4855 JUMPI PUSH1 0x0 DUP1 REVERT JUMPDEST POP JUMP JUMPDEST PUSH1 0x0 DUP2 MLOAD SWAP1 POP PUSH2 0x4867 DUP2 PUSH2 0x4841 JUMP JUMPDEST SWAP3 SWAP2 POP POP JUMP JUMPDEST PUSH1 0x0 PUSH1 0x60 DUP3 DUP5 SUB SLT ISZERO PUSH2 0x4883 JUMPI PUSH2 0x4882 PUSH2 0x4339 JUMP JUMPDEST JUMPDEST PUSH2 0x488D PUSH1 0x60 PUSH2 0x341B JUMP JUMPDEST SWAP1 POP PUSH1 0x0 DUP3 ADD MLOAD PUSH8 0xFFFFFFFFFFFFFFFF DUP2 GT ISZERO PUSH2 0x48AD JUMPI PUSH2 0x48AC PUSH2 0x433E JUMP JUMPDEST JUMPDEST PUSH2 0x48B9 DUP5 DUP3 DUP6 ADD PUSH2 0x451E JUMP JUMPDEST PUSH1 0x0 DUP4 ADD MSTORE POP PUSH1 0x20 PUSH2 0x48CD DUP5 DUP3 DUP6 ADD PUSH2 0x436F JUMP JUMPDEST PUSH1 0x20 DUP4 ADD MSTORE POP PUSH1 0x40 PUSH2 0x48E1 DUP5 DUP3 DUP6 ADD PUSH2 0x4858 JUMP JUMPDEST PUSH1 0x40 DUP4 ADD MSTORE POP SWAP3 SWAP2 POP POP JUMP JUMPDEST PUSH1 0x0 PUSH2 0x4900 PUSH2 0x48FB DUP5 PUSH2 0x4815 JUMP JUMPDEST PUSH2 0x341B JUMP JUMPDEST SWAP1 POP DUP1 DUP4 DUP3 MSTORE PUSH1 0x20 DUP3 ADD SWAP1 POP PUSH1 0x20 DUP5 MUL DUP4 ADD DUP6 DUP2 GT ISZERO PUSH2 0x4923 JUMPI PUSH2 0x4922 PUSH2 0x3C26 JUMP JUMPDEST JUMPDEST DUP4 JUMPDEST DUP2 DUP2 LT ISZERO PUSH2 0x496A JUMPI DUP1 MLOAD PUSH8 0xFFFFFFFFFFFFFFFF DUP2 GT ISZERO PUSH2 0x4948 JUMPI PUSH2 0x4947 PUSH2 0x33B1 JUMP JUMPDEST JUMPDEST DUP1 DUP7 ADD PUSH2 0x4955 DUP10 DUP3 PUSH2 0x486D JUMP JUMPDEST DUP6 MSTORE PUSH1 0x20 DUP6 ADD SWAP5 POP POP POP PUSH1 0x20 DUP2 ADD SWAP1 POP PUSH2 0x4925 JUMP JUMPDEST POP POP POP SWAP4 SWAP3 POP POP POP JUMP JUMPDEST PUSH1 0x0 DUP3 PUSH1 0x1F DUP4 ADD SLT PUSH2 0x4989 JUMPI PUSH2 0x4988 PUSH2 0x33B1 JUMP JUMPDEST JUMPDEST DUP2 MLOAD PUSH2 0x4999 DUP5 DUP3 PUSH1 0x20 DUP7 ADD PUSH2 0x48ED JUMP JUMPDEST SWAP2 POP POP SWAP3 SWAP2 POP POP JUMP JUMPDEST PUSH1 0x0 PUSH1 0x20 DUP3 DUP5 SUB SLT ISZERO PUSH2 0x49B8 JUMPI PUSH2 0x49B7 PUSH2 0x30DE JUMP JUMPDEST JUMPDEST PUSH1 0x0 DUP3 ADD MLOAD PUSH8 0xFFFFFFFFFFFFFFFF DUP2 GT ISZERO PUSH2 0x49D6 JUMPI PUSH2 0x49D5 PUSH2 0x30E3 JUMP JUMPDEST JUMPDEST PUSH2 0x49E2 DUP5 DUP3 DUP6 ADD PUSH2 0x4974 JUMP JUMPDEST SWAP2 POP POP SWAP3 SWAP2 POP POP JUMP JUMPDEST PUSH1 0x0 DUP2 SLOAD SWAP1 POP SWAP2 SWAP1 POP JUMP JUMPDEST PUSH1 0x0 DUP2 SWAP1 POP DUP2 PUSH1 0x0 MSTORE PUSH1 0x20 PUSH1 0x0 KECCAK256 SWAP1 POP SWAP2 SWAP1 POP JUMP JUMPDEST PUSH1 0x0 DUP2 SLOAD PUSH2 0x4A18 DUP2 PUSH2 0x3DFD JUMP JUMPDEST PUSH2 0x4A22 DUP2 DUP7 PUSH2 0x31C2 JUMP JUMPDEST SWAP5 POP PUSH1 0x1 DUP3 AND PUSH1 0x0 DUP2 EQ PUSH2 0x4A3D JUMPI PUSH1 0x1 DUP2 EQ PUSH2 0x4A53 JUMPI PUSH2 0x4A86 JUMP JUMPDEST PUSH1 0xFF NOT DUP4 AND DUP7 MSTORE DUP2 ISZERO ISZERO PUSH1 0x20 MUL DUP7 ADD SWAP4 POP PUSH2 0x4A86 JUMP JUMPDEST PUSH2 0x4A5C DUP6 PUSH2 0x3F9A JUMP JUMPDEST PUSH1 0x0 JUMPDEST DUP4 DUP2 LT ISZERO PUSH2 0x4A7E JUMPI DUP2 SLOAD DUP2 DUP10 ADD MSTORE PUSH1 0x1 DUP3 ADD SWAP2 POP PUSH1 0x20 DUP2 ADD SWAP1 POP PUSH2 0x4A5F JUMP JUMPDEST DUP1 DUP9 ADD SWAP6 POP POP POP JUMPDEST POP POP POP SWAP3 SWAP2 POP POP JUMP JUMPDEST PUSH1 0x0 PUSH2 0x4A9B DUP4 DUP4 PUSH2 0x4A0B JUMP JUMPDEST SWAP1 POP SWAP3 SWAP2 POP POP JUMP JUMPDEST PUSH1 0x0 PUSH1 0x1 DUP3 ADD SWAP1 POP SWAP2 SWAP1 POP JUMP JUMPDEST PUSH1 0x0 PUSH2 0x4ABB DUP3 PUSH2 0x49EB JUMP JUMPDEST PUSH2 0x4AC5 DUP2 DUP6 PUSH2 0x3196 JUMP JUMPDEST SWAP4 POP DUP4 PUSH1 0x20 DUP3 MUL DUP6 ADD PUSH2 0x4AD7 DUP6 PUSH2 0x49F6 JUMP JUMPDEST DUP1 PUSH1 0x0 JUMPDEST DUP6 DUP2 LT ISZERO PUSH2 0x4B12 JUMPI DUP5 DUP5 SUB DUP10 MSTORE DUP2 PUSH2 0x4AF3 DUP6 DUP3 PUSH2 0x4A8F JUMP JUMPDEST SWAP5 POP PUSH2 0x4AFE DUP4 PUSH2 0x4AA3 JUMP JUMPDEST SWAP3 POP PUSH1 0x20 DUP11 ADD SWAP10 POP POP PUSH1 0x1 DUP2 ADD SWAP1 POP PUSH2 0x4ADB JUMP JUMPDEST POP DUP3 SWAP8 POP DUP8 SWAP6 POP POP POP POP POP POP SWAP3 SWAP2 POP POP JUMP JUMPDEST PUSH1 0x0 PUSH1 0x60 DUP3 ADD SWAP1 POP PUSH2 0x4B39 PUSH1 0x0 DUP4 ADD DUP7 PUSH2 0x424A JUMP JUMPDEST PUSH2 0x4B46 PUSH1 0x20 DUP4 ADD DUP6 PUSH2 0x32FF JUMP JUMPDEST DUP2 DUP2 SUB PUSH1 0x40 DUP4 ADD MSTORE PUSH2 0x4B58 DUP2 DUP5 PUSH2 0x4AB0 JUMP JUMPDEST SWAP1 POP SWAP5 SWAP4 POP POP POP POP JUMP JUMPDEST PUSH1 0x0 DUP2 ISZERO ISZERO SWAP1 POP SWAP2 SWAP1 POP JUMP JUMPDEST PUSH2 0x4B77 DUP2 PUSH2 0x4B62 JUMP JUMPDEST DUP2 EQ PUSH2 0x4B82 JUMPI PUSH1 0x0 DUP1 REVERT JUMPDEST POP JUMP JUMPDEST PUSH1 0x0 DUP2 MLOAD SWAP1 POP PUSH2 0x4B94 DUP2 PUSH2 0x4B6E JUMP JUMPDEST SWAP3 SWAP2 POP POP JUMP JUMPDEST PUSH1 0x0 PUSH1 0x20 DUP3 DUP5 SUB SLT ISZERO PUSH2 0x4BB0 JUMPI PUSH2 0x4BAF PUSH2 0x30DE JUMP JUMPDEST JUMPDEST PUSH1 0x0 PUSH2 0x4BBE DUP5 DUP3 DUP6 ADD PUSH2 0x4B85 JUMP JUMPDEST SWAP2 POP POP SWAP3 SWAP2 POP POP JUMP JUMPDEST PUSH32 0x5374616B696E6720417070726F7665206661696C656400000000000000000000 PUSH1 0x0 DUP3 ADD MSTORE POP JUMP JUMPDEST PUSH1 0x0 PUSH2 0x4BFD PUSH1 0x16 DUP4 PUSH2 0x3329 JUMP JUMPDEST SWAP2 POP PUSH2 0x4C08 DUP3 PUSH2 0x4BC7 JUMP JUMPDEST PUSH1 0x20 DUP3 ADD SWAP1 POP SWAP2 SWAP1 POP JUMP JUMPDEST PUSH1 0x0 PUSH1 0x20 DUP3 ADD SWAP1 POP DUP2 DUP2 SUB PUSH1 0x0 DUP4 ADD MSTORE PUSH2 0x4C2C DUP2 PUSH2 0x4BF0 JUMP JUMPDEST SWAP1 POP SWAP2 SWAP1 POP JUMP JUMPDEST PUSH1 0x0 PUSH1 0x40 DUP3 ADD SWAP1 POP PUSH2 0x4C48 PUSH1 0x0 DUP4 ADD DUP6 PUSH2 0x424A JUMP JUMPDEST DUP2 DUP2 SUB PUSH1 0x20 DUP4 ADD MSTORE PUSH2 0x4C5A DUP2 DUP5 PUSH2 0x4AB0 JUMP JUMPDEST SWAP1 POP SWAP4 SWAP3 POP POP POP JUMP JUMPDEST PUSH32 0x446973747269627574696F6E20417070726F7665206661696C65640000000000 PUSH1 0x0 DUP3 ADD MSTORE POP JUMP JUMPDEST PUSH1 0x0 PUSH2 0x4C99 PUSH1 0x1B DUP4 PUSH2 0x3329 JUMP JUMPDEST SWAP2 POP PUSH2 0x4CA4 DUP3 PUSH2 0x4C63 JUMP JUMPDEST PUSH1 0x20 DUP3 ADD SWAP1 POP SWAP2 SWAP1 POP JUMP JUMPDEST PUSH1 0x0 PUSH1 0x20 DUP3 ADD SWAP1 POP DUP2 DUP2 SUB PUSH1 0x0 DUP4 ADD MSTORE PUSH2 0x4CC8 DUP2 PUSH2 0x4C8C JUMP JUMPDEST SWAP1 POP SWAP2 SWAP1 POP JUMP INVALID 0x4D PUSH16 0x6E657920686173206265656E2073656E PUSH21 0x20746F2049646561204F776E6572A2646970667358 0x22 SLT KECCAK256 LOG1 CALLDATACOPY 0xB9 GASPRICE 0xC7 0xC5 0xCC 0xDA 0x23 0x24 PUSH20 0x6D8102A753B01FAE756CB6A63BE410D334E2CC28 0x2D PUSH5 0x736F6C6343 STOP ADDMOD GT STOP CALLER 0x2F PUSH4 0x6F736D6F PUSH20 0x2E7374616B696E672E763162657461312E4D7367 TIMESTAMP PUSH6 0x67696E526564 PUSH6 0x6C6567617465 PUSH6 0x766D6F737661 PUSH13 0x6F706572313538777761733476 CALLDATASIZE PUSH7 0x67637532783370 PUSH13 0x67373073367530666D306C6C65 ORIGIN CALLER CALLDATACOPY PUSH12 0x6C74722F636F736D6F732E73 PUSH21 0x616B696E672E763162657461312E4D7367556E6465 PUSH13 0x65676174652F636F736D6F732E PUSH5 0x6973747269 PUSH3 0x757469 PUSH16 0x6E2E763162657461312E4D7367576974 PUSH9 0x6472617744656C6567 PUSH2 0x746F PUSH19 0x5265776172642F636F736D6F732E7374616B69 PUSH15 0x672E763162657461312E4D73674465 PUSH13 0x65676174650000000000000000 "},"gasEstimates":{"creation":{"codeDepositCost":"3950000","executionCost":"infinite","totalCost":"infinite"},"external":{"RedeemDelegetdMoney(uint256)":"infinite","_approveRequiredMsgs()":"infinite","_dao_ids()":"2540","_dao_uris(uint256)":"infinite","_goal_ids()":"2542","_goal_uris(uint256)":"infinite","_ideas_ids()":"2495","_ideas_uris(uint256)":"infinite","_ideas_vote_ids()":"2541","_message_ids()":"2585","_reply_ids()":"2562","_smart_contract_ids()":"2586","_smart_contracts_uris(uint256)":"infinite","add_donation(uint256,uint256)":"infinite","all_goal_ideas_votes(uint256)":"infinite","all_messages(uint256)":"infinite","all_replies(uint256)":"infinite","create_dao(string,string)":"infinite","create_goal(string,uint256)":"infinite","create_goal_ideas_vote(uint256,uint256,string)":"infinite","create_ideas(string,uint256,string[])":"infinite","dao_uri(uint256)":"infinite","donate(uint256,uint256)":"infinite","donated(uint256)":"infinite","getContractBalance()":"451","getContractRewards()":"infinite","getDelegation()":"infinite","getMsgIDs(uint256)":"infinite","getReplyIDs(uint256)":"infinite","getUnbondingDelegation()":"infinite","get_all_daos()":"infinite","get_all_goals()":"infinite","get_all_goals_by_dao_id(uint256)":"infinite","get_all_ideas()":"infinite","get_all_ideas_by_goal_id(uint256)":"infinite","get_goal_id_by_goal_uri(string)":"infinite","get_goal_id_from_ideas_uri(string)":"infinite","get_ideas_id_by_ideas_uri(string)":"infinite","get_ideas_votes_from_goal(uint256,uint256)":"infinite","goal_uri(uint256)":"infinite","ideas_uri(uint256)":"infinite","reset_all()":"infinite","sendMsg(uint256,string)":"infinite","sendReply(uint256,string)":"infinite","set_dao(uint256,string,string)":"infinite","set_goal(uint256,string)":"infinite","set_ideas(uint256,string)":"infinite","stake(uint256)":"infinite","unbondingDelegations(uint256)":"infinite","withdrawAllMoney()":"infinite","withdrawDonatedMoney(uint256)":"infinite"},"internal":{"create_ideas_smart_contract(uint256,uint256,string memory)":"infinite"}},"methodIdentifiers":{"RedeemDelegetdMoney(uint256)":"90d756a7","_approveRequiredMsgs()":"b2947c71","_dao_ids()":"7bbd582d","_dao_uris(uint256)":"27a568b9","_goal_ids()":"13bf4cea","_goal_uris(uint256)":"7f2035d4","_ideas_ids()":"d3791b20","_ideas_uris(uint256)":"468d0c80","_ideas_vote_ids()":"4a797bd7","_message_ids()":"9077007d","_reply_ids()":"aa2bf5d3","_smart_contract_ids()":"1b592aeb","_smart_contracts_uris(uint256)":"ff4a37ef","add_donation(uint256,uint256)":"a2cdb3a9","all_goal_ideas_votes(uint256)":"1ba44c4c","all_messages(uint256)":"b527d45e","all_replies(uint256)":"3f87a2f4","create_dao(string,string)":"c4c2e364","create_goal(string,uint256)":"71085cab","create_goal_ideas_vote(uint256,uint256,string)":"82fcc732","create_ideas(string,uint256,string[])":"e3280c96","dao_uri(uint256)":"5d907da1","donate(uint256,uint256)":"0cdd53f6","donated(uint256)":"414d9a2b","getContractBalance()":"6f9fb98a","getContractRewards()":"ae429e47","getDelegation()":"53f68802","getMsgIDs(uint256)":"803f5b9f","getReplyIDs(uint256)":"812fae1f","getUnbondingDelegation()":"42c7652a","get_all_daos()":"c04fe978","get_all_goals()":"29b56f60","get_all_goals_by_dao_id(uint256)":"109ac970","get_all_ideas()":"97ee7606","get_all_ideas_by_goal_id(uint256)":"131d44f2","get_goal_id_by_goal_uri(string)":"1e9ac9f5","get_goal_id_from_ideas_uri(string)":"aa4cdf2a","get_ideas_id_by_ideas_uri(string)":"a1ca9178","get_ideas_votes_from_goal(uint256,uint256)":"4be7adb5","goal_uri(uint256)":"e32acc1a","ideas_uri(uint256)":"8d3d2595","reset_all()":"b16060a6","sendMsg(uint256,string)":"2d5bf5b0","sendReply(uint256,string)":"6af3304e","set_dao(uint256,string,string)":"881de858","set_goal(uint256,string)":"c29595c5","set_ideas(uint256,string)":"c04e7430","stake(uint256)":"a694fc3a","unbondingDelegations(uint256)":"7495f854","withdrawAllMoney()":"1b52b9de","withdrawDonatedMoney(uint256)":"9c6353e8"}},"storageLayout":{"storage":[{"astId":1264,"contract":"contracts/GreenDAO.sol:GreenDAO","label":"stakingMethods","offset":0,"slot":"0","type":"t_array(t_string_storage)dyn_storage"},{"astId":1269,"contract":"contracts/GreenDAO.sol:GreenDAO","label":"distributionMethods","offset":0,"slot":"1","type":"t_array(t_string_storage)dyn_storage"},{"astId":1274,"contract":"contracts/GreenDAO.sol:GreenDAO","label":"donated","offset":0,"slot":"2","type":"t_mapping(t_uint256,t_uint256)"},{"astId":1276,"contract":"contracts/GreenDAO.sol:GreenDAO","label":"_total_delegations","offset":0,"slot":"3","type":"t_uint256"},{"astId":1279,"contract":"contracts/GreenDAO.sol:GreenDAO","label":"_validatorAddr","offset":0,"slot":"4","type":"t_string_storage"},{"astId":1285,"contract":"contracts/GreenDAO.sol:GreenDAO","label":"unbondingDelegations","offset":0,"slot":"5","type":"t_mapping(t_uint256,t_struct(UnbondingRequest)1256_storage)"},{"astId":1287,"contract":"contracts/GreenDAO.sol:GreenDAO","label":"_dao_ids","offset":0,"slot":"6","type":"t_uint256"},{"astId":1289,"contract":"contracts/GreenDAO.sol:GreenDAO","label":"_goal_ids","offset":0,"slot":"7","type":"t_uint256"},{"astId":1291,"contract":"contracts/GreenDAO.sol:GreenDAO","label":"_ideas_ids","offset":0,"slot":"8","type":"t_uint256"},{"astId":1293,"contract":"contracts/GreenDAO.sol:GreenDAO","label":"_smart_contract_ids","offset":0,"slot":"9","type":"t_uint256"},{"astId":1295,"contract":"contracts/GreenDAO.sol:GreenDAO","label":"_ideas_vote_ids","offset":0,"slot":"10","type":"t_uint256"},{"astId":1297,"contract":"contracts/GreenDAO.sol:GreenDAO","label":"_message_ids","offset":0,"slot":"11","type":"t_uint256"},{"astId":1299,"contract":"contracts/GreenDAO.sol:GreenDAO","label":"_reply_ids","offset":0,"slot":"12","type":"t_uint256"},{"astId":1304,"contract":"contracts/GreenDAO.sol:GreenDAO","label":"_dao_uris","offset":0,"slot":"13","type":"t_mapping(t_uint256,t_struct(dao_uri_struct)1211_storage)"},{"astId":1309,"contract":"contracts/GreenDAO.sol:GreenDAO","label":"_goal_uris","offset":0,"slot":"14","type":"t_mapping(t_uint256,t_struct(goal_uri_struct)1216_storage)"},{"astId":1314,"contract":"contracts/GreenDAO.sol:GreenDAO","label":"_ideas_uris","offset":0,"slot":"15","type":"t_mapping(t_uint256,t_struct(ideas_uri_struct)1223_storage)"},{"astId":1319,"contract":"contracts/GreenDAO.sol:GreenDAO","label":"_smart_contracts_uris","offset":0,"slot":"16","type":"t_mapping(t_uint256,t_struct(smart_contract_uri_struct)1230_storage)"},{"astId":1324,"contract":"contracts/GreenDAO.sol:GreenDAO","label":"all_goal_ideas_votes","offset":0,"slot":"17","type":"t_mapping(t_uint256,t_struct(goal_ideas_votes_struct)1237_storage)"},{"astId":1329,"contract":"contracts/GreenDAO.sol:GreenDAO","label":"all_messages","offset":0,"slot":"18","type":"t_mapping(t_uint256,t_struct(message_struct)1244_storage)"},{"astId":1334,"contract":"contracts/GreenDAO.sol:GreenDAO","label":"all_replies","offset":0,"slot":"19","type":"t_mapping(t_uint256,t_struct(reply_struct)1251_storage)"}],"types":{"t_array(t_string_storage)dyn_storage":{"base":"t_string_storage","encoding":"dynamic_array","label":"string[]","numberOfBytes":"32"},"t_int64":{"encoding":"inplace","label":"int64","numberOfBytes":"8"},"t_mapping(t_uint256,t_struct(UnbondingRequest)1256_storage)":{"encoding":"mapping","key":"t_uint256","label":"mapping(uint256 => struct GreenDAO.UnbondingRequest)","numberOfBytes":"32","value":"t_struct(UnbondingRequest)1256_storage"},"t_mapping(t_uint256,t_struct(dao_uri_struct)1211_storage)":{"encoding":"mapping","key":"t_uint256","label":"mapping(uint256 => struct GreenDAO.dao_uri_struct)","numberOfBytes":"32","value":"t_struct(dao_uri_struct)1211_storage"},"t_mapping(t_uint256,t_struct(goal_ideas_votes_struct)1237_storage)":{"encoding":"mapping","key":"t_uint256","label":"mapping(uint256 => struct GreenDAO.goal_ideas_votes_struct)","numberOfBytes":"32","value":"t_struct(goal_ideas_votes_struct)1237_storage"},"t_mapping(t_uint256,t_struct(goal_uri_struct)1216_storage)":{"encoding":"mapping","key":"t_uint256","label":"mapping(uint256 => struct GreenDAO.goal_uri_struct)","numberOfBytes":"32","value":"t_struct(goal_uri_struct)1216_storage"},"t_mapping(t_uint256,t_struct(ideas_uri_struct)1223_storage)":{"encoding":"mapping","key":"t_uint256","label":"mapping(uint256 => struct GreenDAO.ideas_uri_struct)","numberOfBytes":"32","value":"t_struct(ideas_uri_struct)1223_storage"},"t_mapping(t_uint256,t_struct(message_struct)1244_storage)":{"encoding":"mapping","key":"t_uint256","label":"mapping(uint256 => struct GreenDAO.message_struct)","numberOfBytes":"32","value":"t_struct(message_struct)1244_storage"},"t_mapping(t_uint256,t_struct(reply_struct)1251_storage)":{"encoding":"mapping","key":"t_uint256","label":"mapping(uint256 => struct GreenDAO.reply_struct)","numberOfBytes":"32","value":"t_struct(reply_struct)1251_storage"},"t_mapping(t_uint256,t_struct(smart_contract_uri_struct)1230_storage)":{"encoding":"mapping","key":"t_uint256","label":"mapping(uint256 => struct GreenDAO.smart_contract_uri_struct)","numberOfBytes":"32","value":"t_struct(smart_contract_uri_struct)1230_storage"},"t_mapping(t_uint256,t_uint256)":{"encoding":"mapping","key":"t_uint256","label":"mapping(uint256 => uint256)","numberOfBytes":"32","value":"t_uint256"},"t_string_storage":{"encoding":"bytes","label":"string","numberOfBytes":"32"},"t_struct(UnbondingRequest)1256_storage":{"encoding":"inplace","label":"struct GreenDAO.UnbondingRequest","members":[{"astId":1253,"contract":"contracts/GreenDAO.sol:GreenDAO","label":"completionTime","offset":0,"slot":"0","type":"t_int64"},{"astId":1255,"contract":"contracts/GreenDAO.sol:GreenDAO","label":"amount","offset":0,"slot":"1","type":"t_uint256"}],"numberOfBytes":"64"},"t_struct(dao_uri_struct)1211_storage":{"encoding":"inplace","label":"struct GreenDAO.dao_uri_struct","members":[{"astId":1206,"contract":"contracts/GreenDAO.sol:GreenDAO","label":"dao_wallet","offset":0,"slot":"0","type":"t_string_storage"},{"astId":1208,"contract":"contracts/GreenDAO.sol:GreenDAO","label":"dao_uri","offset":0,"slot":"1","type":"t_string_storage"},{"astId":1210,"contract":"contracts/GreenDAO.sol:GreenDAO","label":"finished","offset":0,"slot":"2","type":"t_string_storage"}],"numberOfBytes":"96"},"t_struct(goal_ideas_votes_struct)1237_storage":{"encoding":"inplace","label":"struct GreenDAO.goal_ideas_votes_struct","members":[{"astId":1232,"contract":"contracts/GreenDAO.sol:GreenDAO","label":"goal_id","offset":0,"slot":"0","type":"t_uint256"},{"astId":1234,"contract":"contracts/GreenDAO.sol:GreenDAO","label":"ideas_id","offset":0,"slot":"1","type":"t_uint256"},{"astId":1236,"contract":"contracts/GreenDAO.sol:GreenDAO","label":"wallet","offset":0,"slot":"2","type":"t_string_storage"}],"numberOfBytes":"96"},"t_struct(goal_uri_struct)1216_storage":{"encoding":"inplace","label":"struct GreenDAO.goal_uri_struct","members":[{"astId":1213,"contract":"contracts/GreenDAO.sol:GreenDAO","label":"dao_id","offset":0,"slot":"0","type":"t_uint256"},{"astId":1215,"contract":"contracts/GreenDAO.sol:GreenDAO","label":"goal_uri","offset":0,"slot":"1","type":"t_string_storage"}],"numberOfBytes":"64"},"t_struct(ideas_uri_struct)1223_storage":{"encoding":"inplace","label":"struct GreenDAO.ideas_uri_struct","members":[{"astId":1218,"contract":"contracts/GreenDAO.sol:GreenDAO","label":"goal_id","offset":0,"slot":"0","type":"t_uint256"},{"astId":1220,"contract":"contracts/GreenDAO.sol:GreenDAO","label":"ideas_uri","offset":0,"slot":"1","type":"t_string_storage"},{"astId":1222,"contract":"contracts/GreenDAO.sol:GreenDAO","label":"donation","offset":0,"slot":"2","type":"t_uint256"}],"numberOfBytes":"96"},"t_struct(message_struct)1244_storage":{"encoding":"inplace","label":"struct GreenDAO.message_struct","members":[{"astId":1239,"contract":"contracts/GreenDAO.sol:GreenDAO","label":"message_id","offset":0,"slot":"0","type":"t_uint256"},{"astId":1241,"contract":"contracts/GreenDAO.sol:GreenDAO","label":"ideas_id","offset":0,"slot":"1","type":"t_uint256"},{"astId":1243,"contract":"contracts/GreenDAO.sol:GreenDAO","label":"message","offset":0,"slot":"2","type":"t_string_storage"}],"numberOfBytes":"96"},"t_struct(reply_struct)1251_storage":{"encoding":"inplace","label":"struct GreenDAO.reply_struct","members":[{"astId":1246,"contract":"contracts/GreenDAO.sol:GreenDAO","label":"reply_id","offset":0,"slot":"0","type":"t_uint256"},{"astId":1248,"contract":"contracts/GreenDAO.sol:GreenDAO","label":"message_id","offset":0,"slot":"1","type":"t_uint256"},{"astId":1250,"contract":"contracts/GreenDAO.sol:GreenDAO","label":"message","offset":0,"slot":"2","type":"t_string_storage"}],"numberOfBytes":"96"},"t_struct(smart_contract_uri_struct)1230_storage":{"encoding":"inplace","label":"struct GreenDAO.smart_contract_uri_struct","members":[{"astId":1225,"contract":"contracts/GreenDAO.sol:GreenDAO","label":"smart_contract_id","offset":0,"slot":"0","type":"t_uint256"},{"astId":1227,"contract":"contracts/GreenDAO.sol:GreenDAO","label":"ideas_id","offset":0,"slot":"1","type":"t_uint256"},{"astId":1229,"contract":"contracts/GreenDAO.sol:GreenDAO","label":"smart_contract_uri","offset":0,"slot":"2","type":"t_string_storage"}],"numberOfBytes":"96"},"t_uint256":{"encoding":"inplace","label":"uint256","numberOfBytes":"32"}}},"userdoc":{"kind":"user","methods":{},"version":1}}}}