{
  "_format": "hh-sol-artifact-1",
  "contractName": "GreenDAO",
  "sourceName": "contracts/GreenDAO.sol",
  "abi": [
    {
      "inputs": [
        {
          "internalType": "uint256",
          "name": "_idea_id",
          "type": "uint256"
        }
      ],
      "name": "RedeemDelegetdMoney",
      "outputs": [
        {
          "internalType": "string",
          "name": "",
          "type": "string"
        }
      ],
      "stateMutability": "nonpayable",
      "type": "function"
    },
    {
      "inputs": [],
      "name": "_approveRequiredMsgs",
      "outputs": [],
      "stateMutability": "nonpayable",
      "type": "function"
    },
    {
      "inputs": [],
      "name": "_dao_ids",
      "outputs": [
        {
          "internalType": "uint256",
          "name": "",
          "type": "uint256"
        }
      ],
      "stateMutability": "view",
      "type": "function"
    },
    {
      "inputs": [
        {
          "internalType": "uint256",
          "name": "",
          "type": "uint256"
        }
      ],
      "name": "_dao_uris",
      "outputs": [
        {
          "internalType": "string",
          "name": "dao_wallet",
          "type": "string"
        },
        {
          "internalType": "string",
          "name": "dao_uri",
          "type": "string"
        },
        {
          "internalType": "string",
          "name": "finished",
          "type": "string"
        }
      ],
      "stateMutability": "view",
      "type": "function"
    },
    {
      "inputs": [],
      "name": "_goal_ids",
      "outputs": [
        {
          "internalType": "uint256",
          "name": "",
          "type": "uint256"
        }
      ],
      "stateMutability": "view",
      "type": "function"
    },
    {
      "inputs": [
        {
          "internalType": "uint256",
          "name": "",
          "type": "uint256"
        }
      ],
      "name": "_goal_uris",
      "outputs": [
        {
          "internalType": "uint256",
          "name": "dao_id",
          "type": "uint256"
        },
        {
          "internalType": "string",
          "name": "goal_uri",
          "type": "string"
        }
      ],
      "stateMutability": "view",
      "type": "function"
    },
    {
      "inputs": [],
      "name": "_ideas_ids",
      "outputs": [
        {
          "internalType": "uint256",
          "name": "",
          "type": "uint256"
        }
      ],
      "stateMutability": "view",
      "type": "function"
    },
    {
      "inputs": [
        {
          "internalType": "uint256",
          "name": "",
          "type": "uint256"
        }
      ],
      "name": "_ideas_uris",
      "outputs": [
        {
          "internalType": "uint256",
          "name": "goal_id",
          "type": "uint256"
        },
        {
          "internalType": "string",
          "name": "ideas_uri",
          "type": "string"
        },
        {
          "internalType": "uint256",
          "name": "donation",
          "type": "uint256"
        }
      ],
      "stateMutability": "view",
      "type": "function"
    },
    {
      "inputs": [],
      "name": "_ideas_vote_ids",
      "outputs": [
        {
          "internalType": "uint256",
          "name": "",
          "type": "uint256"
        }
      ],
      "stateMutability": "view",
      "type": "function"
    },
    {
      "inputs": [],
      "name": "_message_ids",
      "outputs": [
        {
          "internalType": "uint256",
          "name": "",
          "type": "uint256"
        }
      ],
      "stateMutability": "view",
      "type": "function"
    },
    {
      "inputs": [],
      "name": "_reply_ids",
      "outputs": [
        {
          "internalType": "uint256",
          "name": "",
          "type": "uint256"
        }
      ],
      "stateMutability": "view",
      "type": "function"
    },
    {
      "inputs": [],
      "name": "_smart_contract_ids",
      "outputs": [
        {
          "internalType": "uint256",
          "name": "",
          "type": "uint256"
        }
      ],
      "stateMutability": "view",
      "type": "function"
    },
    {
      "inputs": [
        {
          "internalType": "uint256",
          "name": "",
          "type": "uint256"
        }
      ],
      "name": "_smart_contracts_uris",
      "outputs": [
        {
          "internalType": "uint256",
          "name": "smart_contract_id",
          "type": "uint256"
        },
        {
          "internalType": "uint256",
          "name": "ideas_id",
          "type": "uint256"
        },
        {
          "internalType": "string",
          "name": "smart_contract_uri",
          "type": "string"
        }
      ],
      "stateMutability": "view",
      "type": "function"
    },
    {
      "inputs": [
        {
          "internalType": "uint256",
          "name": "_ideas_id",
          "type": "uint256"
        },
        {
          "internalType": "uint256",
          "name": "_doantion",
          "type": "uint256"
        }
      ],
      "name": "add_donation",
      "outputs": [],
      "stateMutability": "nonpayable",
      "type": "function"
    },
    {
      "inputs": [
        {
          "internalType": "uint256",
          "name": "",
          "type": "uint256"
        }
      ],
      "name": "all_goal_ideas_votes",
      "outputs": [
        {
          "internalType": "uint256",
          "name": "goal_id",
          "type": "uint256"
        },
        {
          "internalType": "uint256",
          "name": "ideas_id",
          "type": "uint256"
        },
        {
          "internalType": "string",
          "name": "wallet",
          "type": "string"
        }
      ],
      "stateMutability": "view",
      "type": "function"
    },
    {
      "inputs": [
        {
          "internalType": "uint256",
          "name": "",
          "type": "uint256"
        }
      ],
      "name": "all_messages",
      "outputs": [
        {
          "internalType": "uint256",
          "name": "message_id",
          "type": "uint256"
        },
        {
          "internalType": "uint256",
          "name": "ideas_id",
          "type": "uint256"
        },
        {
          "internalType": "string",
          "name": "message",
          "type": "string"
        }
      ],
      "stateMutability": "view",
      "type": "function"
    },
    {
      "inputs": [
        {
          "internalType": "uint256",
          "name": "",
          "type": "uint256"
        }
      ],
      "name": "all_replies",
      "outputs": [
        {
          "internalType": "uint256",
          "name": "reply_id",
          "type": "uint256"
        },
        {
          "internalType": "uint256",
          "name": "message_id",
          "type": "uint256"
        },
        {
          "internalType": "string",
          "name": "message",
          "type": "string"
        }
      ],
      "stateMutability": "view",
      "type": "function"
    },
    {
      "inputs": [
        {
          "internalType": "string",
          "name": "_dao_wallet",
          "type": "string"
        },
        {
          "internalType": "string",
          "name": "_dao_uri",
          "type": "string"
        }
      ],
      "name": "create_dao",
      "outputs": [
        {
          "internalType": "uint256",
          "name": "",
          "type": "uint256"
        }
      ],
      "stateMutability": "nonpayable",
      "type": "function"
    },
    {
      "inputs": [
        {
          "internalType": "string",
          "name": "_goal_uri",
          "type": "string"
        },
        {
          "internalType": "uint256",
          "name": "_dao_id",
          "type": "uint256"
        }
      ],
      "name": "create_goal",
      "outputs": [
        {
          "internalType": "uint256",
          "name": "",
          "type": "uint256"
        }
      ],
      "stateMutability": "nonpayable",
      "type": "function"
    },
    {
      "inputs": [
        {
          "internalType": "uint256",
          "name": "_goal_id",
          "type": "uint256"
        },
        {
          "internalType": "uint256",
          "name": "_ideas_id",
          "type": "uint256"
        },
        {
          "internalType": "string",
          "name": "_wallet",
          "type": "string"
        }
      ],
      "name": "create_goal_ideas_vote",
      "outputs": [
        {
          "internalType": "uint256",
          "name": "",
          "type": "uint256"
        }
      ],
      "stateMutability": "nonpayable",
      "type": "function"
    },
    {
      "inputs": [
        {
          "internalType": "string",
          "name": "_ideas_uri",
          "type": "string"
        },
        {
          "internalType": "uint256",
          "name": "_goal_id",
          "type": "uint256"
        },
        {
          "internalType": "string[]",
          "name": "_smart_contracts",
          "type": "string[]"
        }
      ],
      "name": "create_ideas",
      "outputs": [
        {
          "internalType": "uint256",
          "name": "",
          "type": "uint256"
        }
      ],
      "stateMutability": "nonpayable",
      "type": "function"
    },
    {
      "inputs": [
        {
          "internalType": "uint256",
          "name": "_dao_id",
          "type": "uint256"
        }
      ],
      "name": "dao_uri",
      "outputs": [
        {
          "internalType": "string",
          "name": "",
          "type": "string"
        }
      ],
      "stateMutability": "view",
      "type": "function"
    },
    {
      "inputs": [
        {
          "internalType": "uint256",
          "name": "_idea_id",
          "type": "uint256"
        },
        {
          "internalType": "uint256",
          "name": "_amount",
          "type": "uint256"
        }
      ],
      "name": "donate",
      "outputs": [],
      "stateMutability": "payable",
      "type": "function"
    },
    {
      "inputs": [
        {
          "internalType": "uint256",
          "name": "",
          "type": "uint256"
        }
      ],
      "name": "donated",
      "outputs": [
        {
          "internalType": "uint256",
          "name": "",
          "type": "uint256"
        }
      ],
      "stateMutability": "view",
      "type": "function"
    },
    {
      "inputs": [],
      "name": "getContractBalance",
      "outputs": [
        {
          "internalType": "uint256",
          "name": "",
          "type": "uint256"
        }
      ],
      "stateMutability": "view",
      "type": "function"
    },
    {
      "inputs": [],
      "name": "getContractRewards",
      "outputs": [
        {
          "components": [
            {
              "internalType": "string",
              "name": "denom",
              "type": "string"
            },
            {
              "internalType": "uint256",
              "name": "amount",
              "type": "uint256"
            },
            {
              "internalType": "uint8",
              "name": "precision",
              "type": "uint8"
            }
          ],
          "internalType": "struct DecCoin[]",
          "name": "",
          "type": "tuple[]"
        }
      ],
      "stateMutability": "view",
      "type": "function"
    },
    {
      "inputs": [],
      "name": "getDelegation",
      "outputs": [
        {
          "internalType": "uint256",
          "name": "",
          "type": "uint256"
        }
      ],
      "stateMutability": "view",
      "type": "function"
    },
    {
      "inputs": [
        {
          "internalType": "uint256",
          "name": "ideas_id",
          "type": "uint256"
        }
      ],
      "name": "getMsgIDs",
      "outputs": [
        {
          "internalType": "uint256[]",
          "name": "",
          "type": "uint256[]"
        }
      ],
      "stateMutability": "view",
      "type": "function"
    },
    {
      "inputs": [
        {
          "internalType": "uint256",
          "name": "message_id",
          "type": "uint256"
        }
      ],
      "name": "getReplyIDs",
      "outputs": [
        {
          "internalType": "uint256[]",
          "name": "",
          "type": "uint256[]"
        }
      ],
      "stateMutability": "view",
      "type": "function"
    },
    {
      "inputs": [],
      "name": "getUnbondingDelegation",
      "outputs": [
        {
          "components": [
            {
              "internalType": "int64",
              "name": "creationHeight",
              "type": "int64"
            },
            {
              "internalType": "int64",
              "name": "completionTime",
              "type": "int64"
            },
            {
              "internalType": "uint256",
              "name": "initialBalance",
              "type": "uint256"
            },
            {
              "internalType": "uint256",
              "name": "balance",
              "type": "uint256"
            }
          ],
          "internalType": "struct UnbondingDelegationEntry[]",
          "name": "",
          "type": "tuple[]"
        }
      ],
      "stateMutability": "view",
      "type": "function"
    },
    {
      "inputs": [],
      "name": "get_all_daos",
      "outputs": [
        {
          "internalType": "string[]",
          "name": "",
          "type": "string[]"
        }
      ],
      "stateMutability": "view",
      "type": "function"
    },
    {
      "inputs": [],
      "name": "get_all_goals",
      "outputs": [
        {
          "internalType": "string[]",
          "name": "",
          "type": "string[]"
        }
      ],
      "stateMutability": "view",
      "type": "function"
    },
    {
      "inputs": [
        {
          "internalType": "uint256",
          "name": "_dao_id",
          "type": "uint256"
        }
      ],
      "name": "get_all_goals_by_dao_id",
      "outputs": [
        {
          "internalType": "string[]",
          "name": "",
          "type": "string[]"
        }
      ],
      "stateMutability": "view",
      "type": "function"
    },
    {
      "inputs": [],
      "name": "get_all_ideas",
      "outputs": [
        {
          "internalType": "string[]",
          "name": "",
          "type": "string[]"
        }
      ],
      "stateMutability": "view",
      "type": "function"
    },
    {
      "inputs": [
        {
          "internalType": "uint256",
          "name": "_goal_id",
          "type": "uint256"
        }
      ],
      "name": "get_all_ideas_by_goal_id",
      "outputs": [
        {
          "internalType": "string[]",
          "name": "",
          "type": "string[]"
        }
      ],
      "stateMutability": "view",
      "type": "function"
    },
    {
      "inputs": [
        {
          "internalType": "string",
          "name": "_goal_uri",
          "type": "string"
        }
      ],
      "name": "get_goal_id_by_goal_uri",
      "outputs": [
        {
          "internalType": "uint256",
          "name": "",
          "type": "uint256"
        }
      ],
      "stateMutability": "view",
      "type": "function"
    },
    {
      "inputs": [
        {
          "internalType": "string",
          "name": "_ideas_uri",
          "type": "string"
        }
      ],
      "name": "get_goal_id_from_ideas_uri",
      "outputs": [
        {
          "internalType": "uint256",
          "name": "",
          "type": "uint256"
        }
      ],
      "stateMutability": "view",
      "type": "function"
    },
    {
      "inputs": [
        {
          "internalType": "string",
          "name": "_ideas_uri",
          "type": "string"
        }
      ],
      "name": "get_ideas_id_by_ideas_uri",
      "outputs": [
        {
          "internalType": "uint256",
          "name": "",
          "type": "uint256"
        }
      ],
      "stateMutability": "view",
      "type": "function"
    },
    {
      "inputs": [
        {
          "internalType": "uint256",
          "name": "_goal_id",
          "type": "uint256"
        },
        {
          "internalType": "uint256",
          "name": "_ideas_id",
          "type": "uint256"
        }
      ],
      "name": "get_ideas_votes_from_goal",
      "outputs": [
        {
          "internalType": "string[]",
          "name": "",
          "type": "string[]"
        }
      ],
      "stateMutability": "view",
      "type": "function"
    },
    {
      "inputs": [
        {
          "internalType": "uint256",
          "name": "_goal_id",
          "type": "uint256"
        }
      ],
      "name": "goal_uri",
      "outputs": [
        {
          "internalType": "string",
          "name": "",
          "type": "string"
        }
      ],
      "stateMutability": "view",
      "type": "function"
    },
    {
      "inputs": [
        {
          "internalType": "uint256",
          "name": "_ideas_id",
          "type": "uint256"
        }
      ],
      "name": "ideas_uri",
      "outputs": [
        {
          "internalType": "string",
          "name": "",
          "type": "string"
        }
      ],
      "stateMutability": "view",
      "type": "function"
    },
    {
      "inputs": [],
      "name": "reset_all",
      "outputs": [],
      "stateMutability": "nonpayable",
      "type": "function"
    },
    {
      "inputs": [
        {
          "internalType": "uint256",
          "name": "_ideas_id",
          "type": "uint256"
        },
        {
          "internalType": "string",
          "name": "_message",
          "type": "string"
        }
      ],
      "name": "sendMsg",
      "outputs": [
        {
          "internalType": "uint256",
          "name": "",
          "type": "uint256"
        }
      ],
      "stateMutability": "nonpayable",
      "type": "function"
    },
    {
      "inputs": [
        {
          "internalType": "uint256",
          "name": "_message_id",
          "type": "uint256"
        },
        {
          "internalType": "string",
          "name": "_reply",
          "type": "string"
        }
      ],
      "name": "sendReply",
      "outputs": [
        {
          "internalType": "uint256",
          "name": "",
          "type": "uint256"
        }
      ],
      "stateMutability": "nonpayable",
      "type": "function"
    },
    {
      "inputs": [
        {
          "internalType": "uint256",
          "name": "_dao_id",
          "type": "uint256"
        },
        {
          "internalType": "string",
          "name": "_dao_wallet",
          "type": "string"
        },
        {
          "internalType": "string",
          "name": "_dao_uri",
          "type": "string"
        }
      ],
      "name": "set_dao",
      "outputs": [],
      "stateMutability": "nonpayable",
      "type": "function"
    },
    {
      "inputs": [
        {
          "internalType": "uint256",
          "name": "_goal_id",
          "type": "uint256"
        },
        {
          "internalType": "string",
          "name": "_goal_uri",
          "type": "string"
        }
      ],
      "name": "set_goal",
      "outputs": [],
      "stateMutability": "nonpayable",
      "type": "function"
    },
    {
      "inputs": [
        {
          "internalType": "uint256",
          "name": "_ideas_id",
          "type": "uint256"
        },
        {
          "internalType": "string",
          "name": "_ideas_uri",
          "type": "string"
        }
      ],
      "name": "set_ideas",
      "outputs": [],
      "stateMutability": "nonpayable",
      "type": "function"
    },
    {
      "inputs": [
        {
          "internalType": "uint256",
          "name": "_amount",
          "type": "uint256"
        }
      ],
      "name": "stake",
      "outputs": [],
      "stateMutability": "nonpayable",
      "type": "function"
    },
    {
      "inputs": [
        {
          "internalType": "uint256",
          "name": "",
          "type": "uint256"
        }
      ],
      "name": "unbondingDelegations",
      "outputs": [
        {
          "internalType": "int64",
          "name": "completionTime",
          "type": "int64"
        },
        {
          "internalType": "uint256",
          "name": "amount",
          "type": "uint256"
        }
      ],
      "stateMutability": "view",
      "type": "function"
    },
    {
      "inputs": [],
      "name": "withdrawAllMoney",
      "outputs": [],
      "stateMutability": "nonpayable",
      "type": "function"
    },
    {
      "inputs": [
        {
          "internalType": "uint256",
          "name": "_idea_id",
          "type": "uint256"
        }
      ],
      "name": "withdrawDonatedMoney",
      "outputs": [
        {
          "internalType": "int64",
          "name": "",
          "type": "int64"
        }
      ],
      "stateMutability": "nonpayable",
      "type": "function"
    }
  ],
  "bytecode": "0x6080604052604051806060016040528060405180606001604052806023815260200162005394602391398152602001604051806060016040528060258152602001620053386025913981526020016040518060600160405280602a8152602001620052db602a913981525060009060036200007c929190620000f7565b5060405180602001604052806040518060600160405280603781526020016200535d603791398152506001906001620000b792919062000157565b50604051806060016040528060338152602001620053056033913960049081620000e29190620004be565b50348015620000f057600080fd5b50620005a5565b82805482825590600052602060002090810192821562000144579160200282015b8281111562000143578251829081620001329190620004be565b509160200191906001019062000118565b5b509050620001539190620001b7565b5090565b828054828255906000526020600020908101928215620001a4579160200282015b82811115620001a3578251829081620001929190620004be565b509160200191906001019062000178565b5b509050620001b39190620001b7565b5090565b5b80821115620001db5760008181620001d19190620001df565b50600101620001b8565b5090565b508054620001ed90620002ad565b6000825580601f1062000201575062000222565b601f01602090049060005260206000209081019062000221919062000225565b5b50565b5b808211156200024057600081600090555060010162000226565b5090565b600081519050919050565b7f4e487b7100000000000000000000000000000000000000000000000000000000600052604160045260246000fd5b7f4e487b7100000000000000000000000000000000000000000000000000000000600052602260045260246000fd5b60006002820490506001821680620002c657607f821691505b602082108103620002dc57620002db6200027e565b5b50919050565b60008190508160005260206000209050919050565b60006020601f8301049050919050565b600082821b905092915050565b600060088302620003467fffffffffffffffffffffffffffffffffffffffffffffffffffffffffffffffff8262000307565b62000352868362000307565b95508019841693508086168417925050509392505050565b6000819050919050565b6000819050919050565b60006200039f6200039962000393846200036a565b62000374565b6200036a565b9050919050565b6000819050919050565b620003bb836200037e565b620003d3620003ca82620003a6565b84845462000314565b825550505050565b600090565b620003ea620003db565b620003f7818484620003b0565b505050565b5b818110156200041f5762000413600082620003e0565b600181019050620003fd565b5050565b601f8211156200046e576200043881620002e2565b6200044384620002f7565b8101602085101562000453578190505b6200046b6200046285620002f7565b830182620003fc565b50505b505050565b600082821c905092915050565b6000620004936000198460080262000473565b1980831691505092915050565b6000620004ae838362000480565b9150826002028217905092915050565b620004c98262000244565b67ffffffffffffffff811115620004e557620004e46200024f565b5b620004f18254620002ad565b620004fe82828562000423565b600060209050601f83116001811462000536576000841562000521578287015190505b6200052d8582620004a0565b8655506200059d565b601f1984166200054686620002e2565b60005b82811015620005705784890151825560018201915060208501945060208101905062000549565b868310156200059057848901516200058c601f89168262000480565b8355505b6001600288020188555050505b505050505050565b614d2680620005b56000396000f3fe6080604052600436106102e45760003560e01c8063803f5b9f11610190578063aa4cdf2a116100dc578063c04fe97811610095578063d3791b201161006f578063d3791b2014610c47578063e3280c9614610c72578063e32acc1a14610caf578063ff4a37ef14610cec576102e4565b8063c04fe97814610bb6578063c29595c514610be1578063c4c2e36414610c0a576102e4565b8063aa4cdf2a14610ab8578063ae429e4714610af5578063b16060a614610b20578063b2947c7114610b37578063b527d45e14610b4e578063c04e743014610b8d576102e4565b806390d756a711610149578063a1ca917811610123578063a1ca9178146109fe578063a2cdb3a914610a3b578063a694fc3a14610a64578063aa2bf5d314610a8d576102e4565b806390d756a71461095957806397ee7606146109965780639c6353e8146109c1576102e4565b8063803f5b9f14610811578063812fae1f1461084e57806382fcc7321461088b578063881de858146108c85780638d3d2595146108f15780639077007d1461092e576102e4565b8063414d9a2b1161024f5780635d907da11161020857806371085cab116101e257806371085cab1461072d5780637495f8541461076a5780637bbd582d146107a85780637f2035d4146107d3576102e4565b80635d907da1146106885780636af3304e146106c55780636f9fb98a14610702576102e4565b8063414d9a2b1461054e57806342c7652a1461058b578063468d0c80146105b65780634a797bd7146105f55780634be7adb51461062057806353f688021461065d576102e4565b80631ba44c4c116102a15780631ba44c4c146103ec5780631e9ac9f51461042b57806327a568b91461046857806329b56f60146104a75780632d5bf5b0146104d25780633f87a2f41461050f576102e4565b80630cdd53f6146102e9578063109ac97014610305578063131d44f21461034257806313bf4cea1461037f5780631b52b9de146103aa5780631b592aeb146103c1575b600080fd5b61030360048036038101906102fe919061311e565b610d2b565b005b34801561031157600080fd5b5061032c6004803603810190610327919061315e565b610d61565b60405161033991906132dd565b60405180910390f35b34801561034e57600080fd5b506103696004803603810190610364919061315e565b610ed0565b60405161037691906132dd565b60405180910390f35b34801561038b57600080fd5b5061039461103f565b6040516103a1919061330e565b60405180910390f35b3480156103b657600080fd5b506103bf611045565b005b3480156103cd57600080fd5b506103d66110ba565b6040516103e3919061330e565b60405180910390f35b3480156103f857600080fd5b50610413600480360381019061040e919061315e565b6110c0565b60405161042293929190613373565b60405180910390f35b34801561043757600080fd5b50610452600480360381019061044d91906134e6565b611172565b60405161045f919061330e565b60405180910390f35b34801561047457600080fd5b5061048f600480360381019061048a919061315e565b6111e3565b60405161049e9392919061352f565b60405180910390f35b3480156104b357600080fd5b506104bc6113a5565b6040516104c991906132dd565b60405180910390f35b3480156104de57600080fd5b506104f960048036038101906104f4919061357b565b6114e0565b604051610506919061330e565b60405180910390f35b34801561051b57600080fd5b506105366004803603810190610531919061315e565b611564565b60405161054593929190613373565b60405180910390f35b34801561055a57600080fd5b506105756004803603810190610570919061315e565b611616565b604051610582919061330e565b60405180910390f35b34801561059757600080fd5b506105a061162e565b6040516105ad9190613706565b60405180910390f35b3480156105c257600080fd5b506105dd60048036038101906105d8919061315e565b6116b9565b6040516105ec93929190613728565b60405180910390f35b34801561060157600080fd5b5061060a61176b565b604051610617919061330e565b60405180910390f35b34801561062c57600080fd5b506106476004803603810190610642919061311e565b611771565b60405161065491906132dd565b60405180910390f35b34801561066957600080fd5b50610672611903565b60405161067f919061330e565b60405180910390f35b34801561069457600080fd5b506106af60048036038101906106aa919061315e565b61199c565b6040516106bc9190613766565b60405180910390f35b3480156106d157600080fd5b506106ec60048036038101906106e7919061357b565b611a44565b6040516106f9919061330e565b60405180910390f35b34801561070e57600080fd5b50610717611ac8565b604051610724919061330e565b60405180910390f35b34801561073957600080fd5b50610754600480360381019061074f9190613788565b611ad0565b604051610761919061330e565b60405180910390f35b34801561077657600080fd5b50610791600480360381019061078c919061315e565b611b42565b60405161079f9291906137f3565b60405180910390f35b3480156107b457600080fd5b506107bd611b73565b6040516107ca919061330e565b60405180910390f35b3480156107df57600080fd5b506107fa60048036038101906107f5919061315e565b611b79565b60405161080892919061381c565b60405180910390f35b34801561081d57600080fd5b506108386004803603810190610833919061315e565b611c25565b60405161084591906138fb565b60405180910390f35b34801561085a57600080fd5b506108756004803603810190610870919061315e565b611d08565b60405161088291906138fb565b60405180910390f35b34801561089757600080fd5b506108b260048036038101906108ad919061391d565b611deb565b6040516108bf919061330e565b60405180910390f35b3480156108d457600080fd5b506108ef60048036038101906108ea919061398c565b611e6e565b005b3480156108fd57600080fd5b506109186004803603810190610913919061315e565b611ebb565b6040516109259190613766565b60405180910390f35b34801561093a57600080fd5b50610943611f63565b604051610950919061330e565b60405180910390f35b34801561096557600080fd5b50610980600480360381019061097b919061315e565b611f69565b60405161098d9190613766565b60405180910390f35b3480156109a257600080fd5b506109ab61208b565b6040516109b891906132dd565b60405180910390f35b3480156109cd57600080fd5b506109e860048036038101906109e3919061315e565b6121c6565b6040516109f59190613a17565b60405180910390f35b348015610a0a57600080fd5b50610a256004803603810190610a2091906134e6565b61243a565b604051610a32919061330e565b60405180910390f35b348015610a4757600080fd5b50610a626004803603810190610a5d919061311e565b6124ab565b005b348015610a7057600080fd5b50610a8b6004803603810190610a86919061315e565b6124dc565b005b348015610a9957600080fd5b50610aa2612563565b604051610aaf919061330e565b60405180910390f35b348015610ac457600080fd5b50610adf6004803603810190610ada91906134e6565b612569565b604051610aec919061330e565b60405180910390f35b348015610b0157600080fd5b50610b0a6125f0565b604051610b179190613b60565b60405180910390f35b348015610b2c57600080fd5b50610b3561267b565b005b348015610b4357600080fd5b50610b4c612916565b005b348015610b5a57600080fd5b50610b756004803603810190610b70919061315e565b612ac6565b604051610b8493929190613373565b60405180910390f35b348015610b9957600080fd5b50610bb46004803603810190610baf919061357b565b612b78565b005b348015610bc257600080fd5b50610bcb612ba0565b604051610bd891906132dd565b60405180910390f35b348015610bed57600080fd5b50610c086004803603810190610c03919061357b565b612cdb565b005b348015610c1657600080fd5b50610c316004803603810190610c2c9190613b82565b612d03565b604051610c3e919061330e565b60405180910390f35b348015610c5357600080fd5b50610c5c612dd2565b604051610c69919061330e565b60405180910390f35b348015610c7e57600080fd5b50610c996004803603810190610c949190613ce0565b612dd8565b604051610ca6919061330e565b60405180910390f35b348015610cbb57600080fd5b50610cd66004803603810190610cd1919061315e565b612ebd565b604051610ce39190613766565b60405180910390f35b348015610cf857600080fd5b50610d136004803603810190610d0e919061315e565b612f65565b604051610d2293929190613373565b60405180910390f35b610d33612916565b80600260008481526020019081526020016000206000828254610d569190613d9a565b925050819055505050565b6060600060075467ffffffffffffffff811115610d8157610d806133bb565b5b604051908082528060200260200182016040528015610db457816020015b6060815260200190600190039081610d9f5790505b509050600080600090505b600754811015610ec55784600e60008381526020019081526020016000206000015403610eb257600e60008281526020019081526020016000206001018054610e0790613dfd565b80601f0160208091040260200160405190810160405280929190818152602001828054610e3390613dfd565b8015610e805780601f10610e5557610100808354040283529160200191610e80565b820191906000526020600020905b815481529060010190602001808311610e6357829003601f168201915b5050505050838381518110610e9857610e97613e2e565b5b60200260200101819052508180610eae90613e5d565b9250505b8080610ebd90613e5d565b915050610dbf565b508192505050919050565b6060600060085467ffffffffffffffff811115610ef057610eef6133bb565b5b604051908082528060200260200182016040528015610f2357816020015b6060815260200190600190039081610f0e5790505b509050600080600090505b6008548110156110345784600f6000838152602001908152602001600020600001540361101357600f60008281526020019081526020016000206001018054610f7690613dfd565b80601f0160208091040260200160405190810160405280929190818152602001828054610fa290613dfd565b8015610fef5780601f10610fc457610100808354040283529160200191610fef565b820191906000526020600020905b815481529060010190602001808311610fd257829003601f168201915b505050505083838151811061100757611006613e2e565b5b60200260200101819052505b818061101e90613e5d565b925050808061102c90613e5d565b915050610f2e565b508192505050919050565b60075481565b600047905060003373ffffffffffffffffffffffffffffffffffffffff168260405161107090613ed6565b60006040518083038185875af1925050503d80600081146110ad576040519150601f19603f3d011682016040523d82523d6000602084013e6110b2565b606091505b505090505050565b60095481565b60116020528060005260406000206000915090508060000154908060010154908060020180546110ef90613dfd565b80601f016020809104026020016040519081016040528092919081815260200182805461111b90613dfd565b80156111685780601f1061113d57610100808354040283529160200191611168565b820191906000526020600020905b81548152906001019060200180831161114b57829003601f168201915b5050505050905083565b600080600090505b6007548110156111d8578280519060200120600e60008381526020019081526020016000206001016040516111af9190613f83565b6040518091039020036111c557809150506111de565b80806111d090613e5d565b91505061117a565b50600090505b919050565b600d60205280600052604060002060009150905080600001805461120690613dfd565b80601f016020809104026020016040519081016040528092919081815260200182805461123290613dfd565b801561127f5780601f106112545761010080835404028352916020019161127f565b820191906000526020600020905b81548152906001019060200180831161126257829003601f168201915b50505050509080600101805461129490613dfd565b80601f01602080910402602001604051908101604052809291908181526020018280546112c090613dfd565b801561130d5780601f106112e25761010080835404028352916020019161130d565b820191906000526020600020905b8154815290600101906020018083116112f057829003601f168201915b50505050509080600201805461132290613dfd565b80601f016020809104026020016040519081016040528092919081815260200182805461134e90613dfd565b801561139b5780601f106113705761010080835404028352916020019161139b565b820191906000526020600020905b81548152906001019060200180831161137e57829003601f168201915b5050505050905083565b6060600060075467ffffffffffffffff8111156113c5576113c46133bb565b5b6040519080825280602002602001820160405280156113f857816020015b60608152602001906001900390816113e35790505b50905060005b6007548110156114d857600e6000828152602001908152602001600020600101805461142990613dfd565b80601f016020809104026020016040519081016040528092919081815260200182805461145590613dfd565b80156114a25780601f10611477576101008083540402835291602001916114a2565b820191906000526020600020905b81548152906001019060200180831161148557829003601f168201915b50505050508282815181106114ba576114b9613e2e565b5b602002602001018190525080806114d090613e5d565b9150506113fe565b508091505090565b60006040518060600160405280600b5481526020018481526020018381525060126000600b5481526020019081526020016000206000820151816000015560208201518160010155604082015181600201908161153d9190614146565b50905050600b600081548092919061155490613e5d565b9190505550600b54905092915050565b601360205280600052604060002060009150905080600001549080600101549080600201805461159390613dfd565b80601f01602080910402602001604051908101604052809291908181526020018280546115bf90613dfd565b801561160c5780601f106115e15761010080835404028352916020019161160c565b820191906000526020600020905b8154815290600101906020018083116115ef57829003601f168201915b5050505050905083565b60026020528060005260406000206000915090505481565b606061080073ffffffffffffffffffffffffffffffffffffffff1663a03ffee13060046040518363ffffffff1660e01b815260040161166e9291906142dd565b600060405180830381865afa15801561168b573d6000803e3d6000fd5b505050506040513d6000823e3d601f19601f820116820180604052508101906116b49190614493565b905090565b600f6020528060005260406000206000915090508060000154908060010180546116e290613dfd565b80601f016020809104026020016040519081016040528092919081815260200182805461170e90613dfd565b801561175b5780601f106117305761010080835404028352916020019161175b565b820191906000526020600020905b81548152906001019060200180831161173e57829003601f168201915b5050505050908060020154905083565b600a5481565b60606000600a5467ffffffffffffffff811115611791576117906133bb565b5b6040519080825280602002602001820160405280156117c457816020015b60608152602001906001900390816117af5790505b509050600080600090505b600a548110156118f7578560116000838152602001908152602001600020600001541480156118135750846011600083815260200190815260200160002060010154145b156118d65760116000828152602001908152602001600020600201805461183990613dfd565b80601f016020809104026020016040519081016040528092919081815260200182805461186590613dfd565b80156118b25780601f10611887576101008083540402835291602001916118b2565b820191906000526020600020905b81548152906001019060200180831161189557829003601f168201915b50505050508383815181106118ca576118c9613e2e565b5b60200260200101819052505b81806118e190613e5d565b92505080806118ef90613e5d565b9150506117cf565b50819250505092915050565b600080600061080073ffffffffffffffffffffffffffffffffffffffff1663241774e63060046040518363ffffffff1660e01b81526004016119469291906142dd565b600060405180830381865afa158015611963573d6000803e3d6000fd5b505050506040513d6000823e3d601f19601f8201168201806040525081019061198c91906145b8565b9150915080602001519250505090565b6060600d600083815260200190815260200160002060010180546119bf90613dfd565b80601f01602080910402602001604051908101604052809291908181526020018280546119eb90613dfd565b8015611a385780601f10611a0d57610100808354040283529160200191611a38565b820191906000526020600020905b815481529060010190602001808311611a1b57829003601f168201915b50505050509050919050565b60006040518060600160405280600c5481526020018481526020018381525060136000600c54815260200190815260200160002060008201518160000155602082015181600101556040820151816002019081611aa19190614146565b50905050600c6000815480929190611ab890613e5d565b9190505550600c54905092915050565b600047905090565b6000604051806040016040528083815260200184815250600e60006007548152602001908152602001600020600082015181600001556020820151816001019081611b1b9190614146565b5090505060076000815480929190611b3290613e5d565b9190505550600754905092915050565b60056020528060005260406000206000915090508060000160009054906101000a900460070b908060010154905082565b60065481565b600e602052806000526040600020600091509050806000015490806001018054611ba290613dfd565b80601f0160208091040260200160405190810160405280929190818152602001828054611bce90613dfd565b8015611c1b5780601f10611bf057610100808354040283529160200191611c1b565b820191906000526020600020905b815481529060010190602001808311611bfe57829003601f168201915b5050505050905082565b60606000600b5467ffffffffffffffff811115611c4557611c446133bb565b5b604051908082528060200260200182016040528015611c735781602001602082028036833780820191505090505b509050600080600090505b600b54811015611cfd5784601260008381526020019081526020016000206001015403611cea576012600082815260200190815260200160002060000154838381518110611ccf57611cce613e2e565b5b6020026020010181815250508180611ce690613e5d565b9250505b8080611cf590613e5d565b915050611c7e565b508192505050919050565b60606000600c5467ffffffffffffffff811115611d2857611d276133bb565b5b604051908082528060200260200182016040528015611d565781602001602082028036833780820191505090505b509050600080600090505b600c54811015611de05784601360008381526020019081526020016000206001015403611dcd576013600082815260200190815260200160002060000154838381518110611db257611db1613e2e565b5b6020026020010181815250508180611dc990613e5d565b9250505b8080611dd890613e5d565b915050611d61565b508192505050919050565b600060405180606001604052808581526020018481526020018381525060116000600a54815260200190815260200160002060008201518160000155602082015181600101556040820151816002019081611e469190614146565b50905050600a6000815480929190611e5d90613e5d565b9190505550600a5490509392505050565b81600d60008581526020019081526020016000206000019081611e919190614146565b5080600d60008581526020019081526020016000206001019081611eb59190614146565b50505050565b6060600f60008381526020019081526020016000206001018054611ede90613dfd565b80601f0160208091040260200160405190810160405280929190818152602001828054611f0a90613dfd565b8015611f575780601f10611f2c57610100808354040283529160200191611f57565b820191906000526020600020905b815481529060010190602001808311611f3a57829003601f168201915b50505050509050919050565b600b5481565b6060611f73612916565b60006005600084815260200190815260200160002060000160009054906101000a900460070b60070b905080421015611fe1576040517f08c379a0000000000000000000000000000000000000000000000000000000008152600401611fd890614660565b60405180910390fd5b60006005600085815260200190815260200160002060010154905060003373ffffffffffffffffffffffffffffffffffffffff168260405161202290613ed6565b60006040518083038185875af1925050503d806000811461205f576040519150601f19603f3d011682016040523d82523d6000602084013e612064565b606091505b50509050604051806060016040528060218152602001614cd0602191399350505050919050565b6060600060085467ffffffffffffffff8111156120ab576120aa6133bb565b5b6040519080825280602002602001820160405280156120de57816020015b60608152602001906001900390816120c95790505b50905060005b6008548110156121be57600f6000828152602001908152602001600020600101805461210f90613dfd565b80601f016020809104026020016040519081016040528092919081815260200182805461213b90613dfd565b80156121885780601f1061215d57610100808354040283529160200191612188565b820191906000526020600020905b81548152906001019060200180831161216b57829003601f168201915b50505050508282815181106121a05761219f613e2e565b5b602002602001018190525080806121b690613e5d565b9150506120e4565b508091505090565b60006121d0612916565b600061080173ffffffffffffffffffffffffffffffffffffffff1663b46a8d613060046040518363ffffffff1660e01b81526004016122109291906142dd565b6000604051808303816000875af115801561222f573d6000803e3d6000fd5b505050506040513d6000823e3d601f19601f820116820180604052508101906122589190614761565b9050600060026000858152602001908152602001600020549050600061080073ffffffffffffffffffffffffffffffffffffffff16633edab33c306004856040518463ffffffff1660e01b81526004016122b4939291906147aa565b6020604051808303816000875af11580156122d3573d6000803e3d6000fd5b505050506040513d601f19601f820116820180604052508101906122f791906147e8565b905060405180604001604052808260070b815260200183600560008981526020019081526020016000206001015461232f9190613d9a565b8152506005600087815260200190815260200160002060008201518160000160006101000a81548167ffffffffffffffff021916908360070b67ffffffffffffffff1602179055506020820151816001015590505060008360008151811061239a57612399613e2e565b5b602002602001015160200151905060003373ffffffffffffffffffffffffffffffffffffffff16826040516123ce90613ed6565b60006040518083038185875af1925050503d806000811461240b576040519150601f19603f3d011682016040523d82523d6000602084013e612410565b606091505b50509050600060026000898152602001908152602001600020819055508295505050505050919050565b600080600090505b6008548110156124a0578280519060200120600f60008381526020019081526020016000206001016040516124779190613f83565b60405180910390200361248d57809150506124a6565b808061249890613e5d565b915050612442565b50600090505b919050565b80600f600084815260200190815260200160002060020160008282546124d19190613d9a565b925050819055505050565b61080073ffffffffffffffffffffffffffffffffffffffff166353266bbb306004846040518463ffffffff1660e01b815260040161251c939291906147aa565b6020604051808303816000875af115801561253b573d6000803e3d6000fd5b505050506040513d601f19601f8201168201806040525081019061255f91906147e8565b5050565b600c5481565b600080600090505b6008548110156125e5578280519060200120600f60008381526020019081526020016000206001016040516125a69190613f83565b6040518091039020036125d257600f6000828152602001908152602001600020600001549150506125eb565b80806125dd90613e5d565b915050612571565b50600090505b919050565b606061080173ffffffffffffffffffffffffffffffffffffffff16639ad563b43060046040518363ffffffff1660e01b81526004016126309291906142dd565b600060405180830381865afa15801561264d573d6000803e3d6000fd5b505050506040513d6000823e3d601f19601f8201168201806040525081019061267691906149a2565b905090565b60005b6006548110156126e157600d6000828152602001908152602001600020600080820160006126ac9190613077565b6001820160006126bc9190613077565b6002820160006126cc9190613077565b505080806126d990613e5d565b91505061267e565b5060005b60075481101561273057600e600082815260200190815260200160002060008082016000905560018201600061271b9190613077565b5050808061272890613e5d565b9150506126e5565b5060005b60085481101561278757600f600082815260200190815260200160002060008082016000905560018201600061276a9190613077565b60028201600090555050808061277f90613e5d565b915050612734565b5060005b6007548110156127de576010600082815260200190815260200160002060008082016000905560018201600090556002820160006127c99190613077565b505080806127d690613e5d565b91505061278b565b5060005b600b54811015612835576012600082815260200190815260200160002060008082016000905560018201600090556002820160006128209190613077565b5050808061282d90613e5d565b9150506127e2565b5060005b600c5481101561288c576013600082815260200190815260200160002060008082016000905560018201600090556002820160006128779190613077565b5050808061288490613e5d565b915050612839565b5060005b600a548110156128e3576011600082815260200190815260200160002060008082016000905560018201600090556002820160006128ce9190613077565b505080806128db90613e5d565b915050612890565b506000600681905550600060078190555060006008819055506000600b819055506000600c819055506000600a81905550565b600061080073ffffffffffffffffffffffffffffffffffffffff1663b6039895327fffffffffffffffffffffffffffffffffffffffffffffffffffffffffffffffff60006040518463ffffffff1660e01b815260040161297893929190614b24565b6020604051808303816000875af1158015612997573d6000803e3d6000fd5b505050506040513d601f19601f820116820180604052508101906129bb9190614b9a565b9050806129fd576040517f08c379a00000000000000000000000000000000000000000000000000000000081526004016129f490614c13565b60405180910390fd5b600061080173ffffffffffffffffffffffffffffffffffffffff16637a9841ed3260016040518363ffffffff1660e01b8152600401612a3d929190614c33565b6020604051808303816000875af1158015612a5c573d6000803e3d6000fd5b505050506040513d601f19601f82011682018060405250810190612a809190614b9a565b905080612ac2576040517f08c379a0000000000000000000000000000000000000000000000000000000008152600401612ab990614caf565b60405180910390fd5b5050565b6012602052806000526040600020600091509050806000015490806001015490806002018054612af590613dfd565b80601f0160208091040260200160405190810160405280929190818152602001828054612b2190613dfd565b8015612b6e5780601f10612b4357610100808354040283529160200191612b6e565b820191906000526020600020905b815481529060010190602001808311612b5157829003601f168201915b5050505050905083565b80600f60008481526020019081526020016000206001019081612b9b9190614146565b505050565b6060600060065467ffffffffffffffff811115612bc057612bbf6133bb565b5b604051908082528060200260200182016040528015612bf357816020015b6060815260200190600190039081612bde5790505b50905060005b600654811015612cd357600d60008281526020019081526020016000206001018054612c2490613dfd565b80601f0160208091040260200160405190810160405280929190818152602001828054612c5090613dfd565b8015612c9d5780601f10612c7257610100808354040283529160200191612c9d565b820191906000526020600020905b815481529060010190602001808311612c8057829003601f168201915b5050505050828281518110612cb557612cb4613e2e565b5b60200260200101819052508080612ccb90613e5d565b915050612bf9565b508091505090565b80600e60008481526020019081526020016000206001019081612cfe9190614146565b505050565b600060405180606001604052808481526020018381526020016040518060400160405280600581526020017f46616c7365000000000000000000000000000000000000000000000000000000815250815250600d600060065481526020019081526020016000206000820151816000019081612d7f9190614146565b506020820151816001019081612d959190614146565b506040820151816002019081612dab9190614146565b5090505060066000815480929190612dc290613e5d565b9190505550600654905092915050565b60085481565b600060405180606001604052808481526020018581526020016000815250600f60006008548152602001908152602001600020600082015181600001556020820151816001019081612e2a9190614146565b506040820151816002015590505060086000815480929190612e4b90613e5d565b919050555060005b8251811015612eb057612e85600854600954858481518110612e7857612e77613e2e565b5b6020026020010151613017565b60096000815480929190612e9890613e5d565b91905055508080612ea890613e5d565b915050612e53565b5060085490509392505050565b6060600e60008381526020019081526020016000206001018054612ee090613dfd565b80601f0160208091040260200160405190810160405280929190818152602001828054612f0c90613dfd565b8015612f595780601f10612f2e57610100808354040283529160200191612f59565b820191906000526020600020905b815481529060010190602001808311612f3c57829003601f168201915b50505050509050919050565b6010602052806000526040600020600091509050806000015490806001015490806002018054612f9490613dfd565b80601f0160208091040260200160405190810160405280929190818152602001828054612fc090613dfd565b801561300d5780601f10612fe25761010080835404028352916020019161300d565b820191906000526020600020905b815481529060010190602001808311612ff057829003601f168201915b5050505050905083565b604051806060016040528084815260200183815260200182815250601060008481526020019081526020016000206000820151816000015560208201518160010155604082015181600201908161306e9190614146565b50905050505050565b50805461308390613dfd565b6000825580601f1061309557506130b4565b601f0160209004906000526020600020908101906130b391906130b7565b5b50565b5b808211156130d05760008160009055506001016130b8565b5090565b6000604051905090565b600080fd5b600080fd5b6000819050919050565b6130fb816130e8565b811461310657600080fd5b50565b600081359050613118816130f2565b92915050565b60008060408385031215613135576131346130de565b5b600061314385828601613109565b925050602061315485828601613109565b9150509250929050565b600060208284031215613174576131736130de565b5b600061318284828501613109565b91505092915050565b600081519050919050565b600082825260208201905092915050565b6000819050602082019050919050565b600081519050919050565b600082825260208201905092915050565b60005b838110156131f15780820151818401526020810190506131d6565b60008484015250505050565b6000601f19601f8301169050919050565b6000613219826131b7565b61322381856131c2565b93506132338185602086016131d3565b61323c816131fd565b840191505092915050565b6000613253838361320e565b905092915050565b6000602082019050919050565b60006132738261318b565b61327d8185613196565b93508360208202850161328f856131a7565b8060005b858110156132cb57848403895281516132ac8582613247565b94506132b78361325b565b925060208a01995050600181019050613293565b50829750879550505050505092915050565b600060208201905081810360008301526132f78184613268565b905092915050565b613308816130e8565b82525050565b600060208201905061332360008301846132ff565b92915050565b600082825260208201905092915050565b6000613345826131b7565b61334f8185613329565b935061335f8185602086016131d3565b613368816131fd565b840191505092915050565b600060608201905061338860008301866132ff565b61339560208301856132ff565b81810360408301526133a7818461333a565b9050949350505050565b600080fd5b600080fd5b7f4e487b7100000000000000000000000000000000000000000000000000000000600052604160045260246000fd5b6133f3826131fd565b810181811067ffffffffffffffff82111715613412576134116133bb565b5b80604052505050565b60006134256130d4565b905061343182826133ea565b919050565b600067ffffffffffffffff821115613451576134506133bb565b5b61345a826131fd565b9050602081019050919050565b82818337600083830152505050565b600061348961348484613436565b61341b565b9050828152602081018484840111156134a5576134a46133b6565b5b6134b0848285613467565b509392505050565b600082601f8301126134cd576134cc6133b1565b5b81356134dd848260208601613476565b91505092915050565b6000602082840312156134fc576134fb6130de565b5b600082013567ffffffffffffffff81111561351a576135196130e3565b5b613526848285016134b8565b91505092915050565b60006060820190508181036000830152613549818661333a565b9050818103602083015261355d818561333a565b90508181036040830152613571818461333a565b9050949350505050565b60008060408385031215613592576135916130de565b5b60006135a085828601613109565b925050602083013567ffffffffffffffff8111156135c1576135c06130e3565b5b6135cd858286016134b8565b9150509250929050565b600081519050919050565b600082825260208201905092915050565b6000819050602082019050919050565b60008160070b9050919050565b61361981613603565b82525050565b613628816130e8565b82525050565b6080820160008201516136446000850182613610565b5060208201516136576020850182613610565b50604082015161366a604085018261361f565b50606082015161367d606085018261361f565b50505050565b600061368f838361362e565b60808301905092915050565b6000602082019050919050565b60006136b3826135d7565b6136bd81856135e2565b93506136c8836135f3565b8060005b838110156136f95781516136e08882613683565b97506136eb8361369b565b9250506001810190506136cc565b5085935050505092915050565b6000602082019050818103600083015261372081846136a8565b905092915050565b600060608201905061373d60008301866132ff565b818103602083015261374f818561333a565b905061375e60408301846132ff565b949350505050565b60006020820190508181036000830152613780818461333a565b905092915050565b6000806040838503121561379f5761379e6130de565b5b600083013567ffffffffffffffff8111156137bd576137bc6130e3565b5b6137c9858286016134b8565b92505060206137da85828601613109565b9150509250929050565b6137ed81613603565b82525050565b600060408201905061380860008301856137e4565b61381560208301846132ff565b9392505050565b600060408201905061383160008301856132ff565b8181036020830152613843818461333a565b90509392505050565b600081519050919050565b600082825260208201905092915050565b6000819050602082019050919050565b6000613884838361361f565b60208301905092915050565b6000602082019050919050565b60006138a88261384c565b6138b28185613857565b93506138bd83613868565b8060005b838110156138ee5781516138d58882613878565b97506138e083613890565b9250506001810190506138c1565b5085935050505092915050565b60006020820190508181036000830152613915818461389d565b905092915050565b600080600060608486031215613936576139356130de565b5b600061394486828701613109565b935050602061395586828701613109565b925050604084013567ffffffffffffffff811115613976576139756130e3565b5b613982868287016134b8565b9150509250925092565b6000806000606084860312156139a5576139a46130de565b5b60006139b386828701613109565b935050602084013567ffffffffffffffff8111156139d4576139d36130e3565b5b6139e0868287016134b8565b925050604084013567ffffffffffffffff811115613a0157613a006130e3565b5b613a0d868287016134b8565b9150509250925092565b6000602082019050613a2c60008301846137e4565b92915050565b600081519050919050565b600082825260208201905092915050565b6000819050602082019050919050565b600060ff82169050919050565b613a7481613a5e565b82525050565b60006060830160008301518482036000860152613a97828261320e565b9150506020830151613aac602086018261361f565b506040830151613abf6040860182613a6b565b508091505092915050565b6000613ad68383613a7a565b905092915050565b6000602082019050919050565b6000613af682613a32565b613b008185613a3d565b935083602082028501613b1285613a4e565b8060005b85811015613b4e5784840389528151613b2f8582613aca565b9450613b3a83613ade565b925060208a01995050600181019050613b16565b50829750879550505050505092915050565b60006020820190508181036000830152613b7a8184613aeb565b905092915050565b60008060408385031215613b9957613b986130de565b5b600083013567ffffffffffffffff811115613bb757613bb66130e3565b5b613bc3858286016134b8565b925050602083013567ffffffffffffffff811115613be457613be36130e3565b5b613bf0858286016134b8565b9150509250929050565b600067ffffffffffffffff821115613c1557613c146133bb565b5b602082029050602081019050919050565b600080fd5b6000613c3e613c3984613bfa565b61341b565b90508083825260208201905060208402830185811115613c6157613c60613c26565b5b835b81811015613ca857803567ffffffffffffffff811115613c8657613c856133b1565b5b808601613c9389826134b8565b85526020850194505050602081019050613c63565b5050509392505050565b600082601f830112613cc757613cc66133b1565b5b8135613cd7848260208601613c2b565b91505092915050565b600080600060608486031215613cf957613cf86130de565b5b600084013567ffffffffffffffff811115613d1757613d166130e3565b5b613d23868287016134b8565b9350506020613d3486828701613109565b925050604084013567ffffffffffffffff811115613d5557613d546130e3565b5b613d6186828701613cb2565b9150509250925092565b7f4e487b7100000000000000000000000000000000000000000000000000000000600052601160045260246000fd5b6000613da5826130e8565b9150613db0836130e8565b9250828201905080821115613dc857613dc7613d6b565b5b92915050565b7f4e487b7100000000000000000000000000000000000000000000000000000000600052602260045260246000fd5b60006002820490506001821680613e1557607f821691505b602082108103613e2857613e27613dce565b5b50919050565b7f4e487b7100000000000000000000000000000000000000000000000000000000600052603260045260246000fd5b6000613e68826130e8565b91507fffffffffffffffffffffffffffffffffffffffffffffffffffffffffffffffff8203613e9a57613e99613d6b565b5b600182019050919050565b600081905092915050565b50565b6000613ec0600083613ea5565b9150613ecb82613eb0565b600082019050919050565b6000613ee182613eb3565b9150819050919050565b60008190508160005260206000209050919050565b60008154613f0d81613dfd565b613f178186613ea5565b94506001821660008114613f325760018114613f4757613f7a565b60ff1983168652811515820286019350613f7a565b613f5085613eeb565b60005b83811015613f7257815481890152600182019150602081019050613f53565b838801955050505b50505092915050565b6000613f8f8284613f00565b915081905092915050565b60008190508160005260206000209050919050565b60006020601f8301049050919050565b600082821b905092915050565b600060088302613ffc7fffffffffffffffffffffffffffffffffffffffffffffffffffffffffffffffff82613fbf565b6140068683613fbf565b95508019841693508086168417925050509392505050565b6000819050919050565b600061404361403e614039846130e8565b61401e565b6130e8565b9050919050565b6000819050919050565b61405d83614028565b6140716140698261404a565b848454613fcc565b825550505050565b600090565b614086614079565b614091818484614054565b505050565b5b818110156140b5576140aa60008261407e565b600181019050614097565b5050565b601f8211156140fa576140cb81613f9a565b6140d484613faf565b810160208510156140e3578190505b6140f76140ef85613faf565b830182614096565b50505b505050565b600082821c905092915050565b600061411d600019846008026140ff565b1980831691505092915050565b6000614136838361410c565b9150826002028217905092915050565b61414f826131b7565b67ffffffffffffffff811115614168576141676133bb565b5b6141728254613dfd565b61417d8282856140b9565b600060209050601f8311600181146141b0576000841561419e578287015190505b6141a8858261412a565b865550614210565b601f1984166141be86613f9a565b60005b828110156141e6578489015182556001820191506020850194506020810190506141c1565b8683101561420357848901516141ff601f89168261410c565b8355505b6001600288020188555050505b505050505050565b600073ffffffffffffffffffffffffffffffffffffffff82169050919050565b600061424382614218565b9050919050565b61425381614238565b82525050565b6000815461426681613dfd565b6142708186613329565b9450600182166000811461428b57600181146142a1576142d4565b60ff1983168652811515602002860193506142d4565b6142aa85613f9a565b60005b838110156142cc578154818901526001820191506020810190506142ad565b808801955050505b50505092915050565b60006040820190506142f2600083018561424a565b81810360208301526143048184614259565b90509392505050565b600067ffffffffffffffff821115614328576143276133bb565b5b602082029050602081019050919050565b600080fd5b600080fd5b61434c81613603565b811461435757600080fd5b50565b60008151905061436981614343565b92915050565b60008151905061437e816130f2565b92915050565b60006080828403121561439a57614399614339565b5b6143a4608061341b565b905060006143b48482850161435a565b60008301525060206143c88482850161435a565b60208301525060406143dc8482850161436f565b60408301525060606143f08482850161436f565b60608301525092915050565b600061440f61440a8461430d565b61341b565b9050808382526020820190506080840283018581111561443257614431613c26565b5b835b8181101561445b57806144478882614384565b845260208401935050608081019050614434565b5050509392505050565b600082601f83011261447a576144796133b1565b5b815161448a8482602086016143fc565b91505092915050565b6000602082840312156144a9576144a86130de565b5b600082015167ffffffffffffffff8111156144c7576144c66130e3565b5b6144d384828501614465565b91505092915050565b60006144ef6144ea84613436565b61341b565b90508281526020810184848401111561450b5761450a6133b6565b5b6145168482856131d3565b509392505050565b600082601f830112614533576145326133b1565b5b81516145438482602086016144dc565b91505092915050565b60006040828403121561456257614561614339565b5b61456c604061341b565b9050600082015167ffffffffffffffff81111561458c5761458b61433e565b5b6145988482850161451e565b60008301525060206145ac8482850161436f565b60208301525092915050565b600080604083850312156145cf576145ce6130de565b5b60006145dd8582860161436f565b925050602083015167ffffffffffffffff8111156145fe576145fd6130e3565b5b61460a8582860161454c565b9150509250929050565b7f5468652074696d6520686173206e6f7420706173736564207965740000000000600082015250565b600061464a601b83613329565b915061465582614614565b602082019050919050565b600060208201905081810360008301526146798161463d565b9050919050565b600067ffffffffffffffff82111561469b5761469a6133bb565b5b602082029050602081019050919050565b60006146bf6146ba84614680565b61341b565b905080838252602082019050602084028301858111156146e2576146e1613c26565b5b835b8181101561472957805167ffffffffffffffff811115614707576147066133b1565b5b808601614714898261454c565b855260208501945050506020810190506146e4565b5050509392505050565b600082601f830112614748576147476133b1565b5b81516147588482602086016146ac565b91505092915050565b600060208284031215614777576147766130de565b5b600082015167ffffffffffffffff811115614795576147946130e3565b5b6147a184828501614733565b91505092915050565b60006060820190506147bf600083018661424a565b81810360208301526147d18185614259565b90506147e060408301846132ff565b949350505050565b6000602082840312156147fe576147fd6130de565b5b600061480c8482850161435a565b91505092915050565b600067ffffffffffffffff8211156148305761482f6133bb565b5b602082029050602081019050919050565b61484a81613a5e565b811461485557600080fd5b50565b60008151905061486781614841565b92915050565b60006060828403121561488357614882614339565b5b61488d606061341b565b9050600082015167ffffffffffffffff8111156148ad576148ac61433e565b5b6148b98482850161451e565b60008301525060206148cd8482850161436f565b60208301525060406148e184828501614858565b60408301525092915050565b60006149006148fb84614815565b61341b565b9050808382526020820190506020840283018581111561492357614922613c26565b5b835b8181101561496a57805167ffffffffffffffff811115614948576149476133b1565b5b808601614955898261486d565b85526020850194505050602081019050614925565b5050509392505050565b600082601f830112614989576149886133b1565b5b81516149998482602086016148ed565b91505092915050565b6000602082840312156149b8576149b76130de565b5b600082015167ffffffffffffffff8111156149d6576149d56130e3565b5b6149e284828501614974565b91505092915050565b600081549050919050565b60008190508160005260206000209050919050565b60008154614a1881613dfd565b614a2281866131c2565b94506001821660008114614a3d5760018114614a5357614a86565b60ff198316865281151560200286019350614a86565b614a5c85613f9a565b60005b83811015614a7e57815481890152600182019150602081019050614a5f565b808801955050505b50505092915050565b6000614a9b8383614a0b565b905092915050565b6000600182019050919050565b6000614abb826149eb565b614ac58185613196565b935083602082028501614ad7856149f6565b8060005b85811015614b1257848403895281614af38582614a8f565b9450614afe83614aa3565b925060208a01995050600181019050614adb565b50829750879550505050505092915050565b6000606082019050614b39600083018661424a565b614b4660208301856132ff565b8181036040830152614b588184614ab0565b9050949350505050565b60008115159050919050565b614b7781614b62565b8114614b8257600080fd5b50565b600081519050614b9481614b6e565b92915050565b600060208284031215614bb057614baf6130de565b5b6000614bbe84828501614b85565b91505092915050565b7f5374616b696e6720417070726f7665206661696c656400000000000000000000600082015250565b6000614bfd601683613329565b9150614c0882614bc7565b602082019050919050565b60006020820190508181036000830152614c2c81614bf0565b9050919050565b6000604082019050614c48600083018561424a565b8181036020830152614c5a8184614ab0565b90509392505050565b7f446973747269627574696f6e20417070726f7665206661696c65640000000000600082015250565b6000614c99601b83613329565b9150614ca482614c63565b602082019050919050565b60006020820190508181036000830152614cc881614c8c565b905091905056fe4d6f6e657920686173206265656e2073656e7420746f2049646561204f776e6572a2646970667358221220a137b93ac7c5ccda2324736d8102a753b01fae756cb6a63be410d334e2cc282d64736f6c634300081100332f636f736d6f732e7374616b696e672e763162657461312e4d7367426567696e526564656c656761746565766d6f7376616c6f7065723135387777617334763666676375327833706c67373073367530666d306c6c653233376b6c74722f636f736d6f732e7374616b696e672e763162657461312e4d7367556e64656c65676174652f636f736d6f732e646973747269627574696f6e2e763162657461312e4d7367576974686472617744656c656761746f725265776172642f636f736d6f732e7374616b696e672e763162657461312e4d736744656c6567617465",
  "linkReferences": {},
  "deployedLinkReferences": {}
}